{
  "_format": "hh-sol-artifact-1",
  "contractName": "MyTokenForwarder",
  "sourceName": "contracts/EIP2771MetaTransaccions.sol",
  "abi": [
    {
      "inputs": [],
      "stateMutability": "nonpayable",
      "type": "constructor"
    },
    {
      "inputs": [
        {
          "components": [
            {
              "internalType": "address",
              "name": "from",
              "type": "address"
            },
            {
              "internalType": "address",
              "name": "to",
              "type": "address"
            },
            {
              "internalType": "uint256",
              "name": "nonce",
              "type": "uint256"
            },
            {
              "internalType": "bytes",
              "name": "data",
              "type": "bytes"
            }
          ],
          "internalType": "struct MyTokenForwarder.MetaTx",
          "name": "metaTx",
          "type": "tuple"
        },
        {
          "internalType": "bytes",
          "name": "signature",
          "type": "bytes"
        }
      ],
      "name": "executeFunction",
      "outputs": [
        {
          "internalType": "bool",
          "name": "",
          "type": "bool"
        }
      ],
      "stateMutability": "nonpayable",
      "type": "function"
    },
    {
      "inputs": [
        {
          "internalType": "address",
          "name": "from",
          "type": "address"
        }
      ],
      "name": "getNonce",
      "outputs": [
        {
          "internalType": "uint256",
          "name": "",
          "type": "uint256"
        }
      ],
      "stateMutability": "view",
      "type": "function"
    }
  ],
  "bytecode": "0x6101406040523480156200001257600080fd5b506040518060400160405280601081526020017f4d79546f6b656e466f72776172646572000000000000000000000000000000008152506040518060400160405280600581526020017f302e302e3100000000000000000000000000000000000000000000000000000081525060008280519060200120905060008280519060200120905060007f8b73c3c69bb8fe3d512ecc4cf759cc79239f7b179b0ffacaa9a75d522b39400f90508260e081815250508161010081815250504660a08181525050620000e88184846200013760201b60201c565b608081815250503073ffffffffffffffffffffffffffffffffffffffff1660c08173ffffffffffffffffffffffffffffffffffffffff168152505080610120818152505050505050506200024b565b6000838383463060405160200162000154959493929190620001ee565b6040516020818303038152906040528051906020012090509392505050565b6000819050919050565b620001888162000173565b82525050565b6000819050919050565b620001a3816200018e565b82525050565b600073ffffffffffffffffffffffffffffffffffffffff82169050919050565b6000620001d682620001a9565b9050919050565b620001e881620001c9565b82525050565b600060a0820190506200020560008301886200017d565b6200021460208301876200017d565b6200022360408301866200017d565b62000232606083018562000198565b620002416080830184620001dd565b9695505050505050565b60805160a05160c05160e05161010051610120516112506200029b6000396000610497015260006104d9015260006104b8015260006103ed015260006104430152600061046c01526112506000f3fe608060405234801561001057600080fd5b50600436106100365760003560e01c8063246eb08a1461003b5780632d0335ab1461006b575b600080fd5b610055600480360381019061005091906109b6565b61009b565b6040516100629190610a4d565b60405180910390f35b61008560048036038101906100809190610ac6565b610219565b6040516100929190610b0c565b60405180910390f35b60006100a8848484610261565b6100e7576040517f08c379a00000000000000000000000000000000000000000000000000000000081526004016100de90610baa565b60405180910390fd5b600184604001356100f89190610bf9565b60008086600001602081019061010e9190610ac6565b73ffffffffffffffffffffffffffffffffffffffff1673ffffffffffffffffffffffffffffffffffffffff1681526020019081526020016000208190555060008460200160208101906101619190610ac6565b73ffffffffffffffffffffffffffffffffffffffff168580606001906101879190610c5e565b87600001602081019061019a9190610ac6565b6040516020016101ac93929190610d48565b6040516020818303038152906040526040516101c89190610de1565b6000604051808303816000865af19150503d8060008114610205576040519150601f19603f3d011682016040523d82523d6000602084013e61020a565b606091505b50509050809150509392505050565b60008060008373ffffffffffffffffffffffffffffffffffffffff1673ffffffffffffffffffffffffffffffffffffffff168152602001908152602001600020549050919050565b6000806103087f8b32aa9805e812d071e6dd2a11709f8164ce7e0915a2f27cfb0b64ad40357d7e86600001602081019061029b9190610ac6565b8760200160208101906102ae9190610ac6565b88604001358980606001906102c39190610c5e565b6040516102d1929190610df8565b60405180910390206040516020016102ed959493929190610e39565b604051602081830303815290604052805190602001206103a8565b9050600061035a8286868080601f016020809104026020016040519081016040528093929190818152602001838380828437600081840152601f19601f820116905080830192505050505050506103c2565b905085600001602081019061036f9190610ac6565b73ffffffffffffffffffffffffffffffffffffffff168173ffffffffffffffffffffffffffffffffffffffff1614925050509392505050565b60006103bb6103b56103e9565b83610503565b9050919050565b60008060006103d18585610536565b915091506103de816105b9565b819250505092915050565b60007f000000000000000000000000000000000000000000000000000000000000000073ffffffffffffffffffffffffffffffffffffffff163073ffffffffffffffffffffffffffffffffffffffff1614801561046557507f000000000000000000000000000000000000000000000000000000000000000046145b15610492577f00000000000000000000000000000000000000000000000000000000000000009050610500565b6104fd7f00000000000000000000000000000000000000000000000000000000000000007f00000000000000000000000000000000000000000000000000000000000000007f000000000000000000000000000000000000000000000000000000000000000061078e565b90505b90565b60008282604051602001610518929190610f04565b60405160208183030381529060405280519060200120905092915050565b6000806041835114156105785760008060006020860151925060408601519150606086015160001a905061056c878285856107c8565b945094505050506105b2565b6040835114156105a957600080602085015191506040850151905061059e8683836108d5565b9350935050506105b2565b60006002915091505b9250929050565b600060048111156105cd576105cc610f3b565b5b8160048111156105e0576105df610f3b565b5b14156105eb5761078b565b600160048111156105ff576105fe610f3b565b5b81600481111561061257610611610f3b565b5b1415610653576040517f08c379a000000000000000000000000000000000000000000000000000000000815260040161064a90610fb6565b60405180910390fd5b6002600481111561066757610666610f3b565b5b81600481111561067a57610679610f3b565b5b14156106bb576040517f08c379a00000000000000000000000000000000000000000000000000000000081526004016106b290611022565b60405180910390fd5b600360048111156106cf576106ce610f3b565b5b8160048111156106e2576106e1610f3b565b5b1415610723576040517f08c379a000000000000000000000000000000000000000000000000000000000815260040161071a906110b4565b60405180910390fd5b60048081111561073657610735610f3b565b5b81600481111561074957610748610f3b565b5b141561078a576040517f08c379a000000000000000000000000000000000000000000000000000000000815260040161078190611146565b60405180910390fd5b5b50565b600083838346306040516020016107a9959493929190611166565b6040516020818303038152906040528051906020012090509392505050565b6000807f7fffffffffffffffffffffffffffffff5d576e7357a4501ddfe92f46681b20a08360001c11156108035760006003915091506108cc565b601b8560ff161415801561081b5750601c8560ff1614155b1561082d5760006004915091506108cc565b60006001878787876040516000815260200160405260405161085294939291906111d5565b6020604051602081039080840390855afa158015610874573d6000803e3d6000fd5b505050602060405103519050600073ffffffffffffffffffffffffffffffffffffffff168173ffffffffffffffffffffffffffffffffffffffff1614156108c3576000600192509250506108cc565b80600092509250505b94509492505050565b6000806000807f7fffffffffffffffffffffffffffffffffffffffffffffffffffffffffffffff85169150601b8560ff1c019050610915878288856107c8565b935093505050935093915050565b600080fd5b600080fd5b600080fd5b6000608082840312156109485761094761092d565b5b81905092915050565b600080fd5b600080fd5b600080fd5b60008083601f84011261097657610975610951565b5b8235905067ffffffffffffffff81111561099357610992610956565b5b6020830191508360018202830111156109af576109ae61095b565b5b9250929050565b6000806000604084860312156109cf576109ce610923565b5b600084013567ffffffffffffffff8111156109ed576109ec610928565b5b6109f986828701610932565b935050602084013567ffffffffffffffff811115610a1a57610a19610928565b5b610a2686828701610960565b92509250509250925092565b60008115159050919050565b610a4781610a32565b82525050565b6000602082019050610a626000830184610a3e565b92915050565b600073ffffffffffffffffffffffffffffffffffffffff82169050919050565b6000610a9382610a68565b9050919050565b610aa381610a88565b8114610aae57600080fd5b50565b600081359050610ac081610a9a565b92915050565b600060208284031215610adc57610adb610923565b5b6000610aea84828501610ab1565b91505092915050565b6000819050919050565b610b0681610af3565b82525050565b6000602082019050610b216000830184610afd565b92915050565b600082825260208201905092915050565b7f4d79546f6b656e466f727761726465723a20496e76616c6964207369676e617460008201527f7572650000000000000000000000000000000000000000000000000000000000602082015250565b6000610b94602383610b27565b9150610b9f82610b38565b604082019050919050565b60006020820190508181036000830152610bc381610b87565b9050919050565b7f4e487b7100000000000000000000000000000000000000000000000000000000600052601160045260246000fd5b6000610c0482610af3565b9150610c0f83610af3565b9250827fffffffffffffffffffffffffffffffffffffffffffffffffffffffffffffffff03821115610c4457610c43610bca565b5b828201905092915050565b600080fd5b600080fd5b600080fd5b60008083356001602003843603038112610c7b57610c7a610c4f565b5b80840192508235915067ffffffffffffffff821115610c9d57610c9c610c54565b5b602083019250600182023603831315610cb957610cb8610c59565b5b509250929050565b600081905092915050565b82818337600083830152505050565b6000610ce78385610cc1565b9350610cf4838584610ccc565b82840190509392505050565b60008160601b9050919050565b6000610d1882610d00565b9050919050565b6000610d2a82610d0d565b9050919050565b610d42610d3d82610a88565b610d1f565b82525050565b6000610d55828587610cdb565b9150610d618284610d31565b601482019150819050949350505050565b600081519050919050565b60005b83811015610d9b578082015181840152602081019050610d80565b83811115610daa576000848401525b50505050565b6000610dbb82610d72565b610dc58185610cc1565b9350610dd5818560208601610d7d565b80840191505092915050565b6000610ded8284610db0565b915081905092915050565b6000610e05828486610cdb565b91508190509392505050565b6000819050919050565b610e2481610e11565b82525050565b610e3381610a88565b82525050565b600060a082019050610e4e6000830188610e1b565b610e5b6020830187610e2a565b610e686040830186610e2a565b610e756060830185610afd565b610e826080830184610e1b565b9695505050505050565b600081905092915050565b7f1901000000000000000000000000000000000000000000000000000000000000600082015250565b6000610ecd600283610e8c565b9150610ed882610e97565b600282019050919050565b6000819050919050565b610efe610ef982610e11565b610ee3565b82525050565b6000610f0f82610ec0565b9150610f1b8285610eed565b602082019150610f2b8284610eed565b6020820191508190509392505050565b7f4e487b7100000000000000000000000000000000000000000000000000000000600052602160045260246000fd5b7f45434453413a20696e76616c6964207369676e61747572650000000000000000600082015250565b6000610fa0601883610b27565b9150610fab82610f6a565b602082019050919050565b60006020820190508181036000830152610fcf81610f93565b9050919050565b7f45434453413a20696e76616c6964207369676e6174757265206c656e67746800600082015250565b600061100c601f83610b27565b915061101782610fd6565b602082019050919050565b6000602082019050818103600083015261103b81610fff565b9050919050565b7f45434453413a20696e76616c6964207369676e6174757265202773272076616c60008201527f7565000000000000000000000000000000000000000000000000000000000000602082015250565b600061109e602283610b27565b91506110a982611042565b604082019050919050565b600060208201905081810360008301526110cd81611091565b9050919050565b7f45434453413a20696e76616c6964207369676e6174757265202776272076616c60008201527f7565000000000000000000000000000000000000000000000000000000000000602082015250565b6000611130602283610b27565b915061113b826110d4565b604082019050919050565b6000602082019050818103600083015261115f81611123565b9050919050565b600060a08201905061117b6000830188610e1b565b6111886020830187610e1b565b6111956040830186610e1b565b6111a26060830185610afd565b6111af6080830184610e2a565b9695505050505050565b600060ff82169050919050565b6111cf816111b9565b82525050565b60006080820190506111ea6000830187610e1b565b6111f760208301866111c6565b6112046040830185610e1b565b6112116060830184610e1b565b9594505050505056fea264697066735822122041bbefccf179003f65a1b3fb74ed27436c0d30f39c23fd2eb7c69a203bc9ce4b64736f6c634300080b0033",
  "linkReferences": {},
  "deployedLinkReferences": {}
}