{
  "_format": "hh-sol-artifact-1",
  "contractName": "MyTokenV3",
  "sourceName": "contracts/myTokenV3.sol",
  "abi": [
    {
      "anonymous": false,
      "inputs": [
        {
          "indexed": false,
          "internalType": "address",
          "name": "previousAdmin",
          "type": "address"
        },
        {
          "indexed": false,
          "internalType": "address",
          "name": "newAdmin",
          "type": "address"
        }
      ],
      "name": "AdminChanged",
      "type": "event"
    },
    {
      "anonymous": false,
      "inputs": [
        {
          "indexed": true,
          "internalType": "address",
          "name": "owner",
          "type": "address"
        },
        {
          "indexed": true,
          "internalType": "address",
          "name": "spender",
          "type": "address"
        },
        {
          "indexed": false,
          "internalType": "uint256",
          "name": "value",
          "type": "uint256"
        }
      ],
      "name": "Approval",
      "type": "event"
    },
    {
      "anonymous": false,
      "inputs": [
        {
          "indexed": true,
          "internalType": "address",
          "name": "beacon",
          "type": "address"
        }
      ],
      "name": "BeaconUpgraded",
      "type": "event"
    },
    {
      "anonymous": false,
      "inputs": [
        {
          "indexed": true,
          "internalType": "address",
          "name": "previousOwner",
          "type": "address"
        },
        {
          "indexed": true,
          "internalType": "address",
          "name": "newOwner",
          "type": "address"
        }
      ],
      "name": "OwnershipTransferred",
      "type": "event"
    },
    {
      "anonymous": false,
      "inputs": [
        {
          "indexed": true,
          "internalType": "address",
          "name": "from",
          "type": "address"
        },
        {
          "indexed": true,
          "internalType": "address",
          "name": "to",
          "type": "address"
        },
        {
          "indexed": false,
          "internalType": "uint256",
          "name": "value",
          "type": "uint256"
        }
      ],
      "name": "Transfer",
      "type": "event"
    },
    {
      "anonymous": false,
      "inputs": [
        {
          "indexed": true,
          "internalType": "address",
          "name": "implementation",
          "type": "address"
        }
      ],
      "name": "Upgraded",
      "type": "event"
    },
    {
      "inputs": [
        {
          "internalType": "address",
          "name": "owner",
          "type": "address"
        },
        {
          "internalType": "address",
          "name": "spender",
          "type": "address"
        }
      ],
      "name": "allowance",
      "outputs": [
        {
          "internalType": "uint256",
          "name": "",
          "type": "uint256"
        }
      ],
      "stateMutability": "view",
      "type": "function"
    },
    {
      "inputs": [
        {
          "internalType": "address",
          "name": "spender",
          "type": "address"
        },
        {
          "internalType": "uint256",
          "name": "amount",
          "type": "uint256"
        }
      ],
      "name": "approve",
      "outputs": [
        {
          "internalType": "bool",
          "name": "",
          "type": "bool"
        }
      ],
      "stateMutability": "nonpayable",
      "type": "function"
    },
    {
      "inputs": [
        {
          "internalType": "address",
          "name": "account",
          "type": "address"
        }
      ],
      "name": "balanceOf",
      "outputs": [
        {
          "internalType": "uint256",
          "name": "",
          "type": "uint256"
        }
      ],
      "stateMutability": "view",
      "type": "function"
    },
    {
      "inputs": [],
      "name": "decimals",
      "outputs": [
        {
          "internalType": "uint8",
          "name": "",
          "type": "uint8"
        }
      ],
      "stateMutability": "view",
      "type": "function"
    },
    {
      "inputs": [
        {
          "internalType": "address",
          "name": "spender",
          "type": "address"
        },
        {
          "internalType": "uint256",
          "name": "subtractedValue",
          "type": "uint256"
        }
      ],
      "name": "decreaseAllowance",
      "outputs": [
        {
          "internalType": "bool",
          "name": "",
          "type": "bool"
        }
      ],
      "stateMutability": "nonpayable",
      "type": "function"
    },
    {
      "inputs": [
        {
          "internalType": "address",
          "name": "spender",
          "type": "address"
        },
        {
          "internalType": "uint256",
          "name": "addedValue",
          "type": "uint256"
        }
      ],
      "name": "increaseAllowance",
      "outputs": [
        {
          "internalType": "bool",
          "name": "",
          "type": "bool"
        }
      ],
      "stateMutability": "nonpayable",
      "type": "function"
    },
    {
      "inputs": [
        {
          "internalType": "uint256",
          "name": "initialSupply",
          "type": "uint256"
        },
        {
          "internalType": "address",
          "name": "trustedForwarder",
          "type": "address"
        }
      ],
      "name": "initialize",
      "outputs": [],
      "stateMutability": "nonpayable",
      "type": "function"
    },
    {
      "inputs": [
        {
          "internalType": "address",
          "name": "forwarder",
          "type": "address"
        }
      ],
      "name": "isTrustedForwarder",
      "outputs": [
        {
          "internalType": "bool",
          "name": "",
          "type": "bool"
        }
      ],
      "stateMutability": "view",
      "type": "function"
    },
    {
      "inputs": [
        {
          "internalType": "address",
          "name": "toAccount",
          "type": "address"
        },
        {
          "internalType": "uint256",
          "name": "amount",
          "type": "uint256"
        }
      ],
      "name": "mint",
      "outputs": [],
      "stateMutability": "nonpayable",
      "type": "function"
    },
    {
      "inputs": [],
      "name": "name",
      "outputs": [
        {
          "internalType": "string",
          "name": "",
          "type": "string"
        }
      ],
      "stateMutability": "view",
      "type": "function"
    },
    {
      "inputs": [],
      "name": "owner",
      "outputs": [
        {
          "internalType": "address",
          "name": "",
          "type": "address"
        }
      ],
      "stateMutability": "view",
      "type": "function"
    },
    {
      "inputs": [],
      "name": "renounceOwnership",
      "outputs": [],
      "stateMutability": "nonpayable",
      "type": "function"
    },
    {
      "inputs": [],
      "name": "symbol",
      "outputs": [
        {
          "internalType": "string",
          "name": "",
          "type": "string"
        }
      ],
      "stateMutability": "view",
      "type": "function"
    },
    {
      "inputs": [],
      "name": "totalSupply",
      "outputs": [
        {
          "internalType": "uint256",
          "name": "",
          "type": "uint256"
        }
      ],
      "stateMutability": "view",
      "type": "function"
    },
    {
      "inputs": [
        {
          "internalType": "address",
          "name": "recipient",
          "type": "address"
        },
        {
          "internalType": "uint256",
          "name": "amount",
          "type": "uint256"
        }
      ],
      "name": "transfer",
      "outputs": [
        {
          "internalType": "bool",
          "name": "",
          "type": "bool"
        }
      ],
      "stateMutability": "nonpayable",
      "type": "function"
    },
    {
      "inputs": [
        {
          "internalType": "address",
          "name": "sender",
          "type": "address"
        },
        {
          "internalType": "address",
          "name": "recipient",
          "type": "address"
        },
        {
          "internalType": "uint256",
          "name": "amount",
          "type": "uint256"
        }
      ],
      "name": "transferFrom",
      "outputs": [
        {
          "internalType": "bool",
          "name": "",
          "type": "bool"
        }
      ],
      "stateMutability": "nonpayable",
      "type": "function"
    },
    {
      "inputs": [
        {
          "internalType": "address",
          "name": "newOwner",
          "type": "address"
        }
      ],
      "name": "transferOwnership",
      "outputs": [],
      "stateMutability": "nonpayable",
      "type": "function"
    },
    {
      "inputs": [
        {
          "internalType": "address",
          "name": "newImplementation",
          "type": "address"
        }
      ],
      "name": "upgradeTo",
      "outputs": [],
      "stateMutability": "nonpayable",
      "type": "function"
    },
    {
      "inputs": [
        {
          "internalType": "address",
          "name": "newImplementation",
          "type": "address"
        },
        {
          "internalType": "bytes",
          "name": "data",
          "type": "bytes"
        }
      ],
      "name": "upgradeToAndCall",
      "outputs": [],
      "stateMutability": "payable",
      "type": "function"
    }
  ],
  "bytecode": "0x60a06040523073ffffffffffffffffffffffffffffffffffffffff1660809073ffffffffffffffffffffffffffffffffffffffff1681525034801561004357600080fd5b506080516132106100746000396000818161066c015281816106fb0152818161092b01526109ba01526132106000f3fe6080604052600436106101145760003560e01c8063572b6c05116100a0578063a457c2d711610064578063a457c2d7146103a6578063a9059cbb146103e3578063da35a26f14610420578063dd62ed3e14610449578063f2fde38b1461048657610114565b8063572b6c05146102bf57806370a08231146102fc578063715018a6146103395780638da5cb5b1461035057806395d89b411461037b57610114565b8063313ce567116100e7578063313ce567146101e95780633659cfe614610214578063395093511461023d57806340c10f191461027a5780634f1ef286146102a357610114565b806306fdde0314610119578063095ea7b31461014457806318160ddd1461018157806323b872dd146101ac575b600080fd5b34801561012557600080fd5b5061012e6104af565b60405161013b91906120d5565b60405180910390f35b34801561015057600080fd5b5061016b6004803603810190610166919061219f565b610541565b60405161017891906121fa565b60405180910390f35b34801561018d57600080fd5b5061019661055f565b6040516101a39190612224565b60405180910390f35b3480156101b857600080fd5b506101d360048036038101906101ce919061223f565b610569565b6040516101e091906121fa565b60405180910390f35b3480156101f557600080fd5b506101fe610661565b60405161020b91906122ae565b60405180910390f35b34801561022057600080fd5b5061023b600480360381019061023691906122c9565b61066a565b005b34801561024957600080fd5b50610264600480360381019061025f919061219f565b6107f3565b60405161027191906121fa565b60405180910390f35b34801561028657600080fd5b506102a1600480360381019061029c919061219f565b61089f565b005b6102bd60048036038101906102b8919061242b565b610929565b005b3480156102cb57600080fd5b506102e660048036038101906102e191906122c9565b610a66565b6040516102f391906121fa565b60405180910390f35b34801561030857600080fd5b50610323600480360381019061031e91906122c9565b610ac0565b6040516103309190612224565b60405180910390f35b34801561034557600080fd5b5061034e610b09565b005b34801561035c57600080fd5b50610365610b91565b6040516103729190612496565b60405180910390f35b34801561038757600080fd5b50610390610bbb565b60405161039d91906120d5565b60405180910390f35b3480156103b257600080fd5b506103cd60048036038101906103c8919061219f565b610c4d565b6040516103da91906121fa565b60405180910390f35b3480156103ef57600080fd5b5061040a6004803603810190610405919061219f565b610d38565b60405161041791906121fa565b60405180910390f35b34801561042c57600080fd5b50610447600480360381019061044291906124b1565b610d56565b005b34801561045557600080fd5b50610470600480360381019061046b91906124f1565b610ef1565b60405161047d9190612224565b60405180910390f35b34801561049257600080fd5b506104ad60048036038101906104a891906122c9565b610f78565b005b6060603680546104be90612560565b80601f01602080910402602001604051908101604052809291908181526020018280546104ea90612560565b80156105375780601f1061050c57610100808354040283529160200191610537565b820191906000526020600020905b81548152906001019060200180831161051a57829003601f168201915b5050505050905090565b600061055561054e611070565b848461107f565b6001905092915050565b6000603554905090565b600061057684848461124a565b6000603460008673ffffffffffffffffffffffffffffffffffffffff1673ffffffffffffffffffffffffffffffffffffffff16815260200190815260200160002060006105c1611070565b73ffffffffffffffffffffffffffffffffffffffff1673ffffffffffffffffffffffffffffffffffffffff16815260200190815260200160002054905082811015610641576040517f08c379a000000000000000000000000000000000000000000000000000000000815260040161063890612604565b60405180910390fd5b6106558561064d611070565b85840361107f565b60019150509392505050565b60006012905090565b7f000000000000000000000000000000000000000000000000000000000000000073ffffffffffffffffffffffffffffffffffffffff163073ffffffffffffffffffffffffffffffffffffffff1614156106f9576040517f08c379a00000000000000000000000000000000000000000000000000000000081526004016106f090612696565b60405180910390fd5b7f000000000000000000000000000000000000000000000000000000000000000073ffffffffffffffffffffffffffffffffffffffff166107386114ce565b73ffffffffffffffffffffffffffffffffffffffff161461078e576040517f08c379a000000000000000000000000000000000000000000000000000000000815260040161078590612728565b60405180910390fd5b61079781611525565b6107f081600067ffffffffffffffff8111156107b6576107b5612300565b5b6040519080825280601f01601f1916602001820160405280156107e85781602001600182028036833780820191505090505b5060006115a4565b50565b6000610895610800611070565b84846034600061080e611070565b73ffffffffffffffffffffffffffffffffffffffff1673ffffffffffffffffffffffffffffffffffffffff16815260200190815260200160002060008873ffffffffffffffffffffffffffffffffffffffff1673ffffffffffffffffffffffffffffffffffffffff168152602001908152602001600020546108909190612777565b61107f565b6001905092915050565b6108a7611070565b73ffffffffffffffffffffffffffffffffffffffff166108c5610b91565b73ffffffffffffffffffffffffffffffffffffffff161461091b576040517f08c379a000000000000000000000000000000000000000000000000000000000815260040161091290612819565b60405180910390fd5b6109258282611775565b5050565b7f000000000000000000000000000000000000000000000000000000000000000073ffffffffffffffffffffffffffffffffffffffff163073ffffffffffffffffffffffffffffffffffffffff1614156109b8576040517f08c379a00000000000000000000000000000000000000000000000000000000081526004016109af90612696565b60405180910390fd5b7f000000000000000000000000000000000000000000000000000000000000000073ffffffffffffffffffffffffffffffffffffffff166109f76114ce565b73ffffffffffffffffffffffffffffffffffffffff1614610a4d576040517f08c379a0000000000000000000000000000000000000000000000000000000008152600401610a4490612728565b60405180910390fd5b610a5682611525565b610a62828260016115a4565b5050565b600060fb60009054906101000a900473ffffffffffffffffffffffffffffffffffffffff1673ffffffffffffffffffffffffffffffffffffffff168273ffffffffffffffffffffffffffffffffffffffff16149050919050565b6000603360008373ffffffffffffffffffffffffffffffffffffffff1673ffffffffffffffffffffffffffffffffffffffff168152602001908152602001600020549050919050565b610b11611070565b73ffffffffffffffffffffffffffffffffffffffff16610b2f610b91565b73ffffffffffffffffffffffffffffffffffffffff1614610b85576040517f08c379a0000000000000000000000000000000000000000000000000000000008152600401610b7c90612819565b60405180910390fd5b610b8f60006118d6565b565b600060c960009054906101000a900473ffffffffffffffffffffffffffffffffffffffff16905090565b606060378054610bca90612560565b80601f0160208091040260200160405190810160405280929190818152602001828054610bf690612560565b8015610c435780601f10610c1857610100808354040283529160200191610c43565b820191906000526020600020905b815481529060010190602001808311610c2657829003601f168201915b5050505050905090565b60008060346000610c5c611070565b73ffffffffffffffffffffffffffffffffffffffff1673ffffffffffffffffffffffffffffffffffffffff16815260200190815260200160002060008573ffffffffffffffffffffffffffffffffffffffff1673ffffffffffffffffffffffffffffffffffffffff16815260200190815260200160002054905082811015610d19576040517f08c379a0000000000000000000000000000000000000000000000000000000008152600401610d10906128ab565b60405180910390fd5b610d2d610d24611070565b8585840361107f565b600191505092915050565b6000610d4c610d45611070565b848461124a565b6001905092915050565b600060019054906101000a900460ff16610d7e5760008054906101000a900460ff1615610d87565b610d8661199c565b5b610dc6576040517f08c379a0000000000000000000000000000000000000000000000000000000008152600401610dbd9061293d565b60405180910390fd5b60008060019054906101000a900460ff161590508015610e16576001600060016101000a81548160ff02191690831515021790555060016000806101000a81548160ff0219169083151502179055505b610e8a6040518060400160405280600781526020017f4d79546f6b656e000000000000000000000000000000000000000000000000008152506040518060400160405280600381526020017f4d595400000000000000000000000000000000000000000000000000000000008152506119ad565b610e92611a12565b610e9a611a73565b610ec233610ea6610661565b600a610eb29190612a90565b85610ebd9190612adb565b611775565b610ecb82611ad4565b8015610eec5760008060016101000a81548160ff0219169083151502179055505b505050565b6000603460008473ffffffffffffffffffffffffffffffffffffffff1673ffffffffffffffffffffffffffffffffffffffff16815260200190815260200160002060008373ffffffffffffffffffffffffffffffffffffffff1673ffffffffffffffffffffffffffffffffffffffff16815260200190815260200160002054905092915050565b610f80611070565b73ffffffffffffffffffffffffffffffffffffffff16610f9e610b91565b73ffffffffffffffffffffffffffffffffffffffff1614610ff4576040517f08c379a0000000000000000000000000000000000000000000000000000000008152600401610feb90612819565b60405180910390fd5b600073ffffffffffffffffffffffffffffffffffffffff168173ffffffffffffffffffffffffffffffffffffffff161415611064576040517f08c379a000000000000000000000000000000000000000000000000000000000815260040161105b90612ba7565b60405180910390fd5b61106d816118d6565b50565b600061107a611b67565b905090565b600073ffffffffffffffffffffffffffffffffffffffff168373ffffffffffffffffffffffffffffffffffffffff1614156110ef576040517f08c379a00000000000000000000000000000000000000000000000000000000081526004016110e690612c39565b60405180910390fd5b600073ffffffffffffffffffffffffffffffffffffffff168273ffffffffffffffffffffffffffffffffffffffff16141561115f576040517f08c379a000000000000000000000000000000000000000000000000000000000815260040161115690612ccb565b60405180910390fd5b80603460008573ffffffffffffffffffffffffffffffffffffffff1673ffffffffffffffffffffffffffffffffffffffff16815260200190815260200160002060008473ffffffffffffffffffffffffffffffffffffffff1673ffffffffffffffffffffffffffffffffffffffff168152602001908152602001600020819055508173ffffffffffffffffffffffffffffffffffffffff168373ffffffffffffffffffffffffffffffffffffffff167f8c5be1e5ebec7d5bd14f71427d1e84f3dd0314c0f7b2291e5b200ac8c7c3b9258360405161123d9190612224565b60405180910390a3505050565b600073ffffffffffffffffffffffffffffffffffffffff168373ffffffffffffffffffffffffffffffffffffffff1614156112ba576040517f08c379a00000000000000000000000000000000000000000000000000000000081526004016112b190612d5d565b60405180910390fd5b600073ffffffffffffffffffffffffffffffffffffffff168273ffffffffffffffffffffffffffffffffffffffff16141561132a576040517f08c379a000000000000000000000000000000000000000000000000000000000815260040161132190612def565b60405180910390fd5b611335838383611b99565b6000603360008573ffffffffffffffffffffffffffffffffffffffff1673ffffffffffffffffffffffffffffffffffffffff168152602001908152602001600020549050818110156113bc576040517f08c379a00000000000000000000000000000000000000000000000000000000081526004016113b390612e81565b60405180910390fd5b818103603360008673ffffffffffffffffffffffffffffffffffffffff1673ffffffffffffffffffffffffffffffffffffffff1681526020019081526020016000208190555081603360008573ffffffffffffffffffffffffffffffffffffffff1673ffffffffffffffffffffffffffffffffffffffff16815260200190815260200160002060008282546114519190612777565b925050819055508273ffffffffffffffffffffffffffffffffffffffff168473ffffffffffffffffffffffffffffffffffffffff167fddf252ad1be2c89b69c2b068fc378daa952ba7f163c4a11628f55a4df523b3ef846040516114b59190612224565b60405180910390a36114c8848484611b9e565b50505050565b60006114fc7f360894a13ba1a3210667c828492db98dca3e2076cc3735a920a3ca505d382bbc60001b611ba3565b60000160009054906101000a900473ffffffffffffffffffffffffffffffffffffffff16905090565b61152d611070565b73ffffffffffffffffffffffffffffffffffffffff1661154b610b91565b73ffffffffffffffffffffffffffffffffffffffff16146115a1576040517f08c379a000000000000000000000000000000000000000000000000000000000815260040161159890612819565b60405180910390fd5b50565b60006115ae6114ce565b90506115b984611bad565b6000835111806115c65750815b156115d7576115d58484611c66565b505b60006116057f4910fdfa16fed3260ed0e7147f7cc6da11a60208b5b9406d12a635614ffd914360001b611d4a565b90508060000160009054906101000a900460ff1661176e5760018160000160006101000a81548160ff0219169083151502179055506116d1858360405160240161164f9190612496565b6040516020818303038152906040527f3659cfe6000000000000000000000000000000000000000000000000000000007bffffffffffffffffffffffffffffffffffffffffffffffffffffffff19166020820180517bffffffffffffffffffffffffffffffffffffffffffffffffffffffff8381831617835250505050611c66565b5060008160000160006101000a81548160ff0219169083151502179055506116f76114ce565b73ffffffffffffffffffffffffffffffffffffffff168273ffffffffffffffffffffffffffffffffffffffff1614611764576040517f08c379a000000000000000000000000000000000000000000000000000000000815260040161175b90612f13565b60405180910390fd5b61176d85611d54565b5b5050505050565b600073ffffffffffffffffffffffffffffffffffffffff168273ffffffffffffffffffffffffffffffffffffffff1614156117e5576040517f08c379a00000000000000000000000000000000000000000000000000000000081526004016117dc90612f7f565b60405180910390fd5b6117f160008383611b99565b80603560008282546118039190612777565b9250508190555080603360008473ffffffffffffffffffffffffffffffffffffffff1673ffffffffffffffffffffffffffffffffffffffff16815260200190815260200160002060008282546118599190612777565b925050819055508173ffffffffffffffffffffffffffffffffffffffff16600073ffffffffffffffffffffffffffffffffffffffff167fddf252ad1be2c89b69c2b068fc378daa952ba7f163c4a11628f55a4df523b3ef836040516118be9190612224565b60405180910390a36118d260008383611b9e565b5050565b600060c960009054906101000a900473ffffffffffffffffffffffffffffffffffffffff1690508160c960006101000a81548173ffffffffffffffffffffffffffffffffffffffff021916908373ffffffffffffffffffffffffffffffffffffffff1602179055508173ffffffffffffffffffffffffffffffffffffffff168173ffffffffffffffffffffffffffffffffffffffff167f8be0079c531659141344cd1fd0a4f28419497f9722a3daafe3b4186f6b6457e060405160405180910390a35050565b60006119a730611da3565b15905090565b600060019054906101000a900460ff166119fc576040517f08c379a00000000000000000000000000000000000000000000000000000000081526004016119f390613011565b60405180910390fd5b611a04611db6565b611a0e8282611e07565b5050565b600060019054906101000a900460ff16611a61576040517f08c379a0000000000000000000000000000000000000000000000000000000008152600401611a5890613011565b60405180910390fd5b611a71611a6c611070565b6118d6565b565b600060019054906101000a900460ff16611ac2576040517f08c379a0000000000000000000000000000000000000000000000000000000008152600401611ab990613011565b60405180910390fd5b611aca611e88565b611ad2611ed9565b565b600060019054906101000a900460ff16611b23576040517f08c379a0000000000000000000000000000000000000000000000000000000008152600401611b1a90613011565b60405180910390fd5b8060fb60006101000a81548173ffffffffffffffffffffffffffffffffffffffff021916908373ffffffffffffffffffffffffffffffffffffffff16021790555050565b6000611b7233610a66565b15611b8657601436033560601c9050611b95565b611b8e611f2a565b9050611b96565b5b90565b505050565b505050565b6000819050919050565b611bb681611da3565b611bf5576040517f08c379a0000000000000000000000000000000000000000000000000000000008152600401611bec906130a3565b60405180910390fd5b80611c227f360894a13ba1a3210667c828492db98dca3e2076cc3735a920a3ca505d382bbc60001b611ba3565b60000160006101000a81548173ffffffffffffffffffffffffffffffffffffffff021916908373ffffffffffffffffffffffffffffffffffffffff16021790555050565b6060611c7183611da3565b611cb0576040517f08c379a0000000000000000000000000000000000000000000000000000000008152600401611ca790613135565b60405180910390fd5b6000808473ffffffffffffffffffffffffffffffffffffffff1684604051611cd8919061319c565b600060405180830381855af49150503d8060008114611d13576040519150601f19603f3d011682016040523d82523d6000602084013e611d18565b606091505b5091509150611d4082826040518060600160405280602781526020016131b460279139611f32565b9250505092915050565b6000819050919050565b611d5d81611bad565b8073ffffffffffffffffffffffffffffffffffffffff167fbc7cd75a20ee27fd9adebab32041f755214dbc6bffa90cc0225b39da2e5c2d3b60405160405180910390a250565b600080823b905060008111915050919050565b600060019054906101000a900460ff16611e05576040517f08c379a0000000000000000000000000000000000000000000000000000000008152600401611dfc90613011565b60405180910390fd5b565b600060019054906101000a900460ff16611e56576040517f08c379a0000000000000000000000000000000000000000000000000000000008152600401611e4d90613011565b60405180910390fd5b8160369080519060200190611e6c929190611f99565b508060379080519060200190611e83929190611f99565b505050565b600060019054906101000a900460ff16611ed7576040517f08c379a0000000000000000000000000000000000000000000000000000000008152600401611ece90613011565b60405180910390fd5b565b600060019054906101000a900460ff16611f28576040517f08c379a0000000000000000000000000000000000000000000000000000000008152600401611f1f90613011565b60405180910390fd5b565b600033905090565b60608315611f4257829050611f92565b600083511115611f555782518084602001fd5b816040517f08c379a0000000000000000000000000000000000000000000000000000000008152600401611f8991906120d5565b60405180910390fd5b9392505050565b828054611fa590612560565b90600052602060002090601f016020900481019282611fc7576000855561200e565b82601f10611fe057805160ff191683800117855561200e565b8280016001018555821561200e579182015b8281111561200d578251825591602001919060010190611ff2565b5b50905061201b919061201f565b5090565b5b80821115612038576000816000905550600101612020565b5090565b600081519050919050565b600082825260208201905092915050565b60005b8381101561207657808201518184015260208101905061205b565b83811115612085576000848401525b50505050565b6000601f19601f8301169050919050565b60006120a78261203c565b6120b18185612047565b93506120c1818560208601612058565b6120ca8161208b565b840191505092915050565b600060208201905081810360008301526120ef818461209c565b905092915050565b6000604051905090565b600080fd5b600080fd5b600073ffffffffffffffffffffffffffffffffffffffff82169050919050565b60006121368261210b565b9050919050565b6121468161212b565b811461215157600080fd5b50565b6000813590506121638161213d565b92915050565b6000819050919050565b61217c81612169565b811461218757600080fd5b50565b60008135905061219981612173565b92915050565b600080604083850312156121b6576121b5612101565b5b60006121c485828601612154565b92505060206121d58582860161218a565b9150509250929050565b60008115159050919050565b6121f4816121df565b82525050565b600060208201905061220f60008301846121eb565b92915050565b61221e81612169565b82525050565b60006020820190506122396000830184612215565b92915050565b60008060006060848603121561225857612257612101565b5b600061226686828701612154565b935050602061227786828701612154565b92505060406122888682870161218a565b9150509250925092565b600060ff82169050919050565b6122a881612292565b82525050565b60006020820190506122c3600083018461229f565b92915050565b6000602082840312156122df576122de612101565b5b60006122ed84828501612154565b91505092915050565b600080fd5b600080fd5b7f4e487b7100000000000000000000000000000000000000000000000000000000600052604160045260246000fd5b6123388261208b565b810181811067ffffffffffffffff8211171561235757612356612300565b5b80604052505050565b600061236a6120f7565b9050612376828261232f565b919050565b600067ffffffffffffffff82111561239657612395612300565b5b61239f8261208b565b9050602081019050919050565b82818337600083830152505050565b60006123ce6123c98461237b565b612360565b9050828152602081018484840111156123ea576123e96122fb565b5b6123f58482856123ac565b509392505050565b600082601f830112612412576124116122f6565b5b81356124228482602086016123bb565b91505092915050565b6000806040838503121561244257612441612101565b5b600061245085828601612154565b925050602083013567ffffffffffffffff81111561247157612470612106565b5b61247d858286016123fd565b9150509250929050565b6124908161212b565b82525050565b60006020820190506124ab6000830184612487565b92915050565b600080604083850312156124c8576124c7612101565b5b60006124d68582860161218a565b92505060206124e785828601612154565b9150509250929050565b6000806040838503121561250857612507612101565b5b600061251685828601612154565b925050602061252785828601612154565b9150509250929050565b7f4e487b7100000000000000000000000000000000000000000000000000000000600052602260045260246000fd5b6000600282049050600182168061257857607f821691505b6020821081141561258c5761258b612531565b5b50919050565b7f45524332303a207472616e7366657220616d6f756e742065786365656473206160008201527f6c6c6f77616e6365000000000000000000000000000000000000000000000000602082015250565b60006125ee602883612047565b91506125f982612592565b604082019050919050565b6000602082019050818103600083015261261d816125e1565b9050919050565b7f46756e6374696f6e206d7573742062652063616c6c6564207468726f7567682060008201527f64656c656761746563616c6c0000000000000000000000000000000000000000602082015250565b6000612680602c83612047565b915061268b82612624565b604082019050919050565b600060208201905081810360008301526126af81612673565b9050919050565b7f46756e6374696f6e206d7573742062652063616c6c6564207468726f7567682060008201527f6163746976652070726f78790000000000000000000000000000000000000000602082015250565b6000612712602c83612047565b915061271d826126b6565b604082019050919050565b6000602082019050818103600083015261274181612705565b9050919050565b7f4e487b7100000000000000000000000000000000000000000000000000000000600052601160045260246000fd5b600061278282612169565b915061278d83612169565b9250827fffffffffffffffffffffffffffffffffffffffffffffffffffffffffffffffff038211156127c2576127c1612748565b5b828201905092915050565b7f4f776e61626c653a2063616c6c6572206973206e6f7420746865206f776e6572600082015250565b6000612803602083612047565b915061280e826127cd565b602082019050919050565b60006020820190508181036000830152612832816127f6565b9050919050565b7f45524332303a2064656372656173656420616c6c6f77616e63652062656c6f7760008201527f207a65726f000000000000000000000000000000000000000000000000000000602082015250565b6000612895602583612047565b91506128a082612839565b604082019050919050565b600060208201905081810360008301526128c481612888565b9050919050565b7f496e697469616c697a61626c653a20636f6e747261637420697320616c72656160008201527f647920696e697469616c697a6564000000000000000000000000000000000000602082015250565b6000612927602e83612047565b9150612932826128cb565b604082019050919050565b600060208201905081810360008301526129568161291a565b9050919050565b60008160011c9050919050565b6000808291508390505b60018511156129b4578086048111156129905761298f612748565b5b600185161561299f5780820291505b80810290506129ad8561295d565b9450612974565b94509492505050565b6000826129cd5760019050612a89565b816129db5760009050612a89565b81600181146129f157600281146129fb57612a2a565b6001915050612a89565b60ff841115612a0d57612a0c612748565b5b8360020a915084821115612a2457612a23612748565b5b50612a89565b5060208310610133831016604e8410600b8410161715612a5f5782820a905083811115612a5a57612a59612748565b5b612a89565b612a6c848484600161296a565b92509050818404811115612a8357612a82612748565b5b81810290505b9392505050565b6000612a9b82612169565b9150612aa683612292565b9250612ad37fffffffffffffffffffffffffffffffffffffffffffffffffffffffffffffffff84846129bd565b905092915050565b6000612ae682612169565b9150612af183612169565b9250817fffffffffffffffffffffffffffffffffffffffffffffffffffffffffffffffff0483118215151615612b2a57612b29612748565b5b828202905092915050565b7f4f776e61626c653a206e6577206f776e657220697320746865207a65726f206160008201527f6464726573730000000000000000000000000000000000000000000000000000602082015250565b6000612b91602683612047565b9150612b9c82612b35565b604082019050919050565b60006020820190508181036000830152612bc081612b84565b9050919050565b7f45524332303a20617070726f76652066726f6d20746865207a65726f2061646460008201527f7265737300000000000000000000000000000000000000000000000000000000602082015250565b6000612c23602483612047565b9150612c2e82612bc7565b604082019050919050565b60006020820190508181036000830152612c5281612c16565b9050919050565b7f45524332303a20617070726f766520746f20746865207a65726f20616464726560008201527f7373000000000000000000000000000000000000000000000000000000000000602082015250565b6000612cb5602283612047565b9150612cc082612c59565b604082019050919050565b60006020820190508181036000830152612ce481612ca8565b9050919050565b7f45524332303a207472616e736665722066726f6d20746865207a65726f20616460008201527f6472657373000000000000000000000000000000000000000000000000000000602082015250565b6000612d47602583612047565b9150612d5282612ceb565b604082019050919050565b60006020820190508181036000830152612d7681612d3a565b9050919050565b7f45524332303a207472616e7366657220746f20746865207a65726f206164647260008201527f6573730000000000000000000000000000000000000000000000000000000000602082015250565b6000612dd9602383612047565b9150612de482612d7d565b604082019050919050565b60006020820190508181036000830152612e0881612dcc565b9050919050565b7f45524332303a207472616e7366657220616d6f756e742065786365656473206260008201527f616c616e63650000000000000000000000000000000000000000000000000000602082015250565b6000612e6b602683612047565b9150612e7682612e0f565b604082019050919050565b60006020820190508181036000830152612e9a81612e5e565b9050919050565b7f45524331393637557067726164653a207570677261646520627265616b73206660008201527f7572746865722075706772616465730000000000000000000000000000000000602082015250565b6000612efd602f83612047565b9150612f0882612ea1565b604082019050919050565b60006020820190508181036000830152612f2c81612ef0565b9050919050565b7f45524332303a206d696e7420746f20746865207a65726f206164647265737300600082015250565b6000612f69601f83612047565b9150612f7482612f33565b602082019050919050565b60006020820190508181036000830152612f9881612f5c565b9050919050565b7f496e697469616c697a61626c653a20636f6e7472616374206973206e6f74206960008201527f6e697469616c697a696e67000000000000000000000000000000000000000000602082015250565b6000612ffb602b83612047565b915061300682612f9f565b604082019050919050565b6000602082019050818103600083015261302a81612fee565b9050919050565b7f455243313936373a206e657720696d706c656d656e746174696f6e206973206e60008201527f6f74206120636f6e747261637400000000000000000000000000000000000000602082015250565b600061308d602d83612047565b915061309882613031565b604082019050919050565b600060208201905081810360008301526130bc81613080565b9050919050565b7f416464726573733a2064656c65676174652063616c6c20746f206e6f6e2d636f60008201527f6e74726163740000000000000000000000000000000000000000000000000000602082015250565b600061311f602683612047565b915061312a826130c3565b604082019050919050565b6000602082019050818103600083015261314e81613112565b9050919050565b600081519050919050565b600081905092915050565b600061317682613155565b6131808185613160565b9350613190818560208601612058565b80840191505092915050565b60006131a8828461316b565b91508190509291505056fe416464726573733a206c6f772d6c6576656c2064656c65676174652063616c6c206661696c6564a264697066735822122002cc72872485059aeed7fb248db125614d3135ce61181ab220e25e84908ef79a64736f6c634300080b0033",
  "linkReferences": {},
  "deployedLinkReferences": {}
}