{
  "_format": "hh-sol-artifact-1",
  "contractName": "EIP712MessageCounter",
  "sourceName": "contracts/EIP712MessageCounter.sol",
  "abi": [
    {
      "inputs": [],
      "stateMutability": "nonpayable",
      "type": "constructor"
    },
    {
      "inputs": [],
      "name": "InvalidShortString",
      "type": "error"
    },
    {
      "inputs": [
        {
          "internalType": "string",
          "name": "str",
          "type": "string"
        }
      ],
      "name": "StringTooLong",
      "type": "error"
    },
    {
      "anonymous": false,
      "inputs": [],
      "name": "EIP712DomainChanged",
      "type": "event"
    },
    {
      "inputs": [
        {
          "internalType": "address",
          "name": "account",
          "type": "address"
        }
      ],
      "name": "countOf",
      "outputs": [
        {
          "internalType": "uint256",
          "name": "",
          "type": "uint256"
        }
      ],
      "stateMutability": "view",
      "type": "function"
    },
    {
      "inputs": [],
      "name": "eip712Domain",
      "outputs": [
        {
          "internalType": "bytes1",
          "name": "fields",
          "type": "bytes1"
        },
        {
          "internalType": "string",
          "name": "name",
          "type": "string"
        },
        {
          "internalType": "string",
          "name": "version",
          "type": "string"
        },
        {
          "internalType": "uint256",
          "name": "chainId",
          "type": "uint256"
        },
        {
          "internalType": "address",
          "name": "verifyingContract",
          "type": "address"
        },
        {
          "internalType": "bytes32",
          "name": "salt",
          "type": "bytes32"
        },
        {
          "internalType": "uint256[]",
          "name": "extensions",
          "type": "uint256[]"
        }
      ],
      "stateMutability": "view",
      "type": "function"
    },
    {
      "inputs": [
        {
          "internalType": "address",
          "name": "account",
          "type": "address"
        }
      ],
      "name": "lastMessageOf",
      "outputs": [
        {
          "internalType": "string",
          "name": "",
          "type": "string"
        }
      ],
      "stateMutability": "view",
      "type": "function"
    },
    {
      "inputs": [
        {
          "components": [
            {
              "internalType": "address",
              "name": "signer",
              "type": "address"
            },
            {
              "internalType": "string",
              "name": "message",
              "type": "string"
            }
          ],
          "internalType": "struct EIP712MessageCounter.Signature",
          "name": "signatureMessage",
          "type": "tuple"
        },
        {
          "internalType": "bytes",
          "name": "signature",
          "type": "bytes"
        }
      ],
      "name": "setSignerMessage",
      "outputs": [
        {
          "internalType": "bool",
          "name": "",
          "type": "bool"
        }
      ],
      "stateMutability": "nonpayable",
      "type": "function"
    }
  ],
  "bytecode": "0x6101606040523480156200001257600080fd5b506040518060400160405280601481526020017f4549503731324d657373616765436f756e7465720000000000000000000000008152506040518060400160405280600581526020017f302e302e310000000000000000000000000000000000000000000000000000008152506200009a6000836200013f60201b6200049a1790919060201c565b6101208181525050620000bd6001826200013f60201b6200049a1790919060201c565b6101408181525050818051906020012060e08181525050808051906020012061010081815250504660a08181525050620000fc620001a360201b60201c565b608081815250503073ffffffffffffffffffffffffffffffffffffffff1660c08173ffffffffffffffffffffffffffffffffffffffff16815250505050620005db565b600060208351101562000165576200015d836200020060201b60201c565b90506200019d565b826200017c836200026d60201b620004e51760201c565b60000190805190602001906200019492919062000277565b5060ff60001b90505b92915050565b60007f8b73c3c69bb8fe3d512ecc4cf759cc79239f7b179b0ffacaa9a75d522b39400f60e051610100514630604051602001620001e5959493929190620003a2565b60405160208183030381529060405280519060200120905090565b600080829050601f815111156200025057826040517f305a27a9000000000000000000000000000000000000000000000000000000008152600401620002479190620004a3565b60405180910390fd5b8051816200025e9062000506565b60001c1760001b915050919050565b6000819050919050565b8280546200028590620005a5565b90600052602060002090601f016020900481019282620002a95760008555620002f5565b82601f10620002c457805160ff1916838001178555620002f5565b82800160010185558215620002f5579182015b82811115620002f4578251825591602001919060010190620002d7565b5b50905062000304919062000308565b5090565b5b808211156200032357600081600090555060010162000309565b5090565b6000819050919050565b6200033c8162000327565b82525050565b6000819050919050565b620003578162000342565b82525050565b600073ffffffffffffffffffffffffffffffffffffffff82169050919050565b60006200038a826200035d565b9050919050565b6200039c816200037d565b82525050565b600060a082019050620003b9600083018862000331565b620003c8602083018762000331565b620003d7604083018662000331565b620003e660608301856200034c565b620003f5608083018462000391565b9695505050505050565b600081519050919050565b600082825260208201905092915050565b60005b838110156200043b5780820151818401526020810190506200041e565b838111156200044b576000848401525b50505050565b6000601f19601f8301169050919050565b60006200046f82620003ff565b6200047b81856200040a565b93506200048d8185602086016200041b565b620004988162000451565b840191505092915050565b60006020820190508181036000830152620004bf818462000462565b905092915050565b600081519050919050565b6000819050602082019050919050565b6000620004f0825162000327565b80915050919050565b600082821b905092915050565b60006200051382620004c7565b826200051f84620004d2565b90506200052c81620004e2565b925060208210156200056f576200056a7fffffffffffffffffffffffffffffffffffffffffffffffffffffffffffffffff83602003600802620004f9565b831692505b5050919050565b7f4e487b7100000000000000000000000000000000000000000000000000000000600052602260045260246000fd5b60006002820490506001821680620005be57607f821691505b60208210811415620005d557620005d462000576565b5b50919050565b60805160a05160c05160e0516101005161012051610140516117ec6200063660003960006102c50152600061029101526000610b3701526000610b16015260006107ed015260006108430152600061086c01526117ec6000f3fe608060405234801561001057600080fd5b506004361061004c5760003560e01c806341cf08931461005157806384b0196e14610081578063c03f489a146100a5578063f8977e96146100d5575b600080fd5b61006b60048036038101906100669190610e26565b610105565b6040516100789190610ebd565b60405180910390f35b61008961027e565b60405161009c97969594939291906110dd565b60405180910390f35b6100bf60048036038101906100ba919061118d565b610380565b6040516100cc91906111ba565b60405180910390f35b6100ef60048036038101906100ea919061118d565b610451565b6040516100fc91906111dc565b60405180910390f35b60006101128484846104ef565b610151576040517f08c379a00000000000000000000000000000000000000000000000000000000081526004016101489061128f565b60405180910390fd5b60016002600086600001602081019061016a919061118d565b73ffffffffffffffffffffffffffffffffffffffff1673ffffffffffffffffffffffffffffffffffffffff168152602001908152602001600020546101af91906112de565b600260008660000160208101906101c6919061118d565b73ffffffffffffffffffffffffffffffffffffffff1673ffffffffffffffffffffffffffffffffffffffff168152602001908152602001600020819055508380602001906102149190611343565b6003600087600001602081019061022b919061118d565b73ffffffffffffffffffffffffffffffffffffffff1673ffffffffffffffffffffffffffffffffffffffff1681526020019081526020016000209190610272929190610c6a565b50600190509392505050565b6000606080600080600060606102be60007f000000000000000000000000000000000000000000000000000000000000000061061c90919063ffffffff16565b6102f260017f000000000000000000000000000000000000000000000000000000000000000061061c90919063ffffffff16565b46306000801b600067ffffffffffffffff811115610313576103126113a6565b5b6040519080825280602002602001820160405280156103415781602001602082028036833780820191505090505b507f0f00000000000000000000000000000000000000000000000000000000000000959493929190965096509650965096509650965090919293949596565b6060600360008373ffffffffffffffffffffffffffffffffffffffff1673ffffffffffffffffffffffffffffffffffffffff16815260200190815260200160002080546103cc90611404565b80601f01602080910402602001604051908101604052809291908181526020018280546103f890611404565b80156104455780601f1061041a57610100808354040283529160200191610445565b820191906000526020600020905b81548152906001019060200180831161042857829003601f168201915b50505050509050919050565b6000600260008373ffffffffffffffffffffffffffffffffffffffff1673ffffffffffffffffffffffffffffffffffffffff168152602001908152602001600020549050919050565b60006020835110156104b6576104af836106cc565b90506104df565b826104c0836104e5565b60000190805190602001906104d6929190610cf0565b5060ff60001b90505b92915050565b6000819050919050565b60008061057c7f0a8060ed8826a8252ef7ff68c4ddab8403afdf9869d3ad51b4ca867e1e20546b866000016020810190610529919061118d565b8780602001906105399190611343565b604051610547929190611475565b60405180910390206040516020016105619392919061148e565b60405160208183030381529060405280519060200120610734565b905060006105ce8286868080601f016020809104026020016040519081016040528093929190818152602001838380828437600081840152601f19601f8201169050808301925050505050505061074e565b90508560000160208101906105e3919061118d565b73ffffffffffffffffffffffffffffffffffffffff168173ffffffffffffffffffffffffffffffffffffffff1614925050509392505050565b606060ff60001b83146106395761063283610775565b90506106c6565b81805461064590611404565b80601f016020809104026020016040519081016040528092919081815260200182805461067190611404565b80156106be5780601f10610693576101008083540402835291602001916106be565b820191906000526020600020905b8154815290600101906020018083116106a157829003601f168201915b505050505090505b92915050565b600080829050601f8151111561071957826040517f305a27a900000000000000000000000000000000000000000000000000000000815260040161071091906111ba565b60405180910390fd5b80518161072590611502565b60001c1760001b915050919050565b60006107476107416107e9565b836108a0565b9050919050565b600080600061075d85856108e1565b9150915061076a81610933565b819250505092915050565b6060600061078283610aa1565b90506000602067ffffffffffffffff8111156107a1576107a06113a6565b5b6040519080825280601f01601f1916602001820160405280156107d35781602001600182028036833780820191505090505b5090508181528360208201528092505050919050565b60007f000000000000000000000000000000000000000000000000000000000000000073ffffffffffffffffffffffffffffffffffffffff163073ffffffffffffffffffffffffffffffffffffffff1614801561086557507f000000000000000000000000000000000000000000000000000000000000000046145b15610892577f0000000000000000000000000000000000000000000000000000000000000000905061089d565b61089a610af1565b90505b90565b60006040517f190100000000000000000000000000000000000000000000000000000000000081528360028201528260228201526042812091505092915050565b6000806041835114156109235760008060006020860151925060408601519150606086015160001a905061091787828585610b87565b9450945050505061092c565b60006002915091505b9250929050565b6000600481111561094757610946611569565b5b81600481111561095a57610959611569565b5b141561096557610a9e565b6001600481111561097957610978611569565b5b81600481111561098c5761098b611569565b5b14156109cd576040517f08c379a00000000000000000000000000000000000000000000000000000000081526004016109c4906115e4565b60405180910390fd5b600260048111156109e1576109e0611569565b5b8160048111156109f4576109f3611569565b5b1415610a35576040517f08c379a0000000000000000000000000000000000000000000000000000000008152600401610a2c90611650565b60405180910390fd5b60036004811115610a4957610a48611569565b5b816004811115610a5c57610a5b611569565b5b1415610a9d576040517f08c379a0000000000000000000000000000000000000000000000000000000008152600401610a94906116e2565b60405180910390fd5b5b50565b60008060ff8360001c169050601f811115610ae8576040517fb3512b0c00000000000000000000000000000000000000000000000000000000815260040160405180910390fd5b80915050919050565b60007f8b73c3c69bb8fe3d512ecc4cf759cc79239f7b179b0ffacaa9a75d522b39400f7f00000000000000000000000000000000000000000000000000000000000000007f00000000000000000000000000000000000000000000000000000000000000004630604051602001610b6c959493929190611702565b60405160208183030381529060405280519060200120905090565b6000807f7fffffffffffffffffffffffffffffff5d576e7357a4501ddfe92f46681b20a08360001c1115610bc2576000600391509150610c61565b600060018787878760405160008152602001604052604051610be79493929190611771565b6020604051602081039080840390855afa158015610c09573d6000803e3d6000fd5b505050602060405103519050600073ffffffffffffffffffffffffffffffffffffffff168173ffffffffffffffffffffffffffffffffffffffff161415610c5857600060019250925050610c61565b80600092509250505b94509492505050565b828054610c7690611404565b90600052602060002090601f016020900481019282610c985760008555610cdf565b82601f10610cb157803560ff1916838001178555610cdf565b82800160010185558215610cdf579182015b82811115610cde578235825591602001919060010190610cc3565b5b509050610cec9190610d76565b5090565b828054610cfc90611404565b90600052602060002090601f016020900481019282610d1e5760008555610d65565b82601f10610d3757805160ff1916838001178555610d65565b82800160010185558215610d65579182015b82811115610d64578251825591602001919060010190610d49565b5b509050610d729190610d76565b5090565b5b80821115610d8f576000816000905550600101610d77565b5090565b600080fd5b600080fd5b600080fd5b600060408284031215610db857610db7610d9d565b5b81905092915050565b600080fd5b600080fd5b600080fd5b60008083601f840112610de657610de5610dc1565b5b8235905067ffffffffffffffff811115610e0357610e02610dc6565b5b602083019150836001820283011115610e1f57610e1e610dcb565b5b9250929050565b600080600060408486031215610e3f57610e3e610d93565b5b600084013567ffffffffffffffff811115610e5d57610e5c610d98565b5b610e6986828701610da2565b935050602084013567ffffffffffffffff811115610e8a57610e89610d98565b5b610e9686828701610dd0565b92509250509250925092565b60008115159050919050565b610eb781610ea2565b82525050565b6000602082019050610ed26000830184610eae565b92915050565b60007fff0000000000000000000000000000000000000000000000000000000000000082169050919050565b610f0d81610ed8565b82525050565b600081519050919050565b600082825260208201905092915050565b60005b83811015610f4d578082015181840152602081019050610f32565b83811115610f5c576000848401525b50505050565b6000601f19601f8301169050919050565b6000610f7e82610f13565b610f888185610f1e565b9350610f98818560208601610f2f565b610fa181610f62565b840191505092915050565b6000819050919050565b610fbf81610fac565b82525050565b600073ffffffffffffffffffffffffffffffffffffffff82169050919050565b6000610ff082610fc5565b9050919050565b61100081610fe5565b82525050565b6000819050919050565b61101981611006565b82525050565b600081519050919050565b600082825260208201905092915050565b6000819050602082019050919050565b61105481610fac565b82525050565b6000611066838361104b565b60208301905092915050565b6000602082019050919050565b600061108a8261101f565b611094818561102a565b935061109f8361103b565b8060005b838110156110d05781516110b7888261105a565b97506110c283611072565b9250506001810190506110a3565b5085935050505092915050565b600060e0820190506110f2600083018a610f04565b81810360208301526111048189610f73565b905081810360408301526111188188610f73565b90506111276060830187610fb6565b6111346080830186610ff7565b61114160a0830185611010565b81810360c0830152611153818461107f565b905098975050505050505050565b61116a81610fe5565b811461117557600080fd5b50565b60008135905061118781611161565b92915050565b6000602082840312156111a3576111a2610d93565b5b60006111b184828501611178565b91505092915050565b600060208201905081810360008301526111d48184610f73565b905092915050565b60006020820190506111f16000830184610fb6565b92915050565b7f4549503731324d657373616765436f756e7465723a205369676e61747572652060008201527f646f6573206e6f74206d61746368206578706563746564205369676e6174757260208201527f65206d6573736167650000000000000000000000000000000000000000000000604082015250565b6000611279604983610f1e565b9150611284826111f7565b606082019050919050565b600060208201905081810360008301526112a88161126c565b9050919050565b7f4e487b7100000000000000000000000000000000000000000000000000000000600052601160045260246000fd5b60006112e982610fac565b91506112f483610fac565b9250827fffffffffffffffffffffffffffffffffffffffffffffffffffffffffffffffff03821115611329576113286112af565b5b828201905092915050565b600080fd5b600080fd5b600080fd5b600080833560016020038436030381126113605761135f611334565b5b80840192508235915067ffffffffffffffff82111561138257611381611339565b5b60208301925060018202360383131561139e5761139d61133e565b5b509250929050565b7f4e487b7100000000000000000000000000000000000000000000000000000000600052604160045260246000fd5b7f4e487b7100000000000000000000000000000000000000000000000000000000600052602260045260246000fd5b6000600282049050600182168061141c57607f821691505b602082108114156114305761142f6113d5565b5b50919050565b600081905092915050565b82818337600083830152505050565b600061145c8385611436565b9350611469838584611441565b82840190509392505050565b6000611482828486611450565b91508190509392505050565b60006060820190506114a36000830186611010565b6114b06020830185610ff7565b6114bd6040830184611010565b949350505050565b600081519050919050565b6000819050602082019050919050565b60006114ec8251611006565b80915050919050565b600082821b905092915050565b600061150d826114c5565b82611517846114d0565b9050611522816114e0565b925060208210156115625761155d7fffffffffffffffffffffffffffffffffffffffffffffffffffffffffffffffff836020036008026114f5565b831692505b5050919050565b7f4e487b7100000000000000000000000000000000000000000000000000000000600052602160045260246000fd5b7f45434453413a20696e76616c6964207369676e61747572650000000000000000600082015250565b60006115ce601883610f1e565b91506115d982611598565b602082019050919050565b600060208201905081810360008301526115fd816115c1565b9050919050565b7f45434453413a20696e76616c6964207369676e6174757265206c656e67746800600082015250565b600061163a601f83610f1e565b915061164582611604565b602082019050919050565b600060208201905081810360008301526116698161162d565b9050919050565b7f45434453413a20696e76616c6964207369676e6174757265202773272076616c60008201527f7565000000000000000000000000000000000000000000000000000000000000602082015250565b60006116cc602283610f1e565b91506116d782611670565b604082019050919050565b600060208201905081810360008301526116fb816116bf565b9050919050565b600060a0820190506117176000830188611010565b6117246020830187611010565b6117316040830186611010565b61173e6060830185610fb6565b61174b6080830184610ff7565b9695505050505050565b600060ff82169050919050565b61176b81611755565b82525050565b60006080820190506117866000830187611010565b6117936020830186611762565b6117a06040830185611010565b6117ad6060830184611010565b9594505050505056fea26469706673582212209fb765e487177e66ac41880772719496d4df34b46986ad46b7ff608280027a2264736f6c634300080b0033",
  "linkReferences": {},
  "deployedLinkReferences": {}
}