{
  "_format": "hh-sol-artifact-1",
  "contractName": "EIP712MessageCounter",
  "sourceName": "contracts/EIP712MessageCounter.sol",
  "abi": [
    {
      "inputs": [],
      "stateMutability": "nonpayable",
      "type": "constructor"
    },
    {
      "inputs": [
        {
          "internalType": "address",
          "name": "account",
          "type": "address"
        }
      ],
      "name": "countOf",
      "outputs": [
        {
          "internalType": "uint256",
          "name": "",
          "type": "uint256"
        }
      ],
      "stateMutability": "view",
      "type": "function"
    },
    {
      "inputs": [
        {
          "internalType": "address",
          "name": "account",
          "type": "address"
        }
      ],
      "name": "lastMessageOf",
      "outputs": [
        {
          "internalType": "string",
          "name": "",
          "type": "string"
        }
      ],
      "stateMutability": "view",
      "type": "function"
    },
    {
      "inputs": [
        {
          "components": [
            {
              "internalType": "address",
              "name": "signer",
              "type": "address"
            },
            {
              "internalType": "string",
              "name": "message",
              "type": "string"
            }
          ],
          "internalType": "struct EIP712MessageCounter.Signature",
          "name": "signatureMessage",
          "type": "tuple"
        },
        {
          "internalType": "bytes",
          "name": "signature",
          "type": "bytes"
        }
      ],
      "name": "setSignerMessage",
      "outputs": [
        {
          "internalType": "bool",
          "name": "",
          "type": "bool"
        }
      ],
      "stateMutability": "nonpayable",
      "type": "function"
    }
  ],
  "bytecode": "0x6101406040523480156200001257600080fd5b506040518060400160405280601481526020017f4549503731324d657373616765436f756e7465720000000000000000000000008152506040518060400160405280600581526020017f302e302e3100000000000000000000000000000000000000000000000000000081525060008280519060200120905060008280519060200120905060007f8b73c3c69bb8fe3d512ecc4cf759cc79239f7b179b0ffacaa9a75d522b39400f90508260e081815250508161010081815250504660a08181525050620000e88184846200013760201b60201c565b608081815250503073ffffffffffffffffffffffffffffffffffffffff1660c08173ffffffffffffffffffffffffffffffffffffffff168152505080610120818152505050505050506200024b565b6000838383463060405160200162000154959493929190620001ee565b6040516020818303038152906040528051906020012090509392505050565b6000819050919050565b620001888162000173565b82525050565b6000819050919050565b620001a3816200018e565b82525050565b600073ffffffffffffffffffffffffffffffffffffffff82169050919050565b6000620001d682620001a9565b9050919050565b620001e881620001c9565b82525050565b600060a0820190506200020560008301886200017d565b6200021460208301876200017d565b6200022360408301866200017d565b62000232606083018562000198565b620002416080830184620001dd565b9695505050505050565b60805160a05160c05160e05161010051610120516113fb6200029b6000396000610582015260006105c4015260006105a3015260006104d80152600061052e0152600061055701526113fb6000f3fe608060405234801561001057600080fd5b50600436106100415760003560e01c806341cf089314610046578063c03f489a14610076578063f8977e96146100a6575b600080fd5b610060600480360381019061005b9190610b44565b6100d6565b60405161006d9190610bdb565b60405180910390f35b610090600480360381019061008b9190610c54565b61024d565b60405161009d9190610d1a565b60405180910390f35b6100c060048036038101906100bb9190610c54565b61031e565b6040516100cd9190610d55565b60405180910390f35b60006100e3848484610366565b610122576040517f08c379a000000000000000000000000000000000000000000000000000000000815260040161011990610e08565b60405180910390fd5b600160008086600001602081019061013a9190610c54565b73ffffffffffffffffffffffffffffffffffffffff1673ffffffffffffffffffffffffffffffffffffffff1681526020019081526020016000205461017f9190610e57565b6000808660000160208101906101959190610c54565b73ffffffffffffffffffffffffffffffffffffffff1673ffffffffffffffffffffffffffffffffffffffff168152602001908152602001600020819055508380602001906101e39190610ebc565b600160008760000160208101906101fa9190610c54565b73ffffffffffffffffffffffffffffffffffffffff1673ffffffffffffffffffffffffffffffffffffffff1681526020019081526020016000209190610241929190610a0e565b50600190509392505050565b6060600160008373ffffffffffffffffffffffffffffffffffffffff1673ffffffffffffffffffffffffffffffffffffffff168152602001908152602001600020805461029990610f4e565b80601f01602080910402602001604051908101604052809291908181526020018280546102c590610f4e565b80156103125780601f106102e757610100808354040283529160200191610312565b820191906000526020600020905b8154815290600101906020018083116102f557829003601f168201915b50505050509050919050565b60008060008373ffffffffffffffffffffffffffffffffffffffff1673ffffffffffffffffffffffffffffffffffffffff168152602001908152602001600020549050919050565b6000806103f37f0a8060ed8826a8252ef7ff68c4ddab8403afdf9869d3ad51b4ca867e1e20546b8660000160208101906103a09190610c54565b8780602001906103b09190610ebc565b6040516103be929190610fbf565b60405180910390206040516020016103d893929190611000565b60405160208183030381529060405280519060200120610493565b905060006104458286868080601f016020809104026020016040519081016040528093929190818152602001838380828437600081840152601f19601f820116905080830192505050505050506104ad565b905085600001602081019061045a9190610c54565b73ffffffffffffffffffffffffffffffffffffffff168173ffffffffffffffffffffffffffffffffffffffff1614925050509392505050565b60006104a66104a06104d4565b836105ee565b9050919050565b60008060006104bc8585610621565b915091506104c9816106a4565b819250505092915050565b60007f000000000000000000000000000000000000000000000000000000000000000073ffffffffffffffffffffffffffffffffffffffff163073ffffffffffffffffffffffffffffffffffffffff1614801561055057507f000000000000000000000000000000000000000000000000000000000000000046145b1561057d577f000000000000000000000000000000000000000000000000000000000000000090506105eb565b6105e87f00000000000000000000000000000000000000000000000000000000000000007f00000000000000000000000000000000000000000000000000000000000000007f0000000000000000000000000000000000000000000000000000000000000000610879565b90505b90565b600082826040516020016106039291906110af565b60405160208183030381529060405280519060200120905092915050565b6000806041835114156106635760008060006020860151925060408601519150606086015160001a9050610657878285856108b3565b9450945050505061069d565b6040835114156106945760008060208501519150604085015190506106898683836109c0565b93509350505061069d565b60006002915091505b9250929050565b600060048111156106b8576106b76110e6565b5b8160048111156106cb576106ca6110e6565b5b14156106d657610876565b600160048111156106ea576106e96110e6565b5b8160048111156106fd576106fc6110e6565b5b141561073e576040517f08c379a000000000000000000000000000000000000000000000000000000000815260040161073590611161565b60405180910390fd5b60026004811115610752576107516110e6565b5b816004811115610765576107646110e6565b5b14156107a6576040517f08c379a000000000000000000000000000000000000000000000000000000000815260040161079d906111cd565b60405180910390fd5b600360048111156107ba576107b96110e6565b5b8160048111156107cd576107cc6110e6565b5b141561080e576040517f08c379a00000000000000000000000000000000000000000000000000000000081526004016108059061125f565b60405180910390fd5b600480811115610821576108206110e6565b5b816004811115610834576108336110e6565b5b1415610875576040517f08c379a000000000000000000000000000000000000000000000000000000000815260040161086c906112f1565b60405180910390fd5b5b50565b60008383834630604051602001610894959493929190611311565b6040516020818303038152906040528051906020012090509392505050565b6000807f7fffffffffffffffffffffffffffffff5d576e7357a4501ddfe92f46681b20a08360001c11156108ee5760006003915091506109b7565b601b8560ff16141580156109065750601c8560ff1614155b156109185760006004915091506109b7565b60006001878787876040516000815260200160405260405161093d9493929190611380565b6020604051602081039080840390855afa15801561095f573d6000803e3d6000fd5b505050602060405103519050600073ffffffffffffffffffffffffffffffffffffffff168173ffffffffffffffffffffffffffffffffffffffff1614156109ae576000600192509250506109b7565b80600092509250505b94509492505050565b6000806000807f7fffffffffffffffffffffffffffffffffffffffffffffffffffffffffffffff85169150601b8560ff1c019050610a00878288856108b3565b935093505050935093915050565b828054610a1a90610f4e565b90600052602060002090601f016020900481019282610a3c5760008555610a83565b82601f10610a5557803560ff1916838001178555610a83565b82800160010185558215610a83579182015b82811115610a82578235825591602001919060010190610a67565b5b509050610a909190610a94565b5090565b5b80821115610aad576000816000905550600101610a95565b5090565b600080fd5b600080fd5b600080fd5b600060408284031215610ad657610ad5610abb565b5b81905092915050565b600080fd5b600080fd5b600080fd5b60008083601f840112610b0457610b03610adf565b5b8235905067ffffffffffffffff811115610b2157610b20610ae4565b5b602083019150836001820283011115610b3d57610b3c610ae9565b5b9250929050565b600080600060408486031215610b5d57610b5c610ab1565b5b600084013567ffffffffffffffff811115610b7b57610b7a610ab6565b5b610b8786828701610ac0565b935050602084013567ffffffffffffffff811115610ba857610ba7610ab6565b5b610bb486828701610aee565b92509250509250925092565b60008115159050919050565b610bd581610bc0565b82525050565b6000602082019050610bf06000830184610bcc565b92915050565b600073ffffffffffffffffffffffffffffffffffffffff82169050919050565b6000610c2182610bf6565b9050919050565b610c3181610c16565b8114610c3c57600080fd5b50565b600081359050610c4e81610c28565b92915050565b600060208284031215610c6a57610c69610ab1565b5b6000610c7884828501610c3f565b91505092915050565b600081519050919050565b600082825260208201905092915050565b60005b83811015610cbb578082015181840152602081019050610ca0565b83811115610cca576000848401525b50505050565b6000601f19601f8301169050919050565b6000610cec82610c81565b610cf68185610c8c565b9350610d06818560208601610c9d565b610d0f81610cd0565b840191505092915050565b60006020820190508181036000830152610d348184610ce1565b905092915050565b6000819050919050565b610d4f81610d3c565b82525050565b6000602082019050610d6a6000830184610d46565b92915050565b7f4549503731324d657373616765436f756e7465723a205369676e61747572652060008201527f646f6573206e6f74206d61746368206578706563746564205369676e6174757260208201527f65206d6573736167650000000000000000000000000000000000000000000000604082015250565b6000610df2604983610c8c565b9150610dfd82610d70565b606082019050919050565b60006020820190508181036000830152610e2181610de5565b9050919050565b7f4e487b7100000000000000000000000000000000000000000000000000000000600052601160045260246000fd5b6000610e6282610d3c565b9150610e6d83610d3c565b9250827fffffffffffffffffffffffffffffffffffffffffffffffffffffffffffffffff03821115610ea257610ea1610e28565b5b828201905092915050565b600080fd5b600080fd5b600080fd5b60008083356001602003843603038112610ed957610ed8610ead565b5b80840192508235915067ffffffffffffffff821115610efb57610efa610eb2565b5b602083019250600182023603831315610f1757610f16610eb7565b5b509250929050565b7f4e487b7100000000000000000000000000000000000000000000000000000000600052602260045260246000fd5b60006002820490506001821680610f6657607f821691505b60208210811415610f7a57610f79610f1f565b5b50919050565b600081905092915050565b82818337600083830152505050565b6000610fa68385610f80565b9350610fb3838584610f8b565b82840190509392505050565b6000610fcc828486610f9a565b91508190509392505050565b6000819050919050565b610feb81610fd8565b82525050565b610ffa81610c16565b82525050565b60006060820190506110156000830186610fe2565b6110226020830185610ff1565b61102f6040830184610fe2565b949350505050565b600081905092915050565b7f1901000000000000000000000000000000000000000000000000000000000000600082015250565b6000611078600283611037565b915061108382611042565b600282019050919050565b6000819050919050565b6110a96110a482610fd8565b61108e565b82525050565b60006110ba8261106b565b91506110c68285611098565b6020820191506110d68284611098565b6020820191508190509392505050565b7f4e487b7100000000000000000000000000000000000000000000000000000000600052602160045260246000fd5b7f45434453413a20696e76616c6964207369676e61747572650000000000000000600082015250565b600061114b601883610c8c565b915061115682611115565b602082019050919050565b6000602082019050818103600083015261117a8161113e565b9050919050565b7f45434453413a20696e76616c6964207369676e6174757265206c656e67746800600082015250565b60006111b7601f83610c8c565b91506111c282611181565b602082019050919050565b600060208201905081810360008301526111e6816111aa565b9050919050565b7f45434453413a20696e76616c6964207369676e6174757265202773272076616c60008201527f7565000000000000000000000000000000000000000000000000000000000000602082015250565b6000611249602283610c8c565b9150611254826111ed565b604082019050919050565b600060208201905081810360008301526112788161123c565b9050919050565b7f45434453413a20696e76616c6964207369676e6174757265202776272076616c60008201527f7565000000000000000000000000000000000000000000000000000000000000602082015250565b60006112db602283610c8c565b91506112e68261127f565b604082019050919050565b6000602082019050818103600083015261130a816112ce565b9050919050565b600060a0820190506113266000830188610fe2565b6113336020830187610fe2565b6113406040830186610fe2565b61134d6060830185610d46565b61135a6080830184610ff1565b9695505050505050565b600060ff82169050919050565b61137a81611364565b82525050565b60006080820190506113956000830187610fe2565b6113a26020830186611371565b6113af6040830185610fe2565b6113bc6060830184610fe2565b9594505050505056fea26469706673582212202ce101e2bec2be62987448cc59da94440808d18f03f9de39c4c1add52c07df3864736f6c634300080b0033",
  "linkReferences": {},
  "deployedLinkReferences": {}
}