{
  "_format": "hh-sol-artifact-1",
  "contractName": "MyTokenV2",
  "sourceName": "contracts/myTokenV2.sol",
  "abi": [
    {
      "anonymous": false,
      "inputs": [
        {
          "indexed": false,
          "internalType": "address",
          "name": "previousAdmin",
          "type": "address"
        },
        {
          "indexed": false,
          "internalType": "address",
          "name": "newAdmin",
          "type": "address"
        }
      ],
      "name": "AdminChanged",
      "type": "event"
    },
    {
      "anonymous": false,
      "inputs": [
        {
          "indexed": true,
          "internalType": "address",
          "name": "owner",
          "type": "address"
        },
        {
          "indexed": true,
          "internalType": "address",
          "name": "spender",
          "type": "address"
        },
        {
          "indexed": false,
          "internalType": "uint256",
          "name": "value",
          "type": "uint256"
        }
      ],
      "name": "Approval",
      "type": "event"
    },
    {
      "anonymous": false,
      "inputs": [
        {
          "indexed": true,
          "internalType": "address",
          "name": "beacon",
          "type": "address"
        }
      ],
      "name": "BeaconUpgraded",
      "type": "event"
    },
    {
      "anonymous": false,
      "inputs": [
        {
          "indexed": false,
          "internalType": "uint8",
          "name": "version",
          "type": "uint8"
        }
      ],
      "name": "Initialized",
      "type": "event"
    },
    {
      "anonymous": false,
      "inputs": [
        {
          "indexed": true,
          "internalType": "address",
          "name": "previousOwner",
          "type": "address"
        },
        {
          "indexed": true,
          "internalType": "address",
          "name": "newOwner",
          "type": "address"
        }
      ],
      "name": "OwnershipTransferred",
      "type": "event"
    },
    {
      "anonymous": false,
      "inputs": [
        {
          "indexed": true,
          "internalType": "address",
          "name": "from",
          "type": "address"
        },
        {
          "indexed": true,
          "internalType": "address",
          "name": "to",
          "type": "address"
        },
        {
          "indexed": false,
          "internalType": "uint256",
          "name": "value",
          "type": "uint256"
        }
      ],
      "name": "Transfer",
      "type": "event"
    },
    {
      "anonymous": false,
      "inputs": [
        {
          "indexed": true,
          "internalType": "address",
          "name": "implementation",
          "type": "address"
        }
      ],
      "name": "Upgraded",
      "type": "event"
    },
    {
      "inputs": [
        {
          "internalType": "address",
          "name": "owner",
          "type": "address"
        },
        {
          "internalType": "address",
          "name": "spender",
          "type": "address"
        }
      ],
      "name": "allowance",
      "outputs": [
        {
          "internalType": "uint256",
          "name": "",
          "type": "uint256"
        }
      ],
      "stateMutability": "view",
      "type": "function"
    },
    {
      "inputs": [
        {
          "internalType": "address",
          "name": "spender",
          "type": "address"
        },
        {
          "internalType": "uint256",
          "name": "amount",
          "type": "uint256"
        }
      ],
      "name": "approve",
      "outputs": [
        {
          "internalType": "bool",
          "name": "",
          "type": "bool"
        }
      ],
      "stateMutability": "nonpayable",
      "type": "function"
    },
    {
      "inputs": [
        {
          "internalType": "address",
          "name": "account",
          "type": "address"
        }
      ],
      "name": "balanceOf",
      "outputs": [
        {
          "internalType": "uint256",
          "name": "",
          "type": "uint256"
        }
      ],
      "stateMutability": "view",
      "type": "function"
    },
    {
      "inputs": [],
      "name": "decimals",
      "outputs": [
        {
          "internalType": "uint8",
          "name": "",
          "type": "uint8"
        }
      ],
      "stateMutability": "view",
      "type": "function"
    },
    {
      "inputs": [
        {
          "internalType": "address",
          "name": "spender",
          "type": "address"
        },
        {
          "internalType": "uint256",
          "name": "subtractedValue",
          "type": "uint256"
        }
      ],
      "name": "decreaseAllowance",
      "outputs": [
        {
          "internalType": "bool",
          "name": "",
          "type": "bool"
        }
      ],
      "stateMutability": "nonpayable",
      "type": "function"
    },
    {
      "inputs": [
        {
          "internalType": "address",
          "name": "spender",
          "type": "address"
        },
        {
          "internalType": "uint256",
          "name": "addedValue",
          "type": "uint256"
        }
      ],
      "name": "increaseAllowance",
      "outputs": [
        {
          "internalType": "bool",
          "name": "",
          "type": "bool"
        }
      ],
      "stateMutability": "nonpayable",
      "type": "function"
    },
    {
      "inputs": [
        {
          "internalType": "uint256",
          "name": "initialSupply",
          "type": "uint256"
        }
      ],
      "name": "initialize",
      "outputs": [],
      "stateMutability": "nonpayable",
      "type": "function"
    },
    {
      "inputs": [
        {
          "internalType": "address",
          "name": "toAccount",
          "type": "address"
        },
        {
          "internalType": "uint256",
          "name": "amount",
          "type": "uint256"
        }
      ],
      "name": "mint",
      "outputs": [],
      "stateMutability": "nonpayable",
      "type": "function"
    },
    {
      "inputs": [],
      "name": "name",
      "outputs": [
        {
          "internalType": "string",
          "name": "",
          "type": "string"
        }
      ],
      "stateMutability": "view",
      "type": "function"
    },
    {
      "inputs": [],
      "name": "owner",
      "outputs": [
        {
          "internalType": "address",
          "name": "",
          "type": "address"
        }
      ],
      "stateMutability": "view",
      "type": "function"
    },
    {
      "inputs": [],
      "name": "proxiableUUID",
      "outputs": [
        {
          "internalType": "bytes32",
          "name": "",
          "type": "bytes32"
        }
      ],
      "stateMutability": "view",
      "type": "function"
    },
    {
      "inputs": [],
      "name": "renounceOwnership",
      "outputs": [],
      "stateMutability": "nonpayable",
      "type": "function"
    },
    {
      "inputs": [],
      "name": "symbol",
      "outputs": [
        {
          "internalType": "string",
          "name": "",
          "type": "string"
        }
      ],
      "stateMutability": "view",
      "type": "function"
    },
    {
      "inputs": [],
      "name": "totalSupply",
      "outputs": [
        {
          "internalType": "uint256",
          "name": "",
          "type": "uint256"
        }
      ],
      "stateMutability": "view",
      "type": "function"
    },
    {
      "inputs": [
        {
          "internalType": "address",
          "name": "to",
          "type": "address"
        },
        {
          "internalType": "uint256",
          "name": "amount",
          "type": "uint256"
        }
      ],
      "name": "transfer",
      "outputs": [
        {
          "internalType": "bool",
          "name": "",
          "type": "bool"
        }
      ],
      "stateMutability": "nonpayable",
      "type": "function"
    },
    {
      "inputs": [
        {
          "internalType": "address",
          "name": "from",
          "type": "address"
        },
        {
          "internalType": "address",
          "name": "to",
          "type": "address"
        },
        {
          "internalType": "uint256",
          "name": "amount",
          "type": "uint256"
        }
      ],
      "name": "transferFrom",
      "outputs": [
        {
          "internalType": "bool",
          "name": "",
          "type": "bool"
        }
      ],
      "stateMutability": "nonpayable",
      "type": "function"
    },
    {
      "inputs": [
        {
          "internalType": "address",
          "name": "newOwner",
          "type": "address"
        }
      ],
      "name": "transferOwnership",
      "outputs": [],
      "stateMutability": "nonpayable",
      "type": "function"
    },
    {
      "inputs": [
        {
          "internalType": "address",
          "name": "newImplementation",
          "type": "address"
        }
      ],
      "name": "upgradeTo",
      "outputs": [],
      "stateMutability": "nonpayable",
      "type": "function"
    },
    {
      "inputs": [
        {
          "internalType": "address",
          "name": "newImplementation",
          "type": "address"
        },
        {
          "internalType": "bytes",
          "name": "data",
          "type": "bytes"
        }
      ],
      "name": "upgradeToAndCall",
      "outputs": [],
      "stateMutability": "payable",
      "type": "function"
    }
  ],
  "bytecode": "0x60a06040523073ffffffffffffffffffffffffffffffffffffffff1660809073ffffffffffffffffffffffffffffffffffffffff1681525034801561004357600080fd5b50608051612fee61007b60003960008181610596015281816106250152818161076c015281816107fb01526108ab0152612fee6000f3fe6080604052600436106101145760003560e01c806352d1902d116100a0578063a457c2d711610064578063a457c2d714610394578063a9059cbb146103d1578063dd62ed3e1461040e578063f2fde38b1461044b578063fe4b84df1461047457610114565b806352d1902d146102bf57806370a08231146102ea578063715018a6146103275780638da5cb5b1461033e57806395d89b411461036957610114565b8063313ce567116100e7578063313ce567146101e95780633659cfe614610214578063395093511461023d57806340c10f191461027a5780634f1ef286146102a357610114565b806306fdde0314610119578063095ea7b31461014457806318160ddd1461018157806323b872dd146101ac575b600080fd5b34801561012557600080fd5b5061012e61049d565b60405161013b9190611d01565b60405180910390f35b34801561015057600080fd5b5061016b60048036038101906101669190611dcb565b61052f565b6040516101789190611e26565b60405180910390f35b34801561018d57600080fd5b50610196610552565b6040516101a39190611e50565b60405180910390f35b3480156101b857600080fd5b506101d360048036038101906101ce9190611e6b565b61055c565b6040516101e09190611e26565b60405180910390f35b3480156101f557600080fd5b506101fe61058b565b60405161020b9190611eda565b60405180910390f35b34801561022057600080fd5b5061023b60048036038101906102369190611ef5565b610594565b005b34801561024957600080fd5b50610264600480360381019061025f9190611dcb565b61071d565b6040516102719190611e26565b60405180910390f35b34801561028657600080fd5b506102a1600480360381019061029c9190611dcb565b610754565b005b6102bd60048036038101906102b89190612057565b61076a565b005b3480156102cb57600080fd5b506102d46108a7565b6040516102e191906120cc565b60405180910390f35b3480156102f657600080fd5b50610311600480360381019061030c9190611ef5565b610960565b60405161031e9190611e50565b60405180910390f35b34801561033357600080fd5b5061033c6109a9565b005b34801561034a57600080fd5b506103536109bd565b60405161036091906120f6565b60405180910390f35b34801561037557600080fd5b5061037e6109e7565b60405161038b9190611d01565b60405180910390f35b3480156103a057600080fd5b506103bb60048036038101906103b69190611dcb565b610a79565b6040516103c89190611e26565b60405180910390f35b3480156103dd57600080fd5b506103f860048036038101906103f39190611dcb565b610af0565b6040516104059190611e26565b60405180910390f35b34801561041a57600080fd5b5061043560048036038101906104309190612111565b610b13565b6040516104429190611e50565b60405180910390f35b34801561045757600080fd5b50610472600480360381019061046d9190611ef5565b610b9a565b005b34801561048057600080fd5b5061049b60048036038101906104969190612151565b610c1e565b005b6060603680546104ac906121ad565b80601f01602080910402602001604051908101604052809291908181526020018280546104d8906121ad565b80156105255780601f106104fa57610100808354040283529160200191610525565b820191906000526020600020905b81548152906001019060200180831161050857829003601f168201915b5050505050905090565b60008061053a610e01565b9050610547818585610e09565b600191505092915050565b6000603554905090565b600080610567610e01565b9050610574858285610fd4565b61057f858585611060565b60019150509392505050565b60006012905090565b7f000000000000000000000000000000000000000000000000000000000000000073ffffffffffffffffffffffffffffffffffffffff163073ffffffffffffffffffffffffffffffffffffffff161415610623576040517f08c379a000000000000000000000000000000000000000000000000000000000815260040161061a90612251565b60405180910390fd5b7f000000000000000000000000000000000000000000000000000000000000000073ffffffffffffffffffffffffffffffffffffffff166106626112db565b73ffffffffffffffffffffffffffffffffffffffff16146106b8576040517f08c379a00000000000000000000000000000000000000000000000000000000081526004016106af906122e3565b60405180910390fd5b6106c181611332565b61071a81600067ffffffffffffffff8111156106e0576106df611f2c565b5b6040519080825280601f01601f1916602001820160405280156107125781602001600182028036833780820191505090505b50600061133d565b50565b600080610728610e01565b905061074981858561073a8589610b13565b6107449190612332565b610e09565b600191505092915050565b61075c6114ab565b6107668282611529565b5050565b7f000000000000000000000000000000000000000000000000000000000000000073ffffffffffffffffffffffffffffffffffffffff163073ffffffffffffffffffffffffffffffffffffffff1614156107f9576040517f08c379a00000000000000000000000000000000000000000000000000000000081526004016107f090612251565b60405180910390fd5b7f000000000000000000000000000000000000000000000000000000000000000073ffffffffffffffffffffffffffffffffffffffff166108386112db565b73ffffffffffffffffffffffffffffffffffffffff161461088e576040517f08c379a0000000000000000000000000000000000000000000000000000000008152600401610885906122e3565b60405180910390fd5b61089782611332565b6108a38282600161133d565b5050565b60007f000000000000000000000000000000000000000000000000000000000000000073ffffffffffffffffffffffffffffffffffffffff163073ffffffffffffffffffffffffffffffffffffffff1614610937576040517f08c379a000000000000000000000000000000000000000000000000000000000815260040161092e906123fa565b60405180910390fd5b7f360894a13ba1a3210667c828492db98dca3e2076cc3735a920a3ca505d382bbc60001b905090565b6000603360008373ffffffffffffffffffffffffffffffffffffffff1673ffffffffffffffffffffffffffffffffffffffff168152602001908152602001600020549050919050565b6109b16114ab565b6109bb6000611681565b565b600060c960009054906101000a900473ffffffffffffffffffffffffffffffffffffffff16905090565b6060603780546109f6906121ad565b80601f0160208091040260200160405190810160405280929190818152602001828054610a22906121ad565b8015610a6f5780601f10610a4457610100808354040283529160200191610a6f565b820191906000526020600020905b815481529060010190602001808311610a5257829003601f168201915b5050505050905090565b600080610a84610e01565b90506000610a928286610b13565b905083811015610ad7576040517f08c379a0000000000000000000000000000000000000000000000000000000008152600401610ace9061248c565b60405180910390fd5b610ae48286868403610e09565b60019250505092915050565b600080610afb610e01565b9050610b08818585611060565b600191505092915050565b6000603460008473ffffffffffffffffffffffffffffffffffffffff1673ffffffffffffffffffffffffffffffffffffffff16815260200190815260200160002060008373ffffffffffffffffffffffffffffffffffffffff1673ffffffffffffffffffffffffffffffffffffffff16815260200190815260200160002054905092915050565b610ba26114ab565b600073ffffffffffffffffffffffffffffffffffffffff168173ffffffffffffffffffffffffffffffffffffffff161415610c12576040517f08c379a0000000000000000000000000000000000000000000000000000000008152600401610c099061251e565b60405180910390fd5b610c1b81611681565b50565b60008060019054906101000a900460ff16159050808015610c4f5750600160008054906101000a900460ff1660ff16105b80610c7c5750610c5e30611747565b158015610c7b5750600160008054906101000a900460ff1660ff16145b5b610cbb576040517f08c379a0000000000000000000000000000000000000000000000000000000008152600401610cb2906125b0565b60405180910390fd5b60016000806101000a81548160ff021916908360ff1602179055508015610cf8576001600060016101000a81548160ff0219169083151502179055505b610d6c6040518060400160405280600781526020017f4d79546f6b656e000000000000000000000000000000000000000000000000008152506040518060400160405280600381526020017f4d5954000000000000000000000000000000000000000000000000000000000081525061176a565b610d746117c7565b610d7c611828565b610da433610d8861058b565b600a610d949190612703565b84610d9f919061274e565b611529565b8015610dfd5760008060016101000a81548160ff0219169083151502179055507f7f26b83ff96e1f2b6a682f133852f6798a09c465da95921460cefb38474024986001604051610df491906127ed565b60405180910390a15b5050565b600033905090565b600073ffffffffffffffffffffffffffffffffffffffff168373ffffffffffffffffffffffffffffffffffffffff161415610e79576040517f08c379a0000000000000000000000000000000000000000000000000000000008152600401610e709061287a565b60405180910390fd5b600073ffffffffffffffffffffffffffffffffffffffff168273ffffffffffffffffffffffffffffffffffffffff161415610ee9576040517f08c379a0000000000000000000000000000000000000000000000000000000008152600401610ee09061290c565b60405180910390fd5b80603460008573ffffffffffffffffffffffffffffffffffffffff1673ffffffffffffffffffffffffffffffffffffffff16815260200190815260200160002060008473ffffffffffffffffffffffffffffffffffffffff1673ffffffffffffffffffffffffffffffffffffffff168152602001908152602001600020819055508173ffffffffffffffffffffffffffffffffffffffff168373ffffffffffffffffffffffffffffffffffffffff167f8c5be1e5ebec7d5bd14f71427d1e84f3dd0314c0f7b2291e5b200ac8c7c3b92583604051610fc79190611e50565b60405180910390a3505050565b6000610fe08484610b13565b90507fffffffffffffffffffffffffffffffffffffffffffffffffffffffffffffffff811461105a578181101561104c576040517f08c379a000000000000000000000000000000000000000000000000000000000815260040161104390612978565b60405180910390fd5b6110598484848403610e09565b5b50505050565b600073ffffffffffffffffffffffffffffffffffffffff168373ffffffffffffffffffffffffffffffffffffffff1614156110d0576040517f08c379a00000000000000000000000000000000000000000000000000000000081526004016110c790612a0a565b60405180910390fd5b600073ffffffffffffffffffffffffffffffffffffffff168273ffffffffffffffffffffffffffffffffffffffff161415611140576040517f08c379a000000000000000000000000000000000000000000000000000000000815260040161113790612a9c565b60405180910390fd5b61114b838383611879565b6000603360008573ffffffffffffffffffffffffffffffffffffffff1673ffffffffffffffffffffffffffffffffffffffff168152602001908152602001600020549050818110156111d2576040517f08c379a00000000000000000000000000000000000000000000000000000000081526004016111c990612b2e565b60405180910390fd5b818103603360008673ffffffffffffffffffffffffffffffffffffffff1673ffffffffffffffffffffffffffffffffffffffff1681526020019081526020016000208190555081603360008573ffffffffffffffffffffffffffffffffffffffff1673ffffffffffffffffffffffffffffffffffffffff168152602001908152602001600020600082825401925050819055508273ffffffffffffffffffffffffffffffffffffffff168473ffffffffffffffffffffffffffffffffffffffff167fddf252ad1be2c89b69c2b068fc378daa952ba7f163c4a11628f55a4df523b3ef846040516112c29190611e50565b60405180910390a36112d584848461187e565b50505050565b60006113097f360894a13ba1a3210667c828492db98dca3e2076cc3735a920a3ca505d382bbc60001b611883565b60000160009054906101000a900473ffffffffffffffffffffffffffffffffffffffff16905090565b61133a6114ab565b50565b6113697f4910fdfa16fed3260ed0e7147f7cc6da11a60208b5b9406d12a635614ffd914360001b61188d565b60000160009054906101000a900460ff161561138d5761138883611897565b6114a6565b8273ffffffffffffffffffffffffffffffffffffffff166352d1902d6040518163ffffffff1660e01b8152600401602060405180830381865afa9250505080156113f557506040513d601f19601f820116820180604052508101906113f29190612b7a565b60015b611434576040517f08c379a000000000000000000000000000000000000000000000000000000000815260040161142b90612c19565b60405180910390fd5b7f360894a13ba1a3210667c828492db98dca3e2076cc3735a920a3ca505d382bbc60001b8114611499576040517f08c379a000000000000000000000000000000000000000000000000000000000815260040161149090612cab565b60405180910390fd5b506114a5838383611950565b5b505050565b6114b3610e01565b73ffffffffffffffffffffffffffffffffffffffff166114d16109bd565b73ffffffffffffffffffffffffffffffffffffffff1614611527576040517f08c379a000000000000000000000000000000000000000000000000000000000815260040161151e90612d17565b60405180910390fd5b565b600073ffffffffffffffffffffffffffffffffffffffff168273ffffffffffffffffffffffffffffffffffffffff161415611599576040517f08c379a000000000000000000000000000000000000000000000000000000000815260040161159090612d83565b60405180910390fd5b6115a560008383611879565b80603560008282546115b79190612332565b9250508190555080603360008473ffffffffffffffffffffffffffffffffffffffff1673ffffffffffffffffffffffffffffffffffffffff168152602001908152602001600020600082825401925050819055508173ffffffffffffffffffffffffffffffffffffffff16600073ffffffffffffffffffffffffffffffffffffffff167fddf252ad1be2c89b69c2b068fc378daa952ba7f163c4a11628f55a4df523b3ef836040516116699190611e50565b60405180910390a361167d6000838361187e565b5050565b600060c960009054906101000a900473ffffffffffffffffffffffffffffffffffffffff1690508160c960006101000a81548173ffffffffffffffffffffffffffffffffffffffff021916908373ffffffffffffffffffffffffffffffffffffffff1602179055508173ffffffffffffffffffffffffffffffffffffffff168173ffffffffffffffffffffffffffffffffffffffff167f8be0079c531659141344cd1fd0a4f28419497f9722a3daafe3b4186f6b6457e060405160405180910390a35050565b6000808273ffffffffffffffffffffffffffffffffffffffff163b119050919050565b600060019054906101000a900460ff166117b9576040517f08c379a00000000000000000000000000000000000000000000000000000000081526004016117b090612e15565b60405180910390fd5b6117c3828261197c565b5050565b600060019054906101000a900460ff16611816576040517f08c379a000000000000000000000000000000000000000000000000000000000815260040161180d90612e15565b60405180910390fd5b611826611821610e01565b611681565b565b600060019054906101000a900460ff16611877576040517f08c379a000000000000000000000000000000000000000000000000000000000815260040161186e90612e15565b60405180910390fd5b565b505050565b505050565b6000819050919050565b6000819050919050565b6118a081611747565b6118df576040517f08c379a00000000000000000000000000000000000000000000000000000000081526004016118d690612ea7565b60405180910390fd5b8061190c7f360894a13ba1a3210667c828492db98dca3e2076cc3735a920a3ca505d382bbc60001b611883565b60000160006101000a81548173ffffffffffffffffffffffffffffffffffffffff021916908373ffffffffffffffffffffffffffffffffffffffff16021790555050565b611959836119fd565b6000825111806119665750805b15611977576119758383611a4c565b505b505050565b600060019054906101000a900460ff166119cb576040517f08c379a00000000000000000000000000000000000000000000000000000000081526004016119c290612e15565b60405180910390fd5b81603690805190602001906119e1929190611bc5565b5080603790805190602001906119f8929190611bc5565b505050565b611a0681611897565b8073ffffffffffffffffffffffffffffffffffffffff167fbc7cd75a20ee27fd9adebab32041f755214dbc6bffa90cc0225b39da2e5c2d3b60405160405180910390a250565b6060611a718383604051806060016040528060278152602001612f9260279139611a79565b905092915050565b60606000808573ffffffffffffffffffffffffffffffffffffffff1685604051611aa39190612f0e565b600060405180830381855af49150503d8060008114611ade576040519150601f19603f3d011682016040523d82523d6000602084013e611ae3565b606091505b5091509150611af486838387611aff565b925050509392505050565b60608315611b6257600083511415611b5a57611b1a85611747565b611b59576040517f08c379a0000000000000000000000000000000000000000000000000000000008152600401611b5090612f71565b60405180910390fd5b5b829050611b6d565b611b6c8383611b75565b5b949350505050565b600082511115611b885781518083602001fd5b806040517f08c379a0000000000000000000000000000000000000000000000000000000008152600401611bbc9190611d01565b60405180910390fd5b828054611bd1906121ad565b90600052602060002090601f016020900481019282611bf35760008555611c3a565b82601f10611c0c57805160ff1916838001178555611c3a565b82800160010185558215611c3a579182015b82811115611c39578251825591602001919060010190611c1e565b5b509050611c479190611c4b565b5090565b5b80821115611c64576000816000905550600101611c4c565b5090565b600081519050919050565b600082825260208201905092915050565b60005b83811015611ca2578082015181840152602081019050611c87565b83811115611cb1576000848401525b50505050565b6000601f19601f8301169050919050565b6000611cd382611c68565b611cdd8185611c73565b9350611ced818560208601611c84565b611cf681611cb7565b840191505092915050565b60006020820190508181036000830152611d1b8184611cc8565b905092915050565b6000604051905090565b600080fd5b600080fd5b600073ffffffffffffffffffffffffffffffffffffffff82169050919050565b6000611d6282611d37565b9050919050565b611d7281611d57565b8114611d7d57600080fd5b50565b600081359050611d8f81611d69565b92915050565b6000819050919050565b611da881611d95565b8114611db357600080fd5b50565b600081359050611dc581611d9f565b92915050565b60008060408385031215611de257611de1611d2d565b5b6000611df085828601611d80565b9250506020611e0185828601611db6565b9150509250929050565b60008115159050919050565b611e2081611e0b565b82525050565b6000602082019050611e3b6000830184611e17565b92915050565b611e4a81611d95565b82525050565b6000602082019050611e656000830184611e41565b92915050565b600080600060608486031215611e8457611e83611d2d565b5b6000611e9286828701611d80565b9350506020611ea386828701611d80565b9250506040611eb486828701611db6565b9150509250925092565b600060ff82169050919050565b611ed481611ebe565b82525050565b6000602082019050611eef6000830184611ecb565b92915050565b600060208284031215611f0b57611f0a611d2d565b5b6000611f1984828501611d80565b91505092915050565b600080fd5b600080fd5b7f4e487b7100000000000000000000000000000000000000000000000000000000600052604160045260246000fd5b611f6482611cb7565b810181811067ffffffffffffffff82111715611f8357611f82611f2c565b5b80604052505050565b6000611f96611d23565b9050611fa28282611f5b565b919050565b600067ffffffffffffffff821115611fc257611fc1611f2c565b5b611fcb82611cb7565b9050602081019050919050565b82818337600083830152505050565b6000611ffa611ff584611fa7565b611f8c565b90508281526020810184848401111561201657612015611f27565b5b612021848285611fd8565b509392505050565b600082601f83011261203e5761203d611f22565b5b813561204e848260208601611fe7565b91505092915050565b6000806040838503121561206e5761206d611d2d565b5b600061207c85828601611d80565b925050602083013567ffffffffffffffff81111561209d5761209c611d32565b5b6120a985828601612029565b9150509250929050565b6000819050919050565b6120c6816120b3565b82525050565b60006020820190506120e160008301846120bd565b92915050565b6120f081611d57565b82525050565b600060208201905061210b60008301846120e7565b92915050565b6000806040838503121561212857612127611d2d565b5b600061213685828601611d80565b925050602061214785828601611d80565b9150509250929050565b60006020828403121561216757612166611d2d565b5b600061217584828501611db6565b91505092915050565b7f4e487b7100000000000000000000000000000000000000000000000000000000600052602260045260246000fd5b600060028204905060018216806121c557607f821691505b602082108114156121d9576121d861217e565b5b50919050565b7f46756e6374696f6e206d7573742062652063616c6c6564207468726f7567682060008201527f64656c656761746563616c6c0000000000000000000000000000000000000000602082015250565b600061223b602c83611c73565b9150612246826121df565b604082019050919050565b6000602082019050818103600083015261226a8161222e565b9050919050565b7f46756e6374696f6e206d7573742062652063616c6c6564207468726f7567682060008201527f6163746976652070726f78790000000000000000000000000000000000000000602082015250565b60006122cd602c83611c73565b91506122d882612271565b604082019050919050565b600060208201905081810360008301526122fc816122c0565b9050919050565b7f4e487b7100000000000000000000000000000000000000000000000000000000600052601160045260246000fd5b600061233d82611d95565b915061234883611d95565b9250827fffffffffffffffffffffffffffffffffffffffffffffffffffffffffffffffff0382111561237d5761237c612303565b5b828201905092915050565b7f555550535570677261646561626c653a206d757374206e6f742062652063616c60008201527f6c6564207468726f7567682064656c656761746563616c6c0000000000000000602082015250565b60006123e4603883611c73565b91506123ef82612388565b604082019050919050565b60006020820190508181036000830152612413816123d7565b9050919050565b7f45524332303a2064656372656173656420616c6c6f77616e63652062656c6f7760008201527f207a65726f000000000000000000000000000000000000000000000000000000602082015250565b6000612476602583611c73565b91506124818261241a565b604082019050919050565b600060208201905081810360008301526124a581612469565b9050919050565b7f4f776e61626c653a206e6577206f776e657220697320746865207a65726f206160008201527f6464726573730000000000000000000000000000000000000000000000000000602082015250565b6000612508602683611c73565b9150612513826124ac565b604082019050919050565b60006020820190508181036000830152612537816124fb565b9050919050565b7f496e697469616c697a61626c653a20636f6e747261637420697320616c72656160008201527f647920696e697469616c697a6564000000000000000000000000000000000000602082015250565b600061259a602e83611c73565b91506125a58261253e565b604082019050919050565b600060208201905081810360008301526125c98161258d565b9050919050565b60008160011c9050919050565b6000808291508390505b60018511156126275780860481111561260357612602612303565b5b60018516156126125780820291505b8081029050612620856125d0565b94506125e7565b94509492505050565b60008261264057600190506126fc565b8161264e57600090506126fc565b8160018114612664576002811461266e5761269d565b60019150506126fc565b60ff8411156126805761267f612303565b5b8360020a91508482111561269757612696612303565b5b506126fc565b5060208310610133831016604e8410600b84101617156126d25782820a9050838111156126cd576126cc612303565b5b6126fc565b6126df84848460016125dd565b925090508184048111156126f6576126f5612303565b5b81810290505b9392505050565b600061270e82611d95565b915061271983611ebe565b92506127467fffffffffffffffffffffffffffffffffffffffffffffffffffffffffffffffff8484612630565b905092915050565b600061275982611d95565b915061276483611d95565b9250817fffffffffffffffffffffffffffffffffffffffffffffffffffffffffffffffff048311821515161561279d5761279c612303565b5b828202905092915050565b6000819050919050565b6000819050919050565b60006127d76127d26127cd846127a8565b6127b2565b611ebe565b9050919050565b6127e7816127bc565b82525050565b600060208201905061280260008301846127de565b92915050565b7f45524332303a20617070726f76652066726f6d20746865207a65726f2061646460008201527f7265737300000000000000000000000000000000000000000000000000000000602082015250565b6000612864602483611c73565b915061286f82612808565b604082019050919050565b6000602082019050818103600083015261289381612857565b9050919050565b7f45524332303a20617070726f766520746f20746865207a65726f20616464726560008201527f7373000000000000000000000000000000000000000000000000000000000000602082015250565b60006128f6602283611c73565b91506129018261289a565b604082019050919050565b60006020820190508181036000830152612925816128e9565b9050919050565b7f45524332303a20696e73756666696369656e7420616c6c6f77616e6365000000600082015250565b6000612962601d83611c73565b915061296d8261292c565b602082019050919050565b6000602082019050818103600083015261299181612955565b9050919050565b7f45524332303a207472616e736665722066726f6d20746865207a65726f20616460008201527f6472657373000000000000000000000000000000000000000000000000000000602082015250565b60006129f4602583611c73565b91506129ff82612998565b604082019050919050565b60006020820190508181036000830152612a23816129e7565b9050919050565b7f45524332303a207472616e7366657220746f20746865207a65726f206164647260008201527f6573730000000000000000000000000000000000000000000000000000000000602082015250565b6000612a86602383611c73565b9150612a9182612a2a565b604082019050919050565b60006020820190508181036000830152612ab581612a79565b9050919050565b7f45524332303a207472616e7366657220616d6f756e742065786365656473206260008201527f616c616e63650000000000000000000000000000000000000000000000000000602082015250565b6000612b18602683611c73565b9150612b2382612abc565b604082019050919050565b60006020820190508181036000830152612b4781612b0b565b9050919050565b612b57816120b3565b8114612b6257600080fd5b50565b600081519050612b7481612b4e565b92915050565b600060208284031215612b9057612b8f611d2d565b5b6000612b9e84828501612b65565b91505092915050565b7f45524331393637557067726164653a206e657720696d706c656d656e7461746960008201527f6f6e206973206e6f742055555053000000000000000000000000000000000000602082015250565b6000612c03602e83611c73565b9150612c0e82612ba7565b604082019050919050565b60006020820190508181036000830152612c3281612bf6565b9050919050565b7f45524331393637557067726164653a20756e737570706f727465642070726f7860008201527f6961626c65555549440000000000000000000000000000000000000000000000602082015250565b6000612c95602983611c73565b9150612ca082612c39565b604082019050919050565b60006020820190508181036000830152612cc481612c88565b9050919050565b7f4f776e61626c653a2063616c6c6572206973206e6f7420746865206f776e6572600082015250565b6000612d01602083611c73565b9150612d0c82612ccb565b602082019050919050565b60006020820190508181036000830152612d3081612cf4565b9050919050565b7f45524332303a206d696e7420746f20746865207a65726f206164647265737300600082015250565b6000612d6d601f83611c73565b9150612d7882612d37565b602082019050919050565b60006020820190508181036000830152612d9c81612d60565b9050919050565b7f496e697469616c697a61626c653a20636f6e7472616374206973206e6f74206960008201527f6e697469616c697a696e67000000000000000000000000000000000000000000602082015250565b6000612dff602b83611c73565b9150612e0a82612da3565b604082019050919050565b60006020820190508181036000830152612e2e81612df2565b9050919050565b7f455243313936373a206e657720696d706c656d656e746174696f6e206973206e60008201527f6f74206120636f6e747261637400000000000000000000000000000000000000602082015250565b6000612e91602d83611c73565b9150612e9c82612e35565b604082019050919050565b60006020820190508181036000830152612ec081612e84565b9050919050565b600081519050919050565b600081905092915050565b6000612ee882612ec7565b612ef28185612ed2565b9350612f02818560208601611c84565b80840191505092915050565b6000612f1a8284612edd565b915081905092915050565b7f416464726573733a2063616c6c20746f206e6f6e2d636f6e7472616374000000600082015250565b6000612f5b601d83611c73565b9150612f6682612f25565b602082019050919050565b60006020820190508181036000830152612f8a81612f4e565b905091905056fe416464726573733a206c6f772d6c6576656c2064656c65676174652063616c6c206661696c6564a2646970667358221220b1bdab354deb717653928366142a30236e180799be77b9263af8dd8c68d8b10864736f6c634300080b0033",
  "linkReferences": {},
  "deployedLinkReferences": {}
}