{
  "_format": "hh-sol-artifact-1",
  "contractName": "MyTokenV2",
  "sourceName": "contracts/myTokenV2.sol",
  "abi": [
    {
      "anonymous": false,
      "inputs": [
        {
          "indexed": false,
          "internalType": "address",
          "name": "previousAdmin",
          "type": "address"
        },
        {
          "indexed": false,
          "internalType": "address",
          "name": "newAdmin",
          "type": "address"
        }
      ],
      "name": "AdminChanged",
      "type": "event"
    },
    {
      "anonymous": false,
      "inputs": [
        {
          "indexed": true,
          "internalType": "address",
          "name": "owner",
          "type": "address"
        },
        {
          "indexed": true,
          "internalType": "address",
          "name": "spender",
          "type": "address"
        },
        {
          "indexed": false,
          "internalType": "uint256",
          "name": "value",
          "type": "uint256"
        }
      ],
      "name": "Approval",
      "type": "event"
    },
    {
      "anonymous": false,
      "inputs": [
        {
          "indexed": true,
          "internalType": "address",
          "name": "beacon",
          "type": "address"
        }
      ],
      "name": "BeaconUpgraded",
      "type": "event"
    },
    {
      "anonymous": false,
      "inputs": [
        {
          "indexed": true,
          "internalType": "address",
          "name": "previousOwner",
          "type": "address"
        },
        {
          "indexed": true,
          "internalType": "address",
          "name": "newOwner",
          "type": "address"
        }
      ],
      "name": "OwnershipTransferred",
      "type": "event"
    },
    {
      "anonymous": false,
      "inputs": [
        {
          "indexed": true,
          "internalType": "address",
          "name": "from",
          "type": "address"
        },
        {
          "indexed": true,
          "internalType": "address",
          "name": "to",
          "type": "address"
        },
        {
          "indexed": false,
          "internalType": "uint256",
          "name": "value",
          "type": "uint256"
        }
      ],
      "name": "Transfer",
      "type": "event"
    },
    {
      "anonymous": false,
      "inputs": [
        {
          "indexed": true,
          "internalType": "address",
          "name": "implementation",
          "type": "address"
        }
      ],
      "name": "Upgraded",
      "type": "event"
    },
    {
      "inputs": [
        {
          "internalType": "address",
          "name": "owner",
          "type": "address"
        },
        {
          "internalType": "address",
          "name": "spender",
          "type": "address"
        }
      ],
      "name": "allowance",
      "outputs": [
        {
          "internalType": "uint256",
          "name": "",
          "type": "uint256"
        }
      ],
      "stateMutability": "view",
      "type": "function"
    },
    {
      "inputs": [
        {
          "internalType": "address",
          "name": "spender",
          "type": "address"
        },
        {
          "internalType": "uint256",
          "name": "amount",
          "type": "uint256"
        }
      ],
      "name": "approve",
      "outputs": [
        {
          "internalType": "bool",
          "name": "",
          "type": "bool"
        }
      ],
      "stateMutability": "nonpayable",
      "type": "function"
    },
    {
      "inputs": [
        {
          "internalType": "address",
          "name": "account",
          "type": "address"
        }
      ],
      "name": "balanceOf",
      "outputs": [
        {
          "internalType": "uint256",
          "name": "",
          "type": "uint256"
        }
      ],
      "stateMutability": "view",
      "type": "function"
    },
    {
      "inputs": [],
      "name": "decimals",
      "outputs": [
        {
          "internalType": "uint8",
          "name": "",
          "type": "uint8"
        }
      ],
      "stateMutability": "view",
      "type": "function"
    },
    {
      "inputs": [
        {
          "internalType": "address",
          "name": "spender",
          "type": "address"
        },
        {
          "internalType": "uint256",
          "name": "subtractedValue",
          "type": "uint256"
        }
      ],
      "name": "decreaseAllowance",
      "outputs": [
        {
          "internalType": "bool",
          "name": "",
          "type": "bool"
        }
      ],
      "stateMutability": "nonpayable",
      "type": "function"
    },
    {
      "inputs": [
        {
          "internalType": "address",
          "name": "spender",
          "type": "address"
        },
        {
          "internalType": "uint256",
          "name": "addedValue",
          "type": "uint256"
        }
      ],
      "name": "increaseAllowance",
      "outputs": [
        {
          "internalType": "bool",
          "name": "",
          "type": "bool"
        }
      ],
      "stateMutability": "nonpayable",
      "type": "function"
    },
    {
      "inputs": [
        {
          "internalType": "uint256",
          "name": "initialSupply",
          "type": "uint256"
        }
      ],
      "name": "initialize",
      "outputs": [],
      "stateMutability": "nonpayable",
      "type": "function"
    },
    {
      "inputs": [
        {
          "internalType": "address",
          "name": "toAccount",
          "type": "address"
        },
        {
          "internalType": "uint256",
          "name": "amount",
          "type": "uint256"
        }
      ],
      "name": "mint",
      "outputs": [],
      "stateMutability": "nonpayable",
      "type": "function"
    },
    {
      "inputs": [],
      "name": "name",
      "outputs": [
        {
          "internalType": "string",
          "name": "",
          "type": "string"
        }
      ],
      "stateMutability": "view",
      "type": "function"
    },
    {
      "inputs": [],
      "name": "owner",
      "outputs": [
        {
          "internalType": "address",
          "name": "",
          "type": "address"
        }
      ],
      "stateMutability": "view",
      "type": "function"
    },
    {
      "inputs": [],
      "name": "renounceOwnership",
      "outputs": [],
      "stateMutability": "nonpayable",
      "type": "function"
    },
    {
      "inputs": [],
      "name": "symbol",
      "outputs": [
        {
          "internalType": "string",
          "name": "",
          "type": "string"
        }
      ],
      "stateMutability": "view",
      "type": "function"
    },
    {
      "inputs": [],
      "name": "totalSupply",
      "outputs": [
        {
          "internalType": "uint256",
          "name": "",
          "type": "uint256"
        }
      ],
      "stateMutability": "view",
      "type": "function"
    },
    {
      "inputs": [
        {
          "internalType": "address",
          "name": "recipient",
          "type": "address"
        },
        {
          "internalType": "uint256",
          "name": "amount",
          "type": "uint256"
        }
      ],
      "name": "transfer",
      "outputs": [
        {
          "internalType": "bool",
          "name": "",
          "type": "bool"
        }
      ],
      "stateMutability": "nonpayable",
      "type": "function"
    },
    {
      "inputs": [
        {
          "internalType": "address",
          "name": "sender",
          "type": "address"
        },
        {
          "internalType": "address",
          "name": "recipient",
          "type": "address"
        },
        {
          "internalType": "uint256",
          "name": "amount",
          "type": "uint256"
        }
      ],
      "name": "transferFrom",
      "outputs": [
        {
          "internalType": "bool",
          "name": "",
          "type": "bool"
        }
      ],
      "stateMutability": "nonpayable",
      "type": "function"
    },
    {
      "inputs": [
        {
          "internalType": "address",
          "name": "newOwner",
          "type": "address"
        }
      ],
      "name": "transferOwnership",
      "outputs": [],
      "stateMutability": "nonpayable",
      "type": "function"
    },
    {
      "inputs": [
        {
          "internalType": "address",
          "name": "newImplementation",
          "type": "address"
        }
      ],
      "name": "upgradeTo",
      "outputs": [],
      "stateMutability": "nonpayable",
      "type": "function"
    },
    {
      "inputs": [
        {
          "internalType": "address",
          "name": "newImplementation",
          "type": "address"
        },
        {
          "internalType": "bytes",
          "name": "data",
          "type": "bytes"
        }
      ],
      "name": "upgradeToAndCall",
      "outputs": [],
      "stateMutability": "payable",
      "type": "function"
    }
  ],
  "bytecode": "0x60a06040523073ffffffffffffffffffffffffffffffffffffffff1660809073ffffffffffffffffffffffffffffffffffffffff1681525034801561004357600080fd5b5060805161307d61007460003960008181610624015281816106b3015281816108e30152610972015261307d6000f3fe6080604052600436106101095760003560e01c806370a0823111610095578063a457c2d711610064578063a457c2d71461035e578063a9059cbb1461039b578063dd62ed3e146103d8578063f2fde38b14610415578063fe4b84df1461043e57610109565b806370a08231146102b4578063715018a6146102f15780638da5cb5b1461030857806395d89b411461033357610109565b8063313ce567116100dc578063313ce567146101de5780633659cfe614610209578063395093511461023257806340c10f191461026f5780634f1ef2861461029857610109565b806306fdde031461010e578063095ea7b31461013957806318160ddd1461017657806323b872dd146101a1575b600080fd5b34801561011a57600080fd5b50610123610467565b6040516101309190611f55565b60405180910390f35b34801561014557600080fd5b50610160600480360381019061015b919061201f565b6104f9565b60405161016d919061207a565b60405180910390f35b34801561018257600080fd5b5061018b610517565b60405161019891906120a4565b60405180910390f35b3480156101ad57600080fd5b506101c860048036038101906101c391906120bf565b610521565b6040516101d5919061207a565b60405180910390f35b3480156101ea57600080fd5b506101f3610619565b604051610200919061212e565b60405180910390f35b34801561021557600080fd5b50610230600480360381019061022b9190612149565b610622565b005b34801561023e57600080fd5b506102596004803603810190610254919061201f565b6107ab565b604051610266919061207a565b60405180910390f35b34801561027b57600080fd5b506102966004803603810190610291919061201f565b610857565b005b6102b260048036038101906102ad91906122ab565b6108e1565b005b3480156102c057600080fd5b506102db60048036038101906102d69190612149565b610a1e565b6040516102e891906120a4565b60405180910390f35b3480156102fd57600080fd5b50610306610a67565b005b34801561031457600080fd5b5061031d610aef565b60405161032a9190612316565b60405180910390f35b34801561033f57600080fd5b50610348610b19565b6040516103559190611f55565b60405180910390f35b34801561036a57600080fd5b506103856004803603810190610380919061201f565b610bab565b604051610392919061207a565b60405180910390f35b3480156103a757600080fd5b506103c260048036038101906103bd919061201f565b610c96565b6040516103cf919061207a565b60405180910390f35b3480156103e457600080fd5b506103ff60048036038101906103fa9190612331565b610cb4565b60405161040c91906120a4565b60405180910390f35b34801561042157600080fd5b5061043c60048036038101906104379190612149565b610d3b565b005b34801561044a57600080fd5b5061046560048036038101906104609190612371565b610e33565b005b606060368054610476906123cd565b80601f01602080910402602001604051908101604052809291908181526020018280546104a2906123cd565b80156104ef5780601f106104c4576101008083540402835291602001916104ef565b820191906000526020600020905b8154815290600101906020018083116104d257829003601f168201915b5050505050905090565b600061050d610506610fc4565b8484610fcc565b6001905092915050565b6000603554905090565b600061052e848484611197565b6000603460008673ffffffffffffffffffffffffffffffffffffffff1673ffffffffffffffffffffffffffffffffffffffff1681526020019081526020016000206000610579610fc4565b73ffffffffffffffffffffffffffffffffffffffff1673ffffffffffffffffffffffffffffffffffffffff168152602001908152602001600020549050828110156105f9576040517f08c379a00000000000000000000000000000000000000000000000000000000081526004016105f090612471565b60405180910390fd5b61060d85610605610fc4565b858403610fcc565b60019150509392505050565b60006012905090565b7f000000000000000000000000000000000000000000000000000000000000000073ffffffffffffffffffffffffffffffffffffffff163073ffffffffffffffffffffffffffffffffffffffff1614156106b1576040517f08c379a00000000000000000000000000000000000000000000000000000000081526004016106a890612503565b60405180910390fd5b7f000000000000000000000000000000000000000000000000000000000000000073ffffffffffffffffffffffffffffffffffffffff166106f061141b565b73ffffffffffffffffffffffffffffffffffffffff1614610746576040517f08c379a000000000000000000000000000000000000000000000000000000000815260040161073d90612595565b60405180910390fd5b61074f81611472565b6107a881600067ffffffffffffffff81111561076e5761076d612180565b5b6040519080825280601f01601f1916602001820160405280156107a05781602001600182028036833780820191505090505b5060006114f1565b50565b600061084d6107b8610fc4565b8484603460006107c6610fc4565b73ffffffffffffffffffffffffffffffffffffffff1673ffffffffffffffffffffffffffffffffffffffff16815260200190815260200160002060008873ffffffffffffffffffffffffffffffffffffffff1673ffffffffffffffffffffffffffffffffffffffff1681526020019081526020016000205461084891906125e4565b610fcc565b6001905092915050565b61085f610fc4565b73ffffffffffffffffffffffffffffffffffffffff1661087d610aef565b73ffffffffffffffffffffffffffffffffffffffff16146108d3576040517f08c379a00000000000000000000000000000000000000000000000000000000081526004016108ca90612686565b60405180910390fd5b6108dd82826116c2565b5050565b7f000000000000000000000000000000000000000000000000000000000000000073ffffffffffffffffffffffffffffffffffffffff163073ffffffffffffffffffffffffffffffffffffffff161415610970576040517f08c379a000000000000000000000000000000000000000000000000000000000815260040161096790612503565b60405180910390fd5b7f000000000000000000000000000000000000000000000000000000000000000073ffffffffffffffffffffffffffffffffffffffff166109af61141b565b73ffffffffffffffffffffffffffffffffffffffff1614610a05576040517f08c379a00000000000000000000000000000000000000000000000000000000081526004016109fc90612595565b60405180910390fd5b610a0e82611472565b610a1a828260016114f1565b5050565b6000603360008373ffffffffffffffffffffffffffffffffffffffff1673ffffffffffffffffffffffffffffffffffffffff168152602001908152602001600020549050919050565b610a6f610fc4565b73ffffffffffffffffffffffffffffffffffffffff16610a8d610aef565b73ffffffffffffffffffffffffffffffffffffffff1614610ae3576040517f08c379a0000000000000000000000000000000000000000000000000000000008152600401610ada90612686565b60405180910390fd5b610aed6000611823565b565b600060c960009054906101000a900473ffffffffffffffffffffffffffffffffffffffff16905090565b606060378054610b28906123cd565b80601f0160208091040260200160405190810160405280929190818152602001828054610b54906123cd565b8015610ba15780601f10610b7657610100808354040283529160200191610ba1565b820191906000526020600020905b815481529060010190602001808311610b8457829003601f168201915b5050505050905090565b60008060346000610bba610fc4565b73ffffffffffffffffffffffffffffffffffffffff1673ffffffffffffffffffffffffffffffffffffffff16815260200190815260200160002060008573ffffffffffffffffffffffffffffffffffffffff1673ffffffffffffffffffffffffffffffffffffffff16815260200190815260200160002054905082811015610c77576040517f08c379a0000000000000000000000000000000000000000000000000000000008152600401610c6e90612718565b60405180910390fd5b610c8b610c82610fc4565b85858403610fcc565b600191505092915050565b6000610caa610ca3610fc4565b8484611197565b6001905092915050565b6000603460008473ffffffffffffffffffffffffffffffffffffffff1673ffffffffffffffffffffffffffffffffffffffff16815260200190815260200160002060008373ffffffffffffffffffffffffffffffffffffffff1673ffffffffffffffffffffffffffffffffffffffff16815260200190815260200160002054905092915050565b610d43610fc4565b73ffffffffffffffffffffffffffffffffffffffff16610d61610aef565b73ffffffffffffffffffffffffffffffffffffffff1614610db7576040517f08c379a0000000000000000000000000000000000000000000000000000000008152600401610dae90612686565b60405180910390fd5b600073ffffffffffffffffffffffffffffffffffffffff168173ffffffffffffffffffffffffffffffffffffffff161415610e27576040517f08c379a0000000000000000000000000000000000000000000000000000000008152600401610e1e906127aa565b60405180910390fd5b610e3081611823565b50565b600060019054906101000a900460ff16610e5b5760008054906101000a900460ff1615610e64565b610e636118e9565b5b610ea3576040517f08c379a0000000000000000000000000000000000000000000000000000000008152600401610e9a9061283c565b60405180910390fd5b60008060019054906101000a900460ff161590508015610ef3576001600060016101000a81548160ff02191690831515021790555060016000806101000a81548160ff0219169083151502179055505b610f676040518060400160405280600781526020017f4d79546f6b656e000000000000000000000000000000000000000000000000008152506040518060400160405280600381526020017f4d595400000000000000000000000000000000000000000000000000000000008152506118fa565b610f6f61195f565b610f776119c0565b610f9f33610f83610619565b600a610f8f919061298f565b84610f9a91906129da565b6116c2565b8015610fc05760008060016101000a81548160ff0219169083151502179055505b5050565b600033905090565b600073ffffffffffffffffffffffffffffffffffffffff168373ffffffffffffffffffffffffffffffffffffffff16141561103c576040517f08c379a000000000000000000000000000000000000000000000000000000000815260040161103390612aa6565b60405180910390fd5b600073ffffffffffffffffffffffffffffffffffffffff168273ffffffffffffffffffffffffffffffffffffffff1614156110ac576040517f08c379a00000000000000000000000000000000000000000000000000000000081526004016110a390612b38565b60405180910390fd5b80603460008573ffffffffffffffffffffffffffffffffffffffff1673ffffffffffffffffffffffffffffffffffffffff16815260200190815260200160002060008473ffffffffffffffffffffffffffffffffffffffff1673ffffffffffffffffffffffffffffffffffffffff168152602001908152602001600020819055508173ffffffffffffffffffffffffffffffffffffffff168373ffffffffffffffffffffffffffffffffffffffff167f8c5be1e5ebec7d5bd14f71427d1e84f3dd0314c0f7b2291e5b200ac8c7c3b9258360405161118a91906120a4565b60405180910390a3505050565b600073ffffffffffffffffffffffffffffffffffffffff168373ffffffffffffffffffffffffffffffffffffffff161415611207576040517f08c379a00000000000000000000000000000000000000000000000000000000081526004016111fe90612bca565b60405180910390fd5b600073ffffffffffffffffffffffffffffffffffffffff168273ffffffffffffffffffffffffffffffffffffffff161415611277576040517f08c379a000000000000000000000000000000000000000000000000000000000815260040161126e90612c5c565b60405180910390fd5b611282838383611a21565b6000603360008573ffffffffffffffffffffffffffffffffffffffff1673ffffffffffffffffffffffffffffffffffffffff16815260200190815260200160002054905081811015611309576040517f08c379a000000000000000000000000000000000000000000000000000000000815260040161130090612cee565b60405180910390fd5b818103603360008673ffffffffffffffffffffffffffffffffffffffff1673ffffffffffffffffffffffffffffffffffffffff1681526020019081526020016000208190555081603360008573ffffffffffffffffffffffffffffffffffffffff1673ffffffffffffffffffffffffffffffffffffffff168152602001908152602001600020600082825461139e91906125e4565b925050819055508273ffffffffffffffffffffffffffffffffffffffff168473ffffffffffffffffffffffffffffffffffffffff167fddf252ad1be2c89b69c2b068fc378daa952ba7f163c4a11628f55a4df523b3ef8460405161140291906120a4565b60405180910390a3611415848484611a26565b50505050565b60006114497f360894a13ba1a3210667c828492db98dca3e2076cc3735a920a3ca505d382bbc60001b611a2b565b60000160009054906101000a900473ffffffffffffffffffffffffffffffffffffffff16905090565b61147a610fc4565b73ffffffffffffffffffffffffffffffffffffffff16611498610aef565b73ffffffffffffffffffffffffffffffffffffffff16146114ee576040517f08c379a00000000000000000000000000000000000000000000000000000000081526004016114e590612686565b60405180910390fd5b50565b60006114fb61141b565b905061150684611a35565b6000835111806115135750815b15611524576115228484611aee565b505b60006115527f4910fdfa16fed3260ed0e7147f7cc6da11a60208b5b9406d12a635614ffd914360001b611bd2565b90508060000160009054906101000a900460ff166116bb5760018160000160006101000a81548160ff02191690831515021790555061161e858360405160240161159c9190612316565b6040516020818303038152906040527f3659cfe6000000000000000000000000000000000000000000000000000000007bffffffffffffffffffffffffffffffffffffffffffffffffffffffff19166020820180517bffffffffffffffffffffffffffffffffffffffffffffffffffffffff8381831617835250505050611aee565b5060008160000160006101000a81548160ff02191690831515021790555061164461141b565b73ffffffffffffffffffffffffffffffffffffffff168273ffffffffffffffffffffffffffffffffffffffff16146116b1576040517f08c379a00000000000000000000000000000000000000000000000000000000081526004016116a890612d80565b60405180910390fd5b6116ba85611bdc565b5b5050505050565b600073ffffffffffffffffffffffffffffffffffffffff168273ffffffffffffffffffffffffffffffffffffffff161415611732576040517f08c379a000000000000000000000000000000000000000000000000000000000815260040161172990612dec565b60405180910390fd5b61173e60008383611a21565b806035600082825461175091906125e4565b9250508190555080603360008473ffffffffffffffffffffffffffffffffffffffff1673ffffffffffffffffffffffffffffffffffffffff16815260200190815260200160002060008282546117a691906125e4565b925050819055508173ffffffffffffffffffffffffffffffffffffffff16600073ffffffffffffffffffffffffffffffffffffffff167fddf252ad1be2c89b69c2b068fc378daa952ba7f163c4a11628f55a4df523b3ef8360405161180b91906120a4565b60405180910390a361181f60008383611a26565b5050565b600060c960009054906101000a900473ffffffffffffffffffffffffffffffffffffffff1690508160c960006101000a81548173ffffffffffffffffffffffffffffffffffffffff021916908373ffffffffffffffffffffffffffffffffffffffff1602179055508173ffffffffffffffffffffffffffffffffffffffff168173ffffffffffffffffffffffffffffffffffffffff167f8be0079c531659141344cd1fd0a4f28419497f9722a3daafe3b4186f6b6457e060405160405180910390a35050565b60006118f430611c2b565b15905090565b600060019054906101000a900460ff16611949576040517f08c379a000000000000000000000000000000000000000000000000000000000815260040161194090612e7e565b60405180910390fd5b611951611c3e565b61195b8282611c8f565b5050565b600060019054906101000a900460ff166119ae576040517f08c379a00000000000000000000000000000000000000000000000000000000081526004016119a590612e7e565b60405180910390fd5b6119be6119b9610fc4565b611823565b565b600060019054906101000a900460ff16611a0f576040517f08c379a0000000000000000000000000000000000000000000000000000000008152600401611a0690612e7e565b60405180910390fd5b611a17611d10565b611a1f611d61565b565b505050565b505050565b6000819050919050565b611a3e81611c2b565b611a7d576040517f08c379a0000000000000000000000000000000000000000000000000000000008152600401611a7490612f10565b60405180910390fd5b80611aaa7f360894a13ba1a3210667c828492db98dca3e2076cc3735a920a3ca505d382bbc60001b611a2b565b60000160006101000a81548173ffffffffffffffffffffffffffffffffffffffff021916908373ffffffffffffffffffffffffffffffffffffffff16021790555050565b6060611af983611c2b565b611b38576040517f08c379a0000000000000000000000000000000000000000000000000000000008152600401611b2f90612fa2565b60405180910390fd5b6000808473ffffffffffffffffffffffffffffffffffffffff1684604051611b609190613009565b600060405180830381855af49150503d8060008114611b9b576040519150601f19603f3d011682016040523d82523d6000602084013e611ba0565b606091505b5091509150611bc8828260405180606001604052806027815260200161302160279139611db2565b9250505092915050565b6000819050919050565b611be581611a35565b8073ffffffffffffffffffffffffffffffffffffffff167fbc7cd75a20ee27fd9adebab32041f755214dbc6bffa90cc0225b39da2e5c2d3b60405160405180910390a250565b600080823b905060008111915050919050565b600060019054906101000a900460ff16611c8d576040517f08c379a0000000000000000000000000000000000000000000000000000000008152600401611c8490612e7e565b60405180910390fd5b565b600060019054906101000a900460ff16611cde576040517f08c379a0000000000000000000000000000000000000000000000000000000008152600401611cd590612e7e565b60405180910390fd5b8160369080519060200190611cf4929190611e19565b508060379080519060200190611d0b929190611e19565b505050565b600060019054906101000a900460ff16611d5f576040517f08c379a0000000000000000000000000000000000000000000000000000000008152600401611d5690612e7e565b60405180910390fd5b565b600060019054906101000a900460ff16611db0576040517f08c379a0000000000000000000000000000000000000000000000000000000008152600401611da790612e7e565b60405180910390fd5b565b60608315611dc257829050611e12565b600083511115611dd55782518084602001fd5b816040517f08c379a0000000000000000000000000000000000000000000000000000000008152600401611e099190611f55565b60405180910390fd5b9392505050565b828054611e25906123cd565b90600052602060002090601f016020900481019282611e475760008555611e8e565b82601f10611e6057805160ff1916838001178555611e8e565b82800160010185558215611e8e579182015b82811115611e8d578251825591602001919060010190611e72565b5b509050611e9b9190611e9f565b5090565b5b80821115611eb8576000816000905550600101611ea0565b5090565b600081519050919050565b600082825260208201905092915050565b60005b83811015611ef6578082015181840152602081019050611edb565b83811115611f05576000848401525b50505050565b6000601f19601f8301169050919050565b6000611f2782611ebc565b611f318185611ec7565b9350611f41818560208601611ed8565b611f4a81611f0b565b840191505092915050565b60006020820190508181036000830152611f6f8184611f1c565b905092915050565b6000604051905090565b600080fd5b600080fd5b600073ffffffffffffffffffffffffffffffffffffffff82169050919050565b6000611fb682611f8b565b9050919050565b611fc681611fab565b8114611fd157600080fd5b50565b600081359050611fe381611fbd565b92915050565b6000819050919050565b611ffc81611fe9565b811461200757600080fd5b50565b60008135905061201981611ff3565b92915050565b6000806040838503121561203657612035611f81565b5b600061204485828601611fd4565b92505060206120558582860161200a565b9150509250929050565b60008115159050919050565b6120748161205f565b82525050565b600060208201905061208f600083018461206b565b92915050565b61209e81611fe9565b82525050565b60006020820190506120b96000830184612095565b92915050565b6000806000606084860312156120d8576120d7611f81565b5b60006120e686828701611fd4565b93505060206120f786828701611fd4565b92505060406121088682870161200a565b9150509250925092565b600060ff82169050919050565b61212881612112565b82525050565b6000602082019050612143600083018461211f565b92915050565b60006020828403121561215f5761215e611f81565b5b600061216d84828501611fd4565b91505092915050565b600080fd5b600080fd5b7f4e487b7100000000000000000000000000000000000000000000000000000000600052604160045260246000fd5b6121b882611f0b565b810181811067ffffffffffffffff821117156121d7576121d6612180565b5b80604052505050565b60006121ea611f77565b90506121f682826121af565b919050565b600067ffffffffffffffff82111561221657612215612180565b5b61221f82611f0b565b9050602081019050919050565b82818337600083830152505050565b600061224e612249846121fb565b6121e0565b90508281526020810184848401111561226a5761226961217b565b5b61227584828561222c565b509392505050565b600082601f83011261229257612291612176565b5b81356122a284826020860161223b565b91505092915050565b600080604083850312156122c2576122c1611f81565b5b60006122d085828601611fd4565b925050602083013567ffffffffffffffff8111156122f1576122f0611f86565b5b6122fd8582860161227d565b9150509250929050565b61231081611fab565b82525050565b600060208201905061232b6000830184612307565b92915050565b6000806040838503121561234857612347611f81565b5b600061235685828601611fd4565b925050602061236785828601611fd4565b9150509250929050565b60006020828403121561238757612386611f81565b5b60006123958482850161200a565b91505092915050565b7f4e487b7100000000000000000000000000000000000000000000000000000000600052602260045260246000fd5b600060028204905060018216806123e557607f821691505b602082108114156123f9576123f861239e565b5b50919050565b7f45524332303a207472616e7366657220616d6f756e742065786365656473206160008201527f6c6c6f77616e6365000000000000000000000000000000000000000000000000602082015250565b600061245b602883611ec7565b9150612466826123ff565b604082019050919050565b6000602082019050818103600083015261248a8161244e565b9050919050565b7f46756e6374696f6e206d7573742062652063616c6c6564207468726f7567682060008201527f64656c656761746563616c6c0000000000000000000000000000000000000000602082015250565b60006124ed602c83611ec7565b91506124f882612491565b604082019050919050565b6000602082019050818103600083015261251c816124e0565b9050919050565b7f46756e6374696f6e206d7573742062652063616c6c6564207468726f7567682060008201527f6163746976652070726f78790000000000000000000000000000000000000000602082015250565b600061257f602c83611ec7565b915061258a82612523565b604082019050919050565b600060208201905081810360008301526125ae81612572565b9050919050565b7f4e487b7100000000000000000000000000000000000000000000000000000000600052601160045260246000fd5b60006125ef82611fe9565b91506125fa83611fe9565b9250827fffffffffffffffffffffffffffffffffffffffffffffffffffffffffffffffff0382111561262f5761262e6125b5565b5b828201905092915050565b7f4f776e61626c653a2063616c6c6572206973206e6f7420746865206f776e6572600082015250565b6000612670602083611ec7565b915061267b8261263a565b602082019050919050565b6000602082019050818103600083015261269f81612663565b9050919050565b7f45524332303a2064656372656173656420616c6c6f77616e63652062656c6f7760008201527f207a65726f000000000000000000000000000000000000000000000000000000602082015250565b6000612702602583611ec7565b915061270d826126a6565b604082019050919050565b60006020820190508181036000830152612731816126f5565b9050919050565b7f4f776e61626c653a206e6577206f776e657220697320746865207a65726f206160008201527f6464726573730000000000000000000000000000000000000000000000000000602082015250565b6000612794602683611ec7565b915061279f82612738565b604082019050919050565b600060208201905081810360008301526127c381612787565b9050919050565b7f496e697469616c697a61626c653a20636f6e747261637420697320616c72656160008201527f647920696e697469616c697a6564000000000000000000000000000000000000602082015250565b6000612826602e83611ec7565b9150612831826127ca565b604082019050919050565b6000602082019050818103600083015261285581612819565b9050919050565b60008160011c9050919050565b6000808291508390505b60018511156128b35780860481111561288f5761288e6125b5565b5b600185161561289e5780820291505b80810290506128ac8561285c565b9450612873565b94509492505050565b6000826128cc5760019050612988565b816128da5760009050612988565b81600181146128f057600281146128fa57612929565b6001915050612988565b60ff84111561290c5761290b6125b5565b5b8360020a915084821115612923576129226125b5565b5b50612988565b5060208310610133831016604e8410600b841016171561295e5782820a905083811115612959576129586125b5565b5b612988565b61296b8484846001612869565b92509050818404811115612982576129816125b5565b5b81810290505b9392505050565b600061299a82611fe9565b91506129a583612112565b92506129d27fffffffffffffffffffffffffffffffffffffffffffffffffffffffffffffffff84846128bc565b905092915050565b60006129e582611fe9565b91506129f083611fe9565b9250817fffffffffffffffffffffffffffffffffffffffffffffffffffffffffffffffff0483118215151615612a2957612a286125b5565b5b828202905092915050565b7f45524332303a20617070726f76652066726f6d20746865207a65726f2061646460008201527f7265737300000000000000000000000000000000000000000000000000000000602082015250565b6000612a90602483611ec7565b9150612a9b82612a34565b604082019050919050565b60006020820190508181036000830152612abf81612a83565b9050919050565b7f45524332303a20617070726f766520746f20746865207a65726f20616464726560008201527f7373000000000000000000000000000000000000000000000000000000000000602082015250565b6000612b22602283611ec7565b9150612b2d82612ac6565b604082019050919050565b60006020820190508181036000830152612b5181612b15565b9050919050565b7f45524332303a207472616e736665722066726f6d20746865207a65726f20616460008201527f6472657373000000000000000000000000000000000000000000000000000000602082015250565b6000612bb4602583611ec7565b9150612bbf82612b58565b604082019050919050565b60006020820190508181036000830152612be381612ba7565b9050919050565b7f45524332303a207472616e7366657220746f20746865207a65726f206164647260008201527f6573730000000000000000000000000000000000000000000000000000000000602082015250565b6000612c46602383611ec7565b9150612c5182612bea565b604082019050919050565b60006020820190508181036000830152612c7581612c39565b9050919050565b7f45524332303a207472616e7366657220616d6f756e742065786365656473206260008201527f616c616e63650000000000000000000000000000000000000000000000000000602082015250565b6000612cd8602683611ec7565b9150612ce382612c7c565b604082019050919050565b60006020820190508181036000830152612d0781612ccb565b9050919050565b7f45524331393637557067726164653a207570677261646520627265616b73206660008201527f7572746865722075706772616465730000000000000000000000000000000000602082015250565b6000612d6a602f83611ec7565b9150612d7582612d0e565b604082019050919050565b60006020820190508181036000830152612d9981612d5d565b9050919050565b7f45524332303a206d696e7420746f20746865207a65726f206164647265737300600082015250565b6000612dd6601f83611ec7565b9150612de182612da0565b602082019050919050565b60006020820190508181036000830152612e0581612dc9565b9050919050565b7f496e697469616c697a61626c653a20636f6e7472616374206973206e6f74206960008201527f6e697469616c697a696e67000000000000000000000000000000000000000000602082015250565b6000612e68602b83611ec7565b9150612e7382612e0c565b604082019050919050565b60006020820190508181036000830152612e9781612e5b565b9050919050565b7f455243313936373a206e657720696d706c656d656e746174696f6e206973206e60008201527f6f74206120636f6e747261637400000000000000000000000000000000000000602082015250565b6000612efa602d83611ec7565b9150612f0582612e9e565b604082019050919050565b60006020820190508181036000830152612f2981612eed565b9050919050565b7f416464726573733a2064656c65676174652063616c6c20746f206e6f6e2d636f60008201527f6e74726163740000000000000000000000000000000000000000000000000000602082015250565b6000612f8c602683611ec7565b9150612f9782612f30565b604082019050919050565b60006020820190508181036000830152612fbb81612f7f565b9050919050565b600081519050919050565b600081905092915050565b6000612fe382612fc2565b612fed8185612fcd565b9350612ffd818560208601611ed8565b80840191505092915050565b60006130158284612fd8565b91508190509291505056fe416464726573733a206c6f772d6c6576656c2064656c65676174652063616c6c206661696c6564a2646970667358221220516e72edad252975c935118d920651613b2aa1fd1c14bca225c0b16616e66fbc64736f6c634300080b0033",
  "linkReferences": {},
  "deployedLinkReferences": {}
}