{
  "_format": "hh-sol-artifact-1",
  "contractName": "MyTokenV1",
  "sourceName": "contracts/myToken.sol",
  "abi": [
    {
      "anonymous": false,
      "inputs": [
        {
          "indexed": false,
          "internalType": "address",
          "name": "previousAdmin",
          "type": "address"
        },
        {
          "indexed": false,
          "internalType": "address",
          "name": "newAdmin",
          "type": "address"
        }
      ],
      "name": "AdminChanged",
      "type": "event"
    },
    {
      "anonymous": false,
      "inputs": [
        {
          "indexed": true,
          "internalType": "address",
          "name": "owner",
          "type": "address"
        },
        {
          "indexed": true,
          "internalType": "address",
          "name": "spender",
          "type": "address"
        },
        {
          "indexed": false,
          "internalType": "uint256",
          "name": "value",
          "type": "uint256"
        }
      ],
      "name": "Approval",
      "type": "event"
    },
    {
      "anonymous": false,
      "inputs": [
        {
          "indexed": true,
          "internalType": "address",
          "name": "beacon",
          "type": "address"
        }
      ],
      "name": "BeaconUpgraded",
      "type": "event"
    },
    {
      "anonymous": false,
      "inputs": [
        {
          "indexed": true,
          "internalType": "address",
          "name": "previousOwner",
          "type": "address"
        },
        {
          "indexed": true,
          "internalType": "address",
          "name": "newOwner",
          "type": "address"
        }
      ],
      "name": "OwnershipTransferred",
      "type": "event"
    },
    {
      "anonymous": false,
      "inputs": [
        {
          "indexed": true,
          "internalType": "address",
          "name": "from",
          "type": "address"
        },
        {
          "indexed": true,
          "internalType": "address",
          "name": "to",
          "type": "address"
        },
        {
          "indexed": false,
          "internalType": "uint256",
          "name": "value",
          "type": "uint256"
        }
      ],
      "name": "Transfer",
      "type": "event"
    },
    {
      "anonymous": false,
      "inputs": [
        {
          "indexed": true,
          "internalType": "address",
          "name": "implementation",
          "type": "address"
        }
      ],
      "name": "Upgraded",
      "type": "event"
    },
    {
      "inputs": [
        {
          "internalType": "address",
          "name": "owner",
          "type": "address"
        },
        {
          "internalType": "address",
          "name": "spender",
          "type": "address"
        }
      ],
      "name": "allowance",
      "outputs": [
        {
          "internalType": "uint256",
          "name": "",
          "type": "uint256"
        }
      ],
      "stateMutability": "view",
      "type": "function"
    },
    {
      "inputs": [
        {
          "internalType": "address",
          "name": "spender",
          "type": "address"
        },
        {
          "internalType": "uint256",
          "name": "amount",
          "type": "uint256"
        }
      ],
      "name": "approve",
      "outputs": [
        {
          "internalType": "bool",
          "name": "",
          "type": "bool"
        }
      ],
      "stateMutability": "nonpayable",
      "type": "function"
    },
    {
      "inputs": [
        {
          "internalType": "address",
          "name": "account",
          "type": "address"
        }
      ],
      "name": "balanceOf",
      "outputs": [
        {
          "internalType": "uint256",
          "name": "",
          "type": "uint256"
        }
      ],
      "stateMutability": "view",
      "type": "function"
    },
    {
      "inputs": [],
      "name": "decimals",
      "outputs": [
        {
          "internalType": "uint8",
          "name": "",
          "type": "uint8"
        }
      ],
      "stateMutability": "view",
      "type": "function"
    },
    {
      "inputs": [
        {
          "internalType": "address",
          "name": "spender",
          "type": "address"
        },
        {
          "internalType": "uint256",
          "name": "subtractedValue",
          "type": "uint256"
        }
      ],
      "name": "decreaseAllowance",
      "outputs": [
        {
          "internalType": "bool",
          "name": "",
          "type": "bool"
        }
      ],
      "stateMutability": "nonpayable",
      "type": "function"
    },
    {
      "inputs": [
        {
          "internalType": "address",
          "name": "spender",
          "type": "address"
        },
        {
          "internalType": "uint256",
          "name": "addedValue",
          "type": "uint256"
        }
      ],
      "name": "increaseAllowance",
      "outputs": [
        {
          "internalType": "bool",
          "name": "",
          "type": "bool"
        }
      ],
      "stateMutability": "nonpayable",
      "type": "function"
    },
    {
      "inputs": [
        {
          "internalType": "uint256",
          "name": "initialSupply",
          "type": "uint256"
        }
      ],
      "name": "initialize",
      "outputs": [],
      "stateMutability": "nonpayable",
      "type": "function"
    },
    {
      "inputs": [],
      "name": "name",
      "outputs": [
        {
          "internalType": "string",
          "name": "",
          "type": "string"
        }
      ],
      "stateMutability": "view",
      "type": "function"
    },
    {
      "inputs": [],
      "name": "owner",
      "outputs": [
        {
          "internalType": "address",
          "name": "",
          "type": "address"
        }
      ],
      "stateMutability": "view",
      "type": "function"
    },
    {
      "inputs": [],
      "name": "renounceOwnership",
      "outputs": [],
      "stateMutability": "nonpayable",
      "type": "function"
    },
    {
      "inputs": [],
      "name": "symbol",
      "outputs": [
        {
          "internalType": "string",
          "name": "",
          "type": "string"
        }
      ],
      "stateMutability": "view",
      "type": "function"
    },
    {
      "inputs": [],
      "name": "totalSupply",
      "outputs": [
        {
          "internalType": "uint256",
          "name": "",
          "type": "uint256"
        }
      ],
      "stateMutability": "view",
      "type": "function"
    },
    {
      "inputs": [
        {
          "internalType": "address",
          "name": "recipient",
          "type": "address"
        },
        {
          "internalType": "uint256",
          "name": "amount",
          "type": "uint256"
        }
      ],
      "name": "transfer",
      "outputs": [
        {
          "internalType": "bool",
          "name": "",
          "type": "bool"
        }
      ],
      "stateMutability": "nonpayable",
      "type": "function"
    },
    {
      "inputs": [
        {
          "internalType": "address",
          "name": "sender",
          "type": "address"
        },
        {
          "internalType": "address",
          "name": "recipient",
          "type": "address"
        },
        {
          "internalType": "uint256",
          "name": "amount",
          "type": "uint256"
        }
      ],
      "name": "transferFrom",
      "outputs": [
        {
          "internalType": "bool",
          "name": "",
          "type": "bool"
        }
      ],
      "stateMutability": "nonpayable",
      "type": "function"
    },
    {
      "inputs": [
        {
          "internalType": "address",
          "name": "newOwner",
          "type": "address"
        }
      ],
      "name": "transferOwnership",
      "outputs": [],
      "stateMutability": "nonpayable",
      "type": "function"
    },
    {
      "inputs": [
        {
          "internalType": "address",
          "name": "newImplementation",
          "type": "address"
        }
      ],
      "name": "upgradeTo",
      "outputs": [],
      "stateMutability": "nonpayable",
      "type": "function"
    },
    {
      "inputs": [
        {
          "internalType": "address",
          "name": "newImplementation",
          "type": "address"
        },
        {
          "internalType": "bytes",
          "name": "data",
          "type": "bytes"
        }
      ],
      "name": "upgradeToAndCall",
      "outputs": [],
      "stateMutability": "payable",
      "type": "function"
    }
  ],
  "bytecode": "0x60a06040523073ffffffffffffffffffffffffffffffffffffffff1660809073ffffffffffffffffffffffffffffffffffffffff1681525034801561004357600080fd5b50608051612fbf610074600039600081816105f00152818161067f0152818161082501526108b40152612fbf6000f3fe6080604052600436106100fe5760003560e01c806370a0823111610095578063a457c2d711610064578063a457c2d71461032a578063a9059cbb14610367578063dd62ed3e146103a4578063f2fde38b146103e1578063fe4b84df1461040a576100fe565b806370a0823114610280578063715018a6146102bd5780638da5cb5b146102d457806395d89b41146102ff576100fe565b8063313ce567116100d1578063313ce567146101d35780633659cfe6146101fe57806339509351146102275780634f1ef28614610264576100fe565b806306fdde0314610103578063095ea7b31461012e57806318160ddd1461016b57806323b872dd14610196575b600080fd5b34801561010f57600080fd5b50610118610433565b6040516101259190611e97565b60405180910390f35b34801561013a57600080fd5b5061015560048036038101906101509190611f61565b6104c5565b6040516101629190611fbc565b60405180910390f35b34801561017757600080fd5b506101806104e3565b60405161018d9190611fe6565b60405180910390f35b3480156101a257600080fd5b506101bd60048036038101906101b89190612001565b6104ed565b6040516101ca9190611fbc565b60405180910390f35b3480156101df57600080fd5b506101e86105e5565b6040516101f59190612070565b60405180910390f35b34801561020a57600080fd5b506102256004803603810190610220919061208b565b6105ee565b005b34801561023357600080fd5b5061024e60048036038101906102499190611f61565b610777565b60405161025b9190611fbc565b60405180910390f35b61027e600480360381019061027991906121ed565b610823565b005b34801561028c57600080fd5b506102a760048036038101906102a2919061208b565b610960565b6040516102b49190611fe6565b60405180910390f35b3480156102c957600080fd5b506102d26109a9565b005b3480156102e057600080fd5b506102e9610a31565b6040516102f69190612258565b60405180910390f35b34801561030b57600080fd5b50610314610a5b565b6040516103219190611e97565b60405180910390f35b34801561033657600080fd5b50610351600480360381019061034c9190611f61565b610aed565b60405161035e9190611fbc565b60405180910390f35b34801561037357600080fd5b5061038e60048036038101906103899190611f61565b610bd8565b60405161039b9190611fbc565b60405180910390f35b3480156103b057600080fd5b506103cb60048036038101906103c69190612273565b610bf6565b6040516103d89190611fe6565b60405180910390f35b3480156103ed57600080fd5b506104086004803603810190610403919061208b565b610c7d565b005b34801561041657600080fd5b50610431600480360381019061042c91906122b3565b610d75565b005b6060603680546104429061230f565b80601f016020809104026020016040519081016040528092919081815260200182805461046e9061230f565b80156104bb5780601f10610490576101008083540402835291602001916104bb565b820191906000526020600020905b81548152906001019060200180831161049e57829003601f168201915b5050505050905090565b60006104d96104d2610f06565b8484610f0e565b6001905092915050565b6000603554905090565b60006104fa8484846110d9565b6000603460008673ffffffffffffffffffffffffffffffffffffffff1673ffffffffffffffffffffffffffffffffffffffff1681526020019081526020016000206000610545610f06565b73ffffffffffffffffffffffffffffffffffffffff1673ffffffffffffffffffffffffffffffffffffffff168152602001908152602001600020549050828110156105c5576040517f08c379a00000000000000000000000000000000000000000000000000000000081526004016105bc906123b3565b60405180910390fd5b6105d9856105d1610f06565b858403610f0e565b60019150509392505050565b60006012905090565b7f000000000000000000000000000000000000000000000000000000000000000073ffffffffffffffffffffffffffffffffffffffff163073ffffffffffffffffffffffffffffffffffffffff16141561067d576040517f08c379a000000000000000000000000000000000000000000000000000000000815260040161067490612445565b60405180910390fd5b7f000000000000000000000000000000000000000000000000000000000000000073ffffffffffffffffffffffffffffffffffffffff166106bc61135d565b73ffffffffffffffffffffffffffffffffffffffff1614610712576040517f08c379a0000000000000000000000000000000000000000000000000000000008152600401610709906124d7565b60405180910390fd5b61071b816113b4565b61077481600067ffffffffffffffff81111561073a576107396120c2565b5b6040519080825280601f01601f19166020018201604052801561076c5781602001600182028036833780820191505090505b506000611433565b50565b6000610819610784610f06565b848460346000610792610f06565b73ffffffffffffffffffffffffffffffffffffffff1673ffffffffffffffffffffffffffffffffffffffff16815260200190815260200160002060008873ffffffffffffffffffffffffffffffffffffffff1673ffffffffffffffffffffffffffffffffffffffff168152602001908152602001600020546108149190612526565b610f0e565b6001905092915050565b7f000000000000000000000000000000000000000000000000000000000000000073ffffffffffffffffffffffffffffffffffffffff163073ffffffffffffffffffffffffffffffffffffffff1614156108b2576040517f08c379a00000000000000000000000000000000000000000000000000000000081526004016108a990612445565b60405180910390fd5b7f000000000000000000000000000000000000000000000000000000000000000073ffffffffffffffffffffffffffffffffffffffff166108f161135d565b73ffffffffffffffffffffffffffffffffffffffff1614610947576040517f08c379a000000000000000000000000000000000000000000000000000000000815260040161093e906124d7565b60405180910390fd5b610950826113b4565b61095c82826001611433565b5050565b6000603360008373ffffffffffffffffffffffffffffffffffffffff1673ffffffffffffffffffffffffffffffffffffffff168152602001908152602001600020549050919050565b6109b1610f06565b73ffffffffffffffffffffffffffffffffffffffff166109cf610a31565b73ffffffffffffffffffffffffffffffffffffffff1614610a25576040517f08c379a0000000000000000000000000000000000000000000000000000000008152600401610a1c906125c8565b60405180910390fd5b610a2f6000611604565b565b600060c960009054906101000a900473ffffffffffffffffffffffffffffffffffffffff16905090565b606060378054610a6a9061230f565b80601f0160208091040260200160405190810160405280929190818152602001828054610a969061230f565b8015610ae35780601f10610ab857610100808354040283529160200191610ae3565b820191906000526020600020905b815481529060010190602001808311610ac657829003601f168201915b5050505050905090565b60008060346000610afc610f06565b73ffffffffffffffffffffffffffffffffffffffff1673ffffffffffffffffffffffffffffffffffffffff16815260200190815260200160002060008573ffffffffffffffffffffffffffffffffffffffff1673ffffffffffffffffffffffffffffffffffffffff16815260200190815260200160002054905082811015610bb9576040517f08c379a0000000000000000000000000000000000000000000000000000000008152600401610bb09061265a565b60405180910390fd5b610bcd610bc4610f06565b85858403610f0e565b600191505092915050565b6000610bec610be5610f06565b84846110d9565b6001905092915050565b6000603460008473ffffffffffffffffffffffffffffffffffffffff1673ffffffffffffffffffffffffffffffffffffffff16815260200190815260200160002060008373ffffffffffffffffffffffffffffffffffffffff1673ffffffffffffffffffffffffffffffffffffffff16815260200190815260200160002054905092915050565b610c85610f06565b73ffffffffffffffffffffffffffffffffffffffff16610ca3610a31565b73ffffffffffffffffffffffffffffffffffffffff1614610cf9576040517f08c379a0000000000000000000000000000000000000000000000000000000008152600401610cf0906125c8565b60405180910390fd5b600073ffffffffffffffffffffffffffffffffffffffff168173ffffffffffffffffffffffffffffffffffffffff161415610d69576040517f08c379a0000000000000000000000000000000000000000000000000000000008152600401610d60906126ec565b60405180910390fd5b610d7281611604565b50565b600060019054906101000a900460ff16610d9d5760008054906101000a900460ff1615610da6565b610da56116ca565b5b610de5576040517f08c379a0000000000000000000000000000000000000000000000000000000008152600401610ddc9061277e565b60405180910390fd5b60008060019054906101000a900460ff161590508015610e35576001600060016101000a81548160ff02191690831515021790555060016000806101000a81548160ff0219169083151502179055505b610ea96040518060400160405280600781526020017f4d79546f6b656e000000000000000000000000000000000000000000000000008152506040518060400160405280600381526020017f4d595400000000000000000000000000000000000000000000000000000000008152506116db565b610eb1611740565b610eb96117a1565b610ee133610ec56105e5565b600a610ed191906128d1565b84610edc919061291c565b611802565b8015610f025760008060016101000a81548160ff0219169083151502179055505b5050565b600033905090565b600073ffffffffffffffffffffffffffffffffffffffff168373ffffffffffffffffffffffffffffffffffffffff161415610f7e576040517f08c379a0000000000000000000000000000000000000000000000000000000008152600401610f75906129e8565b60405180910390fd5b600073ffffffffffffffffffffffffffffffffffffffff168273ffffffffffffffffffffffffffffffffffffffff161415610fee576040517f08c379a0000000000000000000000000000000000000000000000000000000008152600401610fe590612a7a565b60405180910390fd5b80603460008573ffffffffffffffffffffffffffffffffffffffff1673ffffffffffffffffffffffffffffffffffffffff16815260200190815260200160002060008473ffffffffffffffffffffffffffffffffffffffff1673ffffffffffffffffffffffffffffffffffffffff168152602001908152602001600020819055508173ffffffffffffffffffffffffffffffffffffffff168373ffffffffffffffffffffffffffffffffffffffff167f8c5be1e5ebec7d5bd14f71427d1e84f3dd0314c0f7b2291e5b200ac8c7c3b925836040516110cc9190611fe6565b60405180910390a3505050565b600073ffffffffffffffffffffffffffffffffffffffff168373ffffffffffffffffffffffffffffffffffffffff161415611149576040517f08c379a000000000000000000000000000000000000000000000000000000000815260040161114090612b0c565b60405180910390fd5b600073ffffffffffffffffffffffffffffffffffffffff168273ffffffffffffffffffffffffffffffffffffffff1614156111b9576040517f08c379a00000000000000000000000000000000000000000000000000000000081526004016111b090612b9e565b60405180910390fd5b6111c4838383611963565b6000603360008573ffffffffffffffffffffffffffffffffffffffff1673ffffffffffffffffffffffffffffffffffffffff1681526020019081526020016000205490508181101561124b576040517f08c379a000000000000000000000000000000000000000000000000000000000815260040161124290612c30565b60405180910390fd5b818103603360008673ffffffffffffffffffffffffffffffffffffffff1673ffffffffffffffffffffffffffffffffffffffff1681526020019081526020016000208190555081603360008573ffffffffffffffffffffffffffffffffffffffff1673ffffffffffffffffffffffffffffffffffffffff16815260200190815260200160002060008282546112e09190612526565b925050819055508273ffffffffffffffffffffffffffffffffffffffff168473ffffffffffffffffffffffffffffffffffffffff167fddf252ad1be2c89b69c2b068fc378daa952ba7f163c4a11628f55a4df523b3ef846040516113449190611fe6565b60405180910390a3611357848484611968565b50505050565b600061138b7f360894a13ba1a3210667c828492db98dca3e2076cc3735a920a3ca505d382bbc60001b61196d565b60000160009054906101000a900473ffffffffffffffffffffffffffffffffffffffff16905090565b6113bc610f06565b73ffffffffffffffffffffffffffffffffffffffff166113da610a31565b73ffffffffffffffffffffffffffffffffffffffff1614611430576040517f08c379a0000000000000000000000000000000000000000000000000000000008152600401611427906125c8565b60405180910390fd5b50565b600061143d61135d565b905061144884611977565b6000835111806114555750815b15611466576114648484611a30565b505b60006114947f4910fdfa16fed3260ed0e7147f7cc6da11a60208b5b9406d12a635614ffd914360001b611b14565b90508060000160009054906101000a900460ff166115fd5760018160000160006101000a81548160ff02191690831515021790555061156085836040516024016114de9190612258565b6040516020818303038152906040527f3659cfe6000000000000000000000000000000000000000000000000000000007bffffffffffffffffffffffffffffffffffffffffffffffffffffffff19166020820180517bffffffffffffffffffffffffffffffffffffffffffffffffffffffff8381831617835250505050611a30565b5060008160000160006101000a81548160ff02191690831515021790555061158661135d565b73ffffffffffffffffffffffffffffffffffffffff168273ffffffffffffffffffffffffffffffffffffffff16146115f3576040517f08c379a00000000000000000000000000000000000000000000000000000000081526004016115ea90612cc2565b60405180910390fd5b6115fc85611b1e565b5b5050505050565b600060c960009054906101000a900473ffffffffffffffffffffffffffffffffffffffff1690508160c960006101000a81548173ffffffffffffffffffffffffffffffffffffffff021916908373ffffffffffffffffffffffffffffffffffffffff1602179055508173ffffffffffffffffffffffffffffffffffffffff168173ffffffffffffffffffffffffffffffffffffffff167f8be0079c531659141344cd1fd0a4f28419497f9722a3daafe3b4186f6b6457e060405160405180910390a35050565b60006116d530611b6d565b15905090565b600060019054906101000a900460ff1661172a576040517f08c379a000000000000000000000000000000000000000000000000000000000815260040161172190612d54565b60405180910390fd5b611732611b80565b61173c8282611bd1565b5050565b600060019054906101000a900460ff1661178f576040517f08c379a000000000000000000000000000000000000000000000000000000000815260040161178690612d54565b60405180910390fd5b61179f61179a610f06565b611604565b565b600060019054906101000a900460ff166117f0576040517f08c379a00000000000000000000000000000000000000000000000000000000081526004016117e790612d54565b60405180910390fd5b6117f8611c52565b611800611ca3565b565b600073ffffffffffffffffffffffffffffffffffffffff168273ffffffffffffffffffffffffffffffffffffffff161415611872576040517f08c379a000000000000000000000000000000000000000000000000000000000815260040161186990612dc0565b60405180910390fd5b61187e60008383611963565b80603560008282546118909190612526565b9250508190555080603360008473ffffffffffffffffffffffffffffffffffffffff1673ffffffffffffffffffffffffffffffffffffffff16815260200190815260200160002060008282546118e69190612526565b925050819055508173ffffffffffffffffffffffffffffffffffffffff16600073ffffffffffffffffffffffffffffffffffffffff167fddf252ad1be2c89b69c2b068fc378daa952ba7f163c4a11628f55a4df523b3ef8360405161194b9190611fe6565b60405180910390a361195f60008383611968565b5050565b505050565b505050565b6000819050919050565b61198081611b6d565b6119bf576040517f08c379a00000000000000000000000000000000000000000000000000000000081526004016119b690612e52565b60405180910390fd5b806119ec7f360894a13ba1a3210667c828492db98dca3e2076cc3735a920a3ca505d382bbc60001b61196d565b60000160006101000a81548173ffffffffffffffffffffffffffffffffffffffff021916908373ffffffffffffffffffffffffffffffffffffffff16021790555050565b6060611a3b83611b6d565b611a7a576040517f08c379a0000000000000000000000000000000000000000000000000000000008152600401611a7190612ee4565b60405180910390fd5b6000808473ffffffffffffffffffffffffffffffffffffffff1684604051611aa29190612f4b565b600060405180830381855af49150503d8060008114611add576040519150601f19603f3d011682016040523d82523d6000602084013e611ae2565b606091505b5091509150611b0a8282604051806060016040528060278152602001612f6360279139611cf4565b9250505092915050565b6000819050919050565b611b2781611977565b8073ffffffffffffffffffffffffffffffffffffffff167fbc7cd75a20ee27fd9adebab32041f755214dbc6bffa90cc0225b39da2e5c2d3b60405160405180910390a250565b600080823b905060008111915050919050565b600060019054906101000a900460ff16611bcf576040517f08c379a0000000000000000000000000000000000000000000000000000000008152600401611bc690612d54565b60405180910390fd5b565b600060019054906101000a900460ff16611c20576040517f08c379a0000000000000000000000000000000000000000000000000000000008152600401611c1790612d54565b60405180910390fd5b8160369080519060200190611c36929190611d5b565b508060379080519060200190611c4d929190611d5b565b505050565b600060019054906101000a900460ff16611ca1576040517f08c379a0000000000000000000000000000000000000000000000000000000008152600401611c9890612d54565b60405180910390fd5b565b600060019054906101000a900460ff16611cf2576040517f08c379a0000000000000000000000000000000000000000000000000000000008152600401611ce990612d54565b60405180910390fd5b565b60608315611d0457829050611d54565b600083511115611d175782518084602001fd5b816040517f08c379a0000000000000000000000000000000000000000000000000000000008152600401611d4b9190611e97565b60405180910390fd5b9392505050565b828054611d679061230f565b90600052602060002090601f016020900481019282611d895760008555611dd0565b82601f10611da257805160ff1916838001178555611dd0565b82800160010185558215611dd0579182015b82811115611dcf578251825591602001919060010190611db4565b5b509050611ddd9190611de1565b5090565b5b80821115611dfa576000816000905550600101611de2565b5090565b600081519050919050565b600082825260208201905092915050565b60005b83811015611e38578082015181840152602081019050611e1d565b83811115611e47576000848401525b50505050565b6000601f19601f8301169050919050565b6000611e6982611dfe565b611e738185611e09565b9350611e83818560208601611e1a565b611e8c81611e4d565b840191505092915050565b60006020820190508181036000830152611eb18184611e5e565b905092915050565b6000604051905090565b600080fd5b600080fd5b600073ffffffffffffffffffffffffffffffffffffffff82169050919050565b6000611ef882611ecd565b9050919050565b611f0881611eed565b8114611f1357600080fd5b50565b600081359050611f2581611eff565b92915050565b6000819050919050565b611f3e81611f2b565b8114611f4957600080fd5b50565b600081359050611f5b81611f35565b92915050565b60008060408385031215611f7857611f77611ec3565b5b6000611f8685828601611f16565b9250506020611f9785828601611f4c565b9150509250929050565b60008115159050919050565b611fb681611fa1565b82525050565b6000602082019050611fd16000830184611fad565b92915050565b611fe081611f2b565b82525050565b6000602082019050611ffb6000830184611fd7565b92915050565b60008060006060848603121561201a57612019611ec3565b5b600061202886828701611f16565b935050602061203986828701611f16565b925050604061204a86828701611f4c565b9150509250925092565b600060ff82169050919050565b61206a81612054565b82525050565b60006020820190506120856000830184612061565b92915050565b6000602082840312156120a1576120a0611ec3565b5b60006120af84828501611f16565b91505092915050565b600080fd5b600080fd5b7f4e487b7100000000000000000000000000000000000000000000000000000000600052604160045260246000fd5b6120fa82611e4d565b810181811067ffffffffffffffff82111715612119576121186120c2565b5b80604052505050565b600061212c611eb9565b905061213882826120f1565b919050565b600067ffffffffffffffff821115612158576121576120c2565b5b61216182611e4d565b9050602081019050919050565b82818337600083830152505050565b600061219061218b8461213d565b612122565b9050828152602081018484840111156121ac576121ab6120bd565b5b6121b784828561216e565b509392505050565b600082601f8301126121d4576121d36120b8565b5b81356121e484826020860161217d565b91505092915050565b6000806040838503121561220457612203611ec3565b5b600061221285828601611f16565b925050602083013567ffffffffffffffff81111561223357612232611ec8565b5b61223f858286016121bf565b9150509250929050565b61225281611eed565b82525050565b600060208201905061226d6000830184612249565b92915050565b6000806040838503121561228a57612289611ec3565b5b600061229885828601611f16565b92505060206122a985828601611f16565b9150509250929050565b6000602082840312156122c9576122c8611ec3565b5b60006122d784828501611f4c565b91505092915050565b7f4e487b7100000000000000000000000000000000000000000000000000000000600052602260045260246000fd5b6000600282049050600182168061232757607f821691505b6020821081141561233b5761233a6122e0565b5b50919050565b7f45524332303a207472616e7366657220616d6f756e742065786365656473206160008201527f6c6c6f77616e6365000000000000000000000000000000000000000000000000602082015250565b600061239d602883611e09565b91506123a882612341565b604082019050919050565b600060208201905081810360008301526123cc81612390565b9050919050565b7f46756e6374696f6e206d7573742062652063616c6c6564207468726f7567682060008201527f64656c656761746563616c6c0000000000000000000000000000000000000000602082015250565b600061242f602c83611e09565b915061243a826123d3565b604082019050919050565b6000602082019050818103600083015261245e81612422565b9050919050565b7f46756e6374696f6e206d7573742062652063616c6c6564207468726f7567682060008201527f6163746976652070726f78790000000000000000000000000000000000000000602082015250565b60006124c1602c83611e09565b91506124cc82612465565b604082019050919050565b600060208201905081810360008301526124f0816124b4565b9050919050565b7f4e487b7100000000000000000000000000000000000000000000000000000000600052601160045260246000fd5b600061253182611f2b565b915061253c83611f2b565b9250827fffffffffffffffffffffffffffffffffffffffffffffffffffffffffffffffff03821115612571576125706124f7565b5b828201905092915050565b7f4f776e61626c653a2063616c6c6572206973206e6f7420746865206f776e6572600082015250565b60006125b2602083611e09565b91506125bd8261257c565b602082019050919050565b600060208201905081810360008301526125e1816125a5565b9050919050565b7f45524332303a2064656372656173656420616c6c6f77616e63652062656c6f7760008201527f207a65726f000000000000000000000000000000000000000000000000000000602082015250565b6000612644602583611e09565b915061264f826125e8565b604082019050919050565b6000602082019050818103600083015261267381612637565b9050919050565b7f4f776e61626c653a206e6577206f776e657220697320746865207a65726f206160008201527f6464726573730000000000000000000000000000000000000000000000000000602082015250565b60006126d6602683611e09565b91506126e18261267a565b604082019050919050565b60006020820190508181036000830152612705816126c9565b9050919050565b7f496e697469616c697a61626c653a20636f6e747261637420697320616c72656160008201527f647920696e697469616c697a6564000000000000000000000000000000000000602082015250565b6000612768602e83611e09565b91506127738261270c565b604082019050919050565b600060208201905081810360008301526127978161275b565b9050919050565b60008160011c9050919050565b6000808291508390505b60018511156127f5578086048111156127d1576127d06124f7565b5b60018516156127e05780820291505b80810290506127ee8561279e565b94506127b5565b94509492505050565b60008261280e57600190506128ca565b8161281c57600090506128ca565b8160018114612832576002811461283c5761286b565b60019150506128ca565b60ff84111561284e5761284d6124f7565b5b8360020a915084821115612865576128646124f7565b5b506128ca565b5060208310610133831016604e8410600b84101617156128a05782820a90508381111561289b5761289a6124f7565b5b6128ca565b6128ad84848460016127ab565b925090508184048111156128c4576128c36124f7565b5b81810290505b9392505050565b60006128dc82611f2b565b91506128e783612054565b92506129147fffffffffffffffffffffffffffffffffffffffffffffffffffffffffffffffff84846127fe565b905092915050565b600061292782611f2b565b915061293283611f2b565b9250817fffffffffffffffffffffffffffffffffffffffffffffffffffffffffffffffff048311821515161561296b5761296a6124f7565b5b828202905092915050565b7f45524332303a20617070726f76652066726f6d20746865207a65726f2061646460008201527f7265737300000000000000000000000000000000000000000000000000000000602082015250565b60006129d2602483611e09565b91506129dd82612976565b604082019050919050565b60006020820190508181036000830152612a01816129c5565b9050919050565b7f45524332303a20617070726f766520746f20746865207a65726f20616464726560008201527f7373000000000000000000000000000000000000000000000000000000000000602082015250565b6000612a64602283611e09565b9150612a6f82612a08565b604082019050919050565b60006020820190508181036000830152612a9381612a57565b9050919050565b7f45524332303a207472616e736665722066726f6d20746865207a65726f20616460008201527f6472657373000000000000000000000000000000000000000000000000000000602082015250565b6000612af6602583611e09565b9150612b0182612a9a565b604082019050919050565b60006020820190508181036000830152612b2581612ae9565b9050919050565b7f45524332303a207472616e7366657220746f20746865207a65726f206164647260008201527f6573730000000000000000000000000000000000000000000000000000000000602082015250565b6000612b88602383611e09565b9150612b9382612b2c565b604082019050919050565b60006020820190508181036000830152612bb781612b7b565b9050919050565b7f45524332303a207472616e7366657220616d6f756e742065786365656473206260008201527f616c616e63650000000000000000000000000000000000000000000000000000602082015250565b6000612c1a602683611e09565b9150612c2582612bbe565b604082019050919050565b60006020820190508181036000830152612c4981612c0d565b9050919050565b7f45524331393637557067726164653a207570677261646520627265616b73206660008201527f7572746865722075706772616465730000000000000000000000000000000000602082015250565b6000612cac602f83611e09565b9150612cb782612c50565b604082019050919050565b60006020820190508181036000830152612cdb81612c9f565b9050919050565b7f496e697469616c697a61626c653a20636f6e7472616374206973206e6f74206960008201527f6e697469616c697a696e67000000000000000000000000000000000000000000602082015250565b6000612d3e602b83611e09565b9150612d4982612ce2565b604082019050919050565b60006020820190508181036000830152612d6d81612d31565b9050919050565b7f45524332303a206d696e7420746f20746865207a65726f206164647265737300600082015250565b6000612daa601f83611e09565b9150612db582612d74565b602082019050919050565b60006020820190508181036000830152612dd981612d9d565b9050919050565b7f455243313936373a206e657720696d706c656d656e746174696f6e206973206e60008201527f6f74206120636f6e747261637400000000000000000000000000000000000000602082015250565b6000612e3c602d83611e09565b9150612e4782612de0565b604082019050919050565b60006020820190508181036000830152612e6b81612e2f565b9050919050565b7f416464726573733a2064656c65676174652063616c6c20746f206e6f6e2d636f60008201527f6e74726163740000000000000000000000000000000000000000000000000000602082015250565b6000612ece602683611e09565b9150612ed982612e72565b604082019050919050565b60006020820190508181036000830152612efd81612ec1565b9050919050565b600081519050919050565b600081905092915050565b6000612f2582612f04565b612f2f8185612f0f565b9350612f3f818560208601611e1a565b80840191505092915050565b6000612f578284612f1a565b91508190509291505056fe416464726573733a206c6f772d6c6576656c2064656c65676174652063616c6c206661696c6564a2646970667358221220187b25720f8bb4b9c2a6ad86b2f4269a9b7469ed3146c6076663faeea319015964736f6c634300080b0033",
  "linkReferences": {},
  "deployedLinkReferences": {}
}