{
  "_format": "hh-sol-artifact-1",
  "contractName": "MyTokenV1",
  "sourceName": "contracts/myToken.sol",
  "abi": [
    {
      "anonymous": false,
      "inputs": [
        {
          "indexed": false,
          "internalType": "address",
          "name": "previousAdmin",
          "type": "address"
        },
        {
          "indexed": false,
          "internalType": "address",
          "name": "newAdmin",
          "type": "address"
        }
      ],
      "name": "AdminChanged",
      "type": "event"
    },
    {
      "anonymous": false,
      "inputs": [
        {
          "indexed": true,
          "internalType": "address",
          "name": "owner",
          "type": "address"
        },
        {
          "indexed": true,
          "internalType": "address",
          "name": "spender",
          "type": "address"
        },
        {
          "indexed": false,
          "internalType": "uint256",
          "name": "value",
          "type": "uint256"
        }
      ],
      "name": "Approval",
      "type": "event"
    },
    {
      "anonymous": false,
      "inputs": [
        {
          "indexed": true,
          "internalType": "address",
          "name": "beacon",
          "type": "address"
        }
      ],
      "name": "BeaconUpgraded",
      "type": "event"
    },
    {
      "anonymous": false,
      "inputs": [
        {
          "indexed": false,
          "internalType": "uint8",
          "name": "version",
          "type": "uint8"
        }
      ],
      "name": "Initialized",
      "type": "event"
    },
    {
      "anonymous": false,
      "inputs": [
        {
          "indexed": true,
          "internalType": "address",
          "name": "previousOwner",
          "type": "address"
        },
        {
          "indexed": true,
          "internalType": "address",
          "name": "newOwner",
          "type": "address"
        }
      ],
      "name": "OwnershipTransferred",
      "type": "event"
    },
    {
      "anonymous": false,
      "inputs": [
        {
          "indexed": true,
          "internalType": "address",
          "name": "from",
          "type": "address"
        },
        {
          "indexed": true,
          "internalType": "address",
          "name": "to",
          "type": "address"
        },
        {
          "indexed": false,
          "internalType": "uint256",
          "name": "value",
          "type": "uint256"
        }
      ],
      "name": "Transfer",
      "type": "event"
    },
    {
      "anonymous": false,
      "inputs": [
        {
          "indexed": true,
          "internalType": "address",
          "name": "implementation",
          "type": "address"
        }
      ],
      "name": "Upgraded",
      "type": "event"
    },
    {
      "inputs": [
        {
          "internalType": "address",
          "name": "owner",
          "type": "address"
        },
        {
          "internalType": "address",
          "name": "spender",
          "type": "address"
        }
      ],
      "name": "allowance",
      "outputs": [
        {
          "internalType": "uint256",
          "name": "",
          "type": "uint256"
        }
      ],
      "stateMutability": "view",
      "type": "function"
    },
    {
      "inputs": [
        {
          "internalType": "address",
          "name": "spender",
          "type": "address"
        },
        {
          "internalType": "uint256",
          "name": "amount",
          "type": "uint256"
        }
      ],
      "name": "approve",
      "outputs": [
        {
          "internalType": "bool",
          "name": "",
          "type": "bool"
        }
      ],
      "stateMutability": "nonpayable",
      "type": "function"
    },
    {
      "inputs": [
        {
          "internalType": "address",
          "name": "account",
          "type": "address"
        }
      ],
      "name": "balanceOf",
      "outputs": [
        {
          "internalType": "uint256",
          "name": "",
          "type": "uint256"
        }
      ],
      "stateMutability": "view",
      "type": "function"
    },
    {
      "inputs": [],
      "name": "decimals",
      "outputs": [
        {
          "internalType": "uint8",
          "name": "",
          "type": "uint8"
        }
      ],
      "stateMutability": "view",
      "type": "function"
    },
    {
      "inputs": [
        {
          "internalType": "address",
          "name": "spender",
          "type": "address"
        },
        {
          "internalType": "uint256",
          "name": "subtractedValue",
          "type": "uint256"
        }
      ],
      "name": "decreaseAllowance",
      "outputs": [
        {
          "internalType": "bool",
          "name": "",
          "type": "bool"
        }
      ],
      "stateMutability": "nonpayable",
      "type": "function"
    },
    {
      "inputs": [
        {
          "internalType": "address",
          "name": "spender",
          "type": "address"
        },
        {
          "internalType": "uint256",
          "name": "addedValue",
          "type": "uint256"
        }
      ],
      "name": "increaseAllowance",
      "outputs": [
        {
          "internalType": "bool",
          "name": "",
          "type": "bool"
        }
      ],
      "stateMutability": "nonpayable",
      "type": "function"
    },
    {
      "inputs": [
        {
          "internalType": "uint256",
          "name": "initialSupply",
          "type": "uint256"
        }
      ],
      "name": "initialize",
      "outputs": [],
      "stateMutability": "nonpayable",
      "type": "function"
    },
    {
      "inputs": [],
      "name": "name",
      "outputs": [
        {
          "internalType": "string",
          "name": "",
          "type": "string"
        }
      ],
      "stateMutability": "view",
      "type": "function"
    },
    {
      "inputs": [],
      "name": "owner",
      "outputs": [
        {
          "internalType": "address",
          "name": "",
          "type": "address"
        }
      ],
      "stateMutability": "view",
      "type": "function"
    },
    {
      "inputs": [],
      "name": "proxiableUUID",
      "outputs": [
        {
          "internalType": "bytes32",
          "name": "",
          "type": "bytes32"
        }
      ],
      "stateMutability": "view",
      "type": "function"
    },
    {
      "inputs": [],
      "name": "renounceOwnership",
      "outputs": [],
      "stateMutability": "nonpayable",
      "type": "function"
    },
    {
      "inputs": [],
      "name": "symbol",
      "outputs": [
        {
          "internalType": "string",
          "name": "",
          "type": "string"
        }
      ],
      "stateMutability": "view",
      "type": "function"
    },
    {
      "inputs": [],
      "name": "totalSupply",
      "outputs": [
        {
          "internalType": "uint256",
          "name": "",
          "type": "uint256"
        }
      ],
      "stateMutability": "view",
      "type": "function"
    },
    {
      "inputs": [
        {
          "internalType": "address",
          "name": "to",
          "type": "address"
        },
        {
          "internalType": "uint256",
          "name": "amount",
          "type": "uint256"
        }
      ],
      "name": "transfer",
      "outputs": [
        {
          "internalType": "bool",
          "name": "",
          "type": "bool"
        }
      ],
      "stateMutability": "nonpayable",
      "type": "function"
    },
    {
      "inputs": [
        {
          "internalType": "address",
          "name": "from",
          "type": "address"
        },
        {
          "internalType": "address",
          "name": "to",
          "type": "address"
        },
        {
          "internalType": "uint256",
          "name": "amount",
          "type": "uint256"
        }
      ],
      "name": "transferFrom",
      "outputs": [
        {
          "internalType": "bool",
          "name": "",
          "type": "bool"
        }
      ],
      "stateMutability": "nonpayable",
      "type": "function"
    },
    {
      "inputs": [
        {
          "internalType": "address",
          "name": "newOwner",
          "type": "address"
        }
      ],
      "name": "transferOwnership",
      "outputs": [],
      "stateMutability": "nonpayable",
      "type": "function"
    },
    {
      "inputs": [
        {
          "internalType": "address",
          "name": "newImplementation",
          "type": "address"
        }
      ],
      "name": "upgradeTo",
      "outputs": [],
      "stateMutability": "nonpayable",
      "type": "function"
    },
    {
      "inputs": [
        {
          "internalType": "address",
          "name": "newImplementation",
          "type": "address"
        },
        {
          "internalType": "bytes",
          "name": "data",
          "type": "bytes"
        }
      ],
      "name": "upgradeToAndCall",
      "outputs": [],
      "stateMutability": "payable",
      "type": "function"
    }
  ],
  "bytecode": "0x60a06040523073ffffffffffffffffffffffffffffffffffffffff1660809073ffffffffffffffffffffffffffffffffffffffff1681525034801561004357600080fd5b50608051612fa461007b60003960008181610562015281816105f101528181610722015281816107b101526108610152612fa46000f3fe6080604052600436106101095760003560e01c806370a0823111610095578063a457c2d711610064578063a457c2d714610360578063a9059cbb1461039d578063dd62ed3e146103da578063f2fde38b14610417578063fe4b84df1461044057610109565b806370a08231146102b6578063715018a6146102f35780638da5cb5b1461030a57806395d89b411461033557610109565b8063313ce567116100dc578063313ce567146101de5780633659cfe61461020957806339509351146102325780634f1ef2861461026f57806352d1902d1461028b57610109565b806306fdde031461010e578063095ea7b31461013957806318160ddd1461017657806323b872dd146101a1575b600080fd5b34801561011a57600080fd5b50610123610469565b6040516101309190611cb7565b60405180910390f35b34801561014557600080fd5b50610160600480360381019061015b9190611d81565b6104fb565b60405161016d9190611ddc565b60405180910390f35b34801561018257600080fd5b5061018b61051e565b6040516101989190611e06565b60405180910390f35b3480156101ad57600080fd5b506101c860048036038101906101c39190611e21565b610528565b6040516101d59190611ddc565b60405180910390f35b3480156101ea57600080fd5b506101f3610557565b6040516102009190611e90565b60405180910390f35b34801561021557600080fd5b50610230600480360381019061022b9190611eab565b610560565b005b34801561023e57600080fd5b5061025960048036038101906102549190611d81565b6106e9565b6040516102669190611ddc565b60405180910390f35b6102896004803603810190610284919061200d565b610720565b005b34801561029757600080fd5b506102a061085d565b6040516102ad9190612082565b60405180910390f35b3480156102c257600080fd5b506102dd60048036038101906102d89190611eab565b610916565b6040516102ea9190611e06565b60405180910390f35b3480156102ff57600080fd5b5061030861095f565b005b34801561031657600080fd5b5061031f610973565b60405161032c91906120ac565b60405180910390f35b34801561034157600080fd5b5061034a61099d565b6040516103579190611cb7565b60405180910390f35b34801561036c57600080fd5b5061038760048036038101906103829190611d81565b610a2f565b6040516103949190611ddc565b60405180910390f35b3480156103a957600080fd5b506103c460048036038101906103bf9190611d81565b610aa6565b6040516103d19190611ddc565b60405180910390f35b3480156103e657600080fd5b5061040160048036038101906103fc91906120c7565b610ac9565b60405161040e9190611e06565b60405180910390f35b34801561042357600080fd5b5061043e60048036038101906104399190611eab565b610b50565b005b34801561044c57600080fd5b5061046760048036038101906104629190612107565b610bd4565b005b60606036805461047890612163565b80601f01602080910402602001604051908101604052809291908181526020018280546104a490612163565b80156104f15780601f106104c6576101008083540402835291602001916104f1565b820191906000526020600020905b8154815290600101906020018083116104d457829003601f168201915b5050505050905090565b600080610506610db7565b9050610513818585610dbf565b600191505092915050565b6000603554905090565b600080610533610db7565b9050610540858285610f8a565b61054b858585611016565b60019150509392505050565b60006012905090565b7f000000000000000000000000000000000000000000000000000000000000000073ffffffffffffffffffffffffffffffffffffffff163073ffffffffffffffffffffffffffffffffffffffff1614156105ef576040517f08c379a00000000000000000000000000000000000000000000000000000000081526004016105e690612207565b60405180910390fd5b7f000000000000000000000000000000000000000000000000000000000000000073ffffffffffffffffffffffffffffffffffffffff1661062e611291565b73ffffffffffffffffffffffffffffffffffffffff1614610684576040517f08c379a000000000000000000000000000000000000000000000000000000000815260040161067b90612299565b60405180910390fd5b61068d816112e8565b6106e681600067ffffffffffffffff8111156106ac576106ab611ee2565b5b6040519080825280601f01601f1916602001820160405280156106de5781602001600182028036833780820191505090505b5060006112f3565b50565b6000806106f4610db7565b90506107158185856107068589610ac9565b61071091906122e8565b610dbf565b600191505092915050565b7f000000000000000000000000000000000000000000000000000000000000000073ffffffffffffffffffffffffffffffffffffffff163073ffffffffffffffffffffffffffffffffffffffff1614156107af576040517f08c379a00000000000000000000000000000000000000000000000000000000081526004016107a690612207565b60405180910390fd5b7f000000000000000000000000000000000000000000000000000000000000000073ffffffffffffffffffffffffffffffffffffffff166107ee611291565b73ffffffffffffffffffffffffffffffffffffffff1614610844576040517f08c379a000000000000000000000000000000000000000000000000000000000815260040161083b90612299565b60405180910390fd5b61084d826112e8565b610859828260016112f3565b5050565b60007f000000000000000000000000000000000000000000000000000000000000000073ffffffffffffffffffffffffffffffffffffffff163073ffffffffffffffffffffffffffffffffffffffff16146108ed576040517f08c379a00000000000000000000000000000000000000000000000000000000081526004016108e4906123b0565b60405180910390fd5b7f360894a13ba1a3210667c828492db98dca3e2076cc3735a920a3ca505d382bbc60001b905090565b6000603360008373ffffffffffffffffffffffffffffffffffffffff1673ffffffffffffffffffffffffffffffffffffffff168152602001908152602001600020549050919050565b610967611461565b61097160006114df565b565b600060c960009054906101000a900473ffffffffffffffffffffffffffffffffffffffff16905090565b6060603780546109ac90612163565b80601f01602080910402602001604051908101604052809291908181526020018280546109d890612163565b8015610a255780601f106109fa57610100808354040283529160200191610a25565b820191906000526020600020905b815481529060010190602001808311610a0857829003601f168201915b5050505050905090565b600080610a3a610db7565b90506000610a488286610ac9565b905083811015610a8d576040517f08c379a0000000000000000000000000000000000000000000000000000000008152600401610a8490612442565b60405180910390fd5b610a9a8286868403610dbf565b60019250505092915050565b600080610ab1610db7565b9050610abe818585611016565b600191505092915050565b6000603460008473ffffffffffffffffffffffffffffffffffffffff1673ffffffffffffffffffffffffffffffffffffffff16815260200190815260200160002060008373ffffffffffffffffffffffffffffffffffffffff1673ffffffffffffffffffffffffffffffffffffffff16815260200190815260200160002054905092915050565b610b58611461565b600073ffffffffffffffffffffffffffffffffffffffff168173ffffffffffffffffffffffffffffffffffffffff161415610bc8576040517f08c379a0000000000000000000000000000000000000000000000000000000008152600401610bbf906124d4565b60405180910390fd5b610bd1816114df565b50565b60008060019054906101000a900460ff16159050808015610c055750600160008054906101000a900460ff1660ff16105b80610c325750610c14306115a5565b158015610c315750600160008054906101000a900460ff1660ff16145b5b610c71576040517f08c379a0000000000000000000000000000000000000000000000000000000008152600401610c6890612566565b60405180910390fd5b60016000806101000a81548160ff021916908360ff1602179055508015610cae576001600060016101000a81548160ff0219169083151502179055505b610d226040518060400160405280600781526020017f4d79546f6b656e000000000000000000000000000000000000000000000000008152506040518060400160405280600381526020017f4d595400000000000000000000000000000000000000000000000000000000008152506115c8565b610d2a611625565b610d32611686565b610d5a33610d3e610557565b600a610d4a91906126b9565b84610d559190612704565b6116d7565b8015610db35760008060016101000a81548160ff0219169083151502179055507f7f26b83ff96e1f2b6a682f133852f6798a09c465da95921460cefb38474024986001604051610daa91906127a3565b60405180910390a15b5050565b600033905090565b600073ffffffffffffffffffffffffffffffffffffffff168373ffffffffffffffffffffffffffffffffffffffff161415610e2f576040517f08c379a0000000000000000000000000000000000000000000000000000000008152600401610e2690612830565b60405180910390fd5b600073ffffffffffffffffffffffffffffffffffffffff168273ffffffffffffffffffffffffffffffffffffffff161415610e9f576040517f08c379a0000000000000000000000000000000000000000000000000000000008152600401610e96906128c2565b60405180910390fd5b80603460008573ffffffffffffffffffffffffffffffffffffffff1673ffffffffffffffffffffffffffffffffffffffff16815260200190815260200160002060008473ffffffffffffffffffffffffffffffffffffffff1673ffffffffffffffffffffffffffffffffffffffff168152602001908152602001600020819055508173ffffffffffffffffffffffffffffffffffffffff168373ffffffffffffffffffffffffffffffffffffffff167f8c5be1e5ebec7d5bd14f71427d1e84f3dd0314c0f7b2291e5b200ac8c7c3b92583604051610f7d9190611e06565b60405180910390a3505050565b6000610f968484610ac9565b90507fffffffffffffffffffffffffffffffffffffffffffffffffffffffffffffffff81146110105781811015611002576040517f08c379a0000000000000000000000000000000000000000000000000000000008152600401610ff99061292e565b60405180910390fd5b61100f8484848403610dbf565b5b50505050565b600073ffffffffffffffffffffffffffffffffffffffff168373ffffffffffffffffffffffffffffffffffffffff161415611086576040517f08c379a000000000000000000000000000000000000000000000000000000000815260040161107d906129c0565b60405180910390fd5b600073ffffffffffffffffffffffffffffffffffffffff168273ffffffffffffffffffffffffffffffffffffffff1614156110f6576040517f08c379a00000000000000000000000000000000000000000000000000000000081526004016110ed90612a52565b60405180910390fd5b61110183838361182f565b6000603360008573ffffffffffffffffffffffffffffffffffffffff1673ffffffffffffffffffffffffffffffffffffffff16815260200190815260200160002054905081811015611188576040517f08c379a000000000000000000000000000000000000000000000000000000000815260040161117f90612ae4565b60405180910390fd5b818103603360008673ffffffffffffffffffffffffffffffffffffffff1673ffffffffffffffffffffffffffffffffffffffff1681526020019081526020016000208190555081603360008573ffffffffffffffffffffffffffffffffffffffff1673ffffffffffffffffffffffffffffffffffffffff168152602001908152602001600020600082825401925050819055508273ffffffffffffffffffffffffffffffffffffffff168473ffffffffffffffffffffffffffffffffffffffff167fddf252ad1be2c89b69c2b068fc378daa952ba7f163c4a11628f55a4df523b3ef846040516112789190611e06565b60405180910390a361128b848484611834565b50505050565b60006112bf7f360894a13ba1a3210667c828492db98dca3e2076cc3735a920a3ca505d382bbc60001b611839565b60000160009054906101000a900473ffffffffffffffffffffffffffffffffffffffff16905090565b6112f0611461565b50565b61131f7f4910fdfa16fed3260ed0e7147f7cc6da11a60208b5b9406d12a635614ffd914360001b611843565b60000160009054906101000a900460ff16156113435761133e8361184d565b61145c565b8273ffffffffffffffffffffffffffffffffffffffff166352d1902d6040518163ffffffff1660e01b8152600401602060405180830381865afa9250505080156113ab57506040513d601f19601f820116820180604052508101906113a89190612b30565b60015b6113ea576040517f08c379a00000000000000000000000000000000000000000000000000000000081526004016113e190612bcf565b60405180910390fd5b7f360894a13ba1a3210667c828492db98dca3e2076cc3735a920a3ca505d382bbc60001b811461144f576040517f08c379a000000000000000000000000000000000000000000000000000000000815260040161144690612c61565b60405180910390fd5b5061145b838383611906565b5b505050565b611469610db7565b73ffffffffffffffffffffffffffffffffffffffff16611487610973565b73ffffffffffffffffffffffffffffffffffffffff16146114dd576040517f08c379a00000000000000000000000000000000000000000000000000000000081526004016114d490612ccd565b60405180910390fd5b565b600060c960009054906101000a900473ffffffffffffffffffffffffffffffffffffffff1690508160c960006101000a81548173ffffffffffffffffffffffffffffffffffffffff021916908373ffffffffffffffffffffffffffffffffffffffff1602179055508173ffffffffffffffffffffffffffffffffffffffff168173ffffffffffffffffffffffffffffffffffffffff167f8be0079c531659141344cd1fd0a4f28419497f9722a3daafe3b4186f6b6457e060405160405180910390a35050565b6000808273ffffffffffffffffffffffffffffffffffffffff163b119050919050565b600060019054906101000a900460ff16611617576040517f08c379a000000000000000000000000000000000000000000000000000000000815260040161160e90612d5f565b60405180910390fd5b6116218282611932565b5050565b600060019054906101000a900460ff16611674576040517f08c379a000000000000000000000000000000000000000000000000000000000815260040161166b90612d5f565b60405180910390fd5b61168461167f610db7565b6114df565b565b600060019054906101000a900460ff166116d5576040517f08c379a00000000000000000000000000000000000000000000000000000000081526004016116cc90612d5f565b60405180910390fd5b565b600073ffffffffffffffffffffffffffffffffffffffff168273ffffffffffffffffffffffffffffffffffffffff161415611747576040517f08c379a000000000000000000000000000000000000000000000000000000000815260040161173e90612dcb565b60405180910390fd5b6117536000838361182f565b806035600082825461176591906122e8565b9250508190555080603360008473ffffffffffffffffffffffffffffffffffffffff1673ffffffffffffffffffffffffffffffffffffffff168152602001908152602001600020600082825401925050819055508173ffffffffffffffffffffffffffffffffffffffff16600073ffffffffffffffffffffffffffffffffffffffff167fddf252ad1be2c89b69c2b068fc378daa952ba7f163c4a11628f55a4df523b3ef836040516118179190611e06565b60405180910390a361182b60008383611834565b5050565b505050565b505050565b6000819050919050565b6000819050919050565b611856816115a5565b611895576040517f08c379a000000000000000000000000000000000000000000000000000000000815260040161188c90612e5d565b60405180910390fd5b806118c27f360894a13ba1a3210667c828492db98dca3e2076cc3735a920a3ca505d382bbc60001b611839565b60000160006101000a81548173ffffffffffffffffffffffffffffffffffffffff021916908373ffffffffffffffffffffffffffffffffffffffff16021790555050565b61190f836119b3565b60008251118061191c5750805b1561192d5761192b8383611a02565b505b505050565b600060019054906101000a900460ff16611981576040517f08c379a000000000000000000000000000000000000000000000000000000000815260040161197890612d5f565b60405180910390fd5b8160369080519060200190611997929190611b7b565b5080603790805190602001906119ae929190611b7b565b505050565b6119bc8161184d565b8073ffffffffffffffffffffffffffffffffffffffff167fbc7cd75a20ee27fd9adebab32041f755214dbc6bffa90cc0225b39da2e5c2d3b60405160405180910390a250565b6060611a278383604051806060016040528060278152602001612f4860279139611a2f565b905092915050565b60606000808573ffffffffffffffffffffffffffffffffffffffff1685604051611a599190612ec4565b600060405180830381855af49150503d8060008114611a94576040519150601f19603f3d011682016040523d82523d6000602084013e611a99565b606091505b5091509150611aaa86838387611ab5565b925050509392505050565b60608315611b1857600083511415611b1057611ad0856115a5565b611b0f576040517f08c379a0000000000000000000000000000000000000000000000000000000008152600401611b0690612f27565b60405180910390fd5b5b829050611b23565b611b228383611b2b565b5b949350505050565b600082511115611b3e5781518083602001fd5b806040517f08c379a0000000000000000000000000000000000000000000000000000000008152600401611b729190611cb7565b60405180910390fd5b828054611b8790612163565b90600052602060002090601f016020900481019282611ba95760008555611bf0565b82601f10611bc257805160ff1916838001178555611bf0565b82800160010185558215611bf0579182015b82811115611bef578251825591602001919060010190611bd4565b5b509050611bfd9190611c01565b5090565b5b80821115611c1a576000816000905550600101611c02565b5090565b600081519050919050565b600082825260208201905092915050565b60005b83811015611c58578082015181840152602081019050611c3d565b83811115611c67576000848401525b50505050565b6000601f19601f8301169050919050565b6000611c8982611c1e565b611c938185611c29565b9350611ca3818560208601611c3a565b611cac81611c6d565b840191505092915050565b60006020820190508181036000830152611cd18184611c7e565b905092915050565b6000604051905090565b600080fd5b600080fd5b600073ffffffffffffffffffffffffffffffffffffffff82169050919050565b6000611d1882611ced565b9050919050565b611d2881611d0d565b8114611d3357600080fd5b50565b600081359050611d4581611d1f565b92915050565b6000819050919050565b611d5e81611d4b565b8114611d6957600080fd5b50565b600081359050611d7b81611d55565b92915050565b60008060408385031215611d9857611d97611ce3565b5b6000611da685828601611d36565b9250506020611db785828601611d6c565b9150509250929050565b60008115159050919050565b611dd681611dc1565b82525050565b6000602082019050611df16000830184611dcd565b92915050565b611e0081611d4b565b82525050565b6000602082019050611e1b6000830184611df7565b92915050565b600080600060608486031215611e3a57611e39611ce3565b5b6000611e4886828701611d36565b9350506020611e5986828701611d36565b9250506040611e6a86828701611d6c565b9150509250925092565b600060ff82169050919050565b611e8a81611e74565b82525050565b6000602082019050611ea56000830184611e81565b92915050565b600060208284031215611ec157611ec0611ce3565b5b6000611ecf84828501611d36565b91505092915050565b600080fd5b600080fd5b7f4e487b7100000000000000000000000000000000000000000000000000000000600052604160045260246000fd5b611f1a82611c6d565b810181811067ffffffffffffffff82111715611f3957611f38611ee2565b5b80604052505050565b6000611f4c611cd9565b9050611f588282611f11565b919050565b600067ffffffffffffffff821115611f7857611f77611ee2565b5b611f8182611c6d565b9050602081019050919050565b82818337600083830152505050565b6000611fb0611fab84611f5d565b611f42565b905082815260208101848484011115611fcc57611fcb611edd565b5b611fd7848285611f8e565b509392505050565b600082601f830112611ff457611ff3611ed8565b5b8135612004848260208601611f9d565b91505092915050565b6000806040838503121561202457612023611ce3565b5b600061203285828601611d36565b925050602083013567ffffffffffffffff81111561205357612052611ce8565b5b61205f85828601611fdf565b9150509250929050565b6000819050919050565b61207c81612069565b82525050565b60006020820190506120976000830184612073565b92915050565b6120a681611d0d565b82525050565b60006020820190506120c1600083018461209d565b92915050565b600080604083850312156120de576120dd611ce3565b5b60006120ec85828601611d36565b92505060206120fd85828601611d36565b9150509250929050565b60006020828403121561211d5761211c611ce3565b5b600061212b84828501611d6c565b91505092915050565b7f4e487b7100000000000000000000000000000000000000000000000000000000600052602260045260246000fd5b6000600282049050600182168061217b57607f821691505b6020821081141561218f5761218e612134565b5b50919050565b7f46756e6374696f6e206d7573742062652063616c6c6564207468726f7567682060008201527f64656c656761746563616c6c0000000000000000000000000000000000000000602082015250565b60006121f1602c83611c29565b91506121fc82612195565b604082019050919050565b60006020820190508181036000830152612220816121e4565b9050919050565b7f46756e6374696f6e206d7573742062652063616c6c6564207468726f7567682060008201527f6163746976652070726f78790000000000000000000000000000000000000000602082015250565b6000612283602c83611c29565b915061228e82612227565b604082019050919050565b600060208201905081810360008301526122b281612276565b9050919050565b7f4e487b7100000000000000000000000000000000000000000000000000000000600052601160045260246000fd5b60006122f382611d4b565b91506122fe83611d4b565b9250827fffffffffffffffffffffffffffffffffffffffffffffffffffffffffffffffff03821115612333576123326122b9565b5b828201905092915050565b7f555550535570677261646561626c653a206d757374206e6f742062652063616c60008201527f6c6564207468726f7567682064656c656761746563616c6c0000000000000000602082015250565b600061239a603883611c29565b91506123a58261233e565b604082019050919050565b600060208201905081810360008301526123c98161238d565b9050919050565b7f45524332303a2064656372656173656420616c6c6f77616e63652062656c6f7760008201527f207a65726f000000000000000000000000000000000000000000000000000000602082015250565b600061242c602583611c29565b9150612437826123d0565b604082019050919050565b6000602082019050818103600083015261245b8161241f565b9050919050565b7f4f776e61626c653a206e6577206f776e657220697320746865207a65726f206160008201527f6464726573730000000000000000000000000000000000000000000000000000602082015250565b60006124be602683611c29565b91506124c982612462565b604082019050919050565b600060208201905081810360008301526124ed816124b1565b9050919050565b7f496e697469616c697a61626c653a20636f6e747261637420697320616c72656160008201527f647920696e697469616c697a6564000000000000000000000000000000000000602082015250565b6000612550602e83611c29565b915061255b826124f4565b604082019050919050565b6000602082019050818103600083015261257f81612543565b9050919050565b60008160011c9050919050565b6000808291508390505b60018511156125dd578086048111156125b9576125b86122b9565b5b60018516156125c85780820291505b80810290506125d685612586565b945061259d565b94509492505050565b6000826125f657600190506126b2565b8161260457600090506126b2565b816001811461261a576002811461262457612653565b60019150506126b2565b60ff841115612636576126356122b9565b5b8360020a91508482111561264d5761264c6122b9565b5b506126b2565b5060208310610133831016604e8410600b84101617156126885782820a905083811115612683576126826122b9565b5b6126b2565b6126958484846001612593565b925090508184048111156126ac576126ab6122b9565b5b81810290505b9392505050565b60006126c482611d4b565b91506126cf83611e74565b92506126fc7fffffffffffffffffffffffffffffffffffffffffffffffffffffffffffffffff84846125e6565b905092915050565b600061270f82611d4b565b915061271a83611d4b565b9250817fffffffffffffffffffffffffffffffffffffffffffffffffffffffffffffffff0483118215151615612753576127526122b9565b5b828202905092915050565b6000819050919050565b6000819050919050565b600061278d6127886127838461275e565b612768565b611e74565b9050919050565b61279d81612772565b82525050565b60006020820190506127b86000830184612794565b92915050565b7f45524332303a20617070726f76652066726f6d20746865207a65726f2061646460008201527f7265737300000000000000000000000000000000000000000000000000000000602082015250565b600061281a602483611c29565b9150612825826127be565b604082019050919050565b600060208201905081810360008301526128498161280d565b9050919050565b7f45524332303a20617070726f766520746f20746865207a65726f20616464726560008201527f7373000000000000000000000000000000000000000000000000000000000000602082015250565b60006128ac602283611c29565b91506128b782612850565b604082019050919050565b600060208201905081810360008301526128db8161289f565b9050919050565b7f45524332303a20696e73756666696369656e7420616c6c6f77616e6365000000600082015250565b6000612918601d83611c29565b9150612923826128e2565b602082019050919050565b600060208201905081810360008301526129478161290b565b9050919050565b7f45524332303a207472616e736665722066726f6d20746865207a65726f20616460008201527f6472657373000000000000000000000000000000000000000000000000000000602082015250565b60006129aa602583611c29565b91506129b58261294e565b604082019050919050565b600060208201905081810360008301526129d98161299d565b9050919050565b7f45524332303a207472616e7366657220746f20746865207a65726f206164647260008201527f6573730000000000000000000000000000000000000000000000000000000000602082015250565b6000612a3c602383611c29565b9150612a47826129e0565b604082019050919050565b60006020820190508181036000830152612a6b81612a2f565b9050919050565b7f45524332303a207472616e7366657220616d6f756e742065786365656473206260008201527f616c616e63650000000000000000000000000000000000000000000000000000602082015250565b6000612ace602683611c29565b9150612ad982612a72565b604082019050919050565b60006020820190508181036000830152612afd81612ac1565b9050919050565b612b0d81612069565b8114612b1857600080fd5b50565b600081519050612b2a81612b04565b92915050565b600060208284031215612b4657612b45611ce3565b5b6000612b5484828501612b1b565b91505092915050565b7f45524331393637557067726164653a206e657720696d706c656d656e7461746960008201527f6f6e206973206e6f742055555053000000000000000000000000000000000000602082015250565b6000612bb9602e83611c29565b9150612bc482612b5d565b604082019050919050565b60006020820190508181036000830152612be881612bac565b9050919050565b7f45524331393637557067726164653a20756e737570706f727465642070726f7860008201527f6961626c65555549440000000000000000000000000000000000000000000000602082015250565b6000612c4b602983611c29565b9150612c5682612bef565b604082019050919050565b60006020820190508181036000830152612c7a81612c3e565b9050919050565b7f4f776e61626c653a2063616c6c6572206973206e6f7420746865206f776e6572600082015250565b6000612cb7602083611c29565b9150612cc282612c81565b602082019050919050565b60006020820190508181036000830152612ce681612caa565b9050919050565b7f496e697469616c697a61626c653a20636f6e7472616374206973206e6f74206960008201527f6e697469616c697a696e67000000000000000000000000000000000000000000602082015250565b6000612d49602b83611c29565b9150612d5482612ced565b604082019050919050565b60006020820190508181036000830152612d7881612d3c565b9050919050565b7f45524332303a206d696e7420746f20746865207a65726f206164647265737300600082015250565b6000612db5601f83611c29565b9150612dc082612d7f565b602082019050919050565b60006020820190508181036000830152612de481612da8565b9050919050565b7f455243313936373a206e657720696d706c656d656e746174696f6e206973206e60008201527f6f74206120636f6e747261637400000000000000000000000000000000000000602082015250565b6000612e47602d83611c29565b9150612e5282612deb565b604082019050919050565b60006020820190508181036000830152612e7681612e3a565b9050919050565b600081519050919050565b600081905092915050565b6000612e9e82612e7d565b612ea88185612e88565b9350612eb8818560208601611c3a565b80840191505092915050565b6000612ed08284612e93565b915081905092915050565b7f416464726573733a2063616c6c20746f206e6f6e2d636f6e7472616374000000600082015250565b6000612f11601d83611c29565b9150612f1c82612edb565b602082019050919050565b60006020820190508181036000830152612f4081612f04565b905091905056fe416464726573733a206c6f772d6c6576656c2064656c65676174652063616c6c206661696c6564a264697066735822122001ede877d70108295d0b13d6c31bdfd61c053f8948770db87cf3618849bceb3064736f6c634300080b0033",
  "linkReferences": {},
  "deployedLinkReferences": {}
}